{
  "contractName": "Autopetrified",
  "abi": [
    {
      "constant": true,
      "inputs": [],
      "name": "hasInitialized",
      "outputs": [
        {
          "name": "",
          "type": "bool"
        }
      ],
      "payable": false,
      "stateMutability": "view",
      "type": "function"
    },
    {
      "constant": true,
      "inputs": [],
      "name": "getInitializationBlock",
      "outputs": [
        {
          "name": "",
          "type": "uint256"
        }
      ],
      "payable": false,
      "stateMutability": "view",
      "type": "function"
    },
    {
      "constant": true,
      "inputs": [],
      "name": "isPetrified",
      "outputs": [
        {
          "name": "",
          "type": "bool"
        }
      ],
      "payable": false,
      "stateMutability": "view",
      "type": "function"
    },
    {
      "inputs": [],
      "payable": false,
      "stateMutability": "nonpayable",
      "type": "constructor"
    }
  ],
  "bytecode": "0x608060405234801561001057600080fd5b5061002861002d640100000000026401000000009004565b6102ff565b6000610046610160640100000000026401000000009004565b146040805190810160405280601881526020017f494e49545f414c52454144595f494e495449414c495a45440000000000000000815250901515610125576040517f08c379a00000000000000000000000000000000000000000000000000000000081526004018080602001828103825283818151815260200191508051906020019080838360005b838110156100ea5780820151818401526020810190506100cf565b50505050905090810190601f1680156101175780820380516001836020036101000a031916815260200191505b509250505060405180910390fd5b5061015e7fffffffffffffffffffffffffffffffffffffffffffffffffffffffffffffffff6101aa640100000000026401000000009004565b565b60006101a57febb05b386a8d34882b8711d156f463690983dc47815980fb82aeeff1aa43579e600102600019166102ed64010000000002610180176401000000009004565b905090565b60006101c3610160640100000000026401000000009004565b146040805190810160405280601881526020017f494e49545f414c52454144595f494e495449414c495a454400000000000000008152509015156102a2576040517f08c379a00000000000000000000000000000000000000000000000000000000081526004018080602001828103825283818151815260200191508051906020019080838360005b8381101561026757808201518184015260208101905061024c565b50505050905090810190601f1680156102945780820380516001836020036101000a031916815260200191505b509250505060405180910390fd5b506102ea817febb05b386a8d34882b8711d156f463690983dc47815980fb82aeeff1aa43579e600102600019166102f86401000000000261018b179091906401000000009004565b50565b600081549050919050565b8082555050565b6101be8061030e6000396000f300608060405260043610610057576000357c0100000000000000000000000000000000000000000000000000000000900463ffffffff1680630803fac01461005c5780638b3dd7491461008b578063de4796ed146100b6575b600080fd5b34801561006857600080fd5b506100716100e5565b604051808215151515815260200191505060405180910390f35b34801561009757600080fd5b506100a0610110565b6040518082815260200191505060405180910390f35b3480156100c257600080fd5b506100cb610147565b604051808215151515815260200191505060405180910390f35b6000806100f0610110565b90506000811415801561010a575080610107610178565b10155b91505090565b60006101427febb05b386a8d34882b8711d156f463690983dc47815980fb82aeeff1aa43579e60010260001916610180565b905090565b60007fffffffffffffffffffffffffffffffffffffffffffffffffffffffffffffffff610172610110565b14905090565b600043905090565b600081549050919050565b80825550505600a165627a7a72305820c91e29e54b652c1881976b9e79aa5ccded4e536ea9daf3757ae7141e77365ac80029",
  "source": "/*\n * SPDX-License-Identifier:    MIT\n */\n\npragma solidity ^0.4.24;\n\nimport \"./Petrifiable.sol\";\n\n\ncontract Autopetrified is Petrifiable {\n    constructor() public {\n        // Immediately petrify base (non-proxy) instances of inherited contracts on deploy.\n        // This renders them uninitializable (and unusable without a proxy).\n        petrify();\n    }\n}\n",
  "sourcePath": "@aragon/os/contracts/common/Autopetrified.sol",
  "compiler": {
    "name": "solc",
    "version": "0.4.24+commit.e67f0147.Emscripten.clang"
  },
  "schemaVersion": "3.1.0",
  "updatedAt": "2020-07-11T15:52:10.209Z",
  "devdoc": {
    "methods": {
      "getInitializationBlock()": {
        "return": "Block number in which the contract was initialized"
      },
      "hasInitialized()": {
        "return": "Whether the contract has been initialized by the time of the current block"
      }
    }
  },
  "userdoc": {
    "methods": {}
  }
}