{
  "contractName": "Voting",
  "abi": [
    {
      "constant": true,
      "inputs": [],
      "name": "hasInitialized",
      "outputs": [
        {
          "name": "",
          "type": "bool"
        }
      ],
      "payable": false,
      "stateMutability": "view",
      "type": "function"
    },
    {
      "constant": false,
      "inputs": [
        {
          "name": "userAddress",
          "type": "address"
        },
        {
          "name": "functionSignature",
          "type": "bytes"
        },
        {
          "name": "sigR",
          "type": "bytes32"
        },
        {
          "name": "sigS",
          "type": "bytes32"
        },
        {
          "name": "sigV",
          "type": "uint8"
        }
      ],
      "name": "executeMetaTransaction",
      "outputs": [],
      "payable": true,
      "stateMutability": "payable",
      "type": "function"
    },
    {
      "constant": true,
      "inputs": [],
      "name": "minTime",
      "outputs": [
        {
          "name": "",
          "type": "uint256"
        }
      ],
      "payable": false,
      "stateMutability": "view",
      "type": "function"
    },
    {
      "constant": true,
      "inputs": [
        {
          "name": "_script",
          "type": "bytes"
        }
      ],
      "name": "getEVMScriptExecutor",
      "outputs": [
        {
          "name": "",
          "type": "address"
        }
      ],
      "payable": false,
      "stateMutability": "view",
      "type": "function"
    },
    {
      "constant": true,
      "inputs": [
        {
          "name": "user",
          "type": "address"
        }
      ],
      "name": "getNonce",
      "outputs": [
        {
          "name": "nonce",
          "type": "uint256"
        }
      ],
      "payable": false,
      "stateMutability": "view",
      "type": "function"
    },
    {
      "constant": true,
      "inputs": [],
      "name": "getRecoveryVault",
      "outputs": [
        {
          "name": "",
          "type": "address"
        }
      ],
      "payable": false,
      "stateMutability": "view",
      "type": "function"
    },
    {
      "constant": true,
      "inputs": [],
      "name": "MODIFY_QUORUM_ROLE",
      "outputs": [
        {
          "name": "",
          "type": "bytes32"
        }
      ],
      "payable": false,
      "stateMutability": "view",
      "type": "function"
    },
    {
      "constant": true,
      "inputs": [],
      "name": "getChainID",
      "outputs": [
        {
          "name": "",
          "type": "uint256"
        }
      ],
      "payable": false,
      "stateMutability": "pure",
      "type": "function"
    },
    {
      "constant": true,
      "inputs": [
        {
          "name": "owner",
          "type": "address"
        },
        {
          "name": "nonce",
          "type": "uint256"
        },
        {
          "name": "chainID",
          "type": "uint256"
        },
        {
          "name": "functionSignature",
          "type": "bytes"
        },
        {
          "name": "sigR",
          "type": "bytes32"
        },
        {
          "name": "sigS",
          "type": "bytes32"
        },
        {
          "name": "sigV",
          "type": "uint8"
        }
      ],
      "name": "verify",
      "outputs": [
        {
          "name": "",
          "type": "bool"
        }
      ],
      "payable": false,
      "stateMutability": "view",
      "type": "function"
    },
    {
      "constant": true,
      "inputs": [],
      "name": "MODIFY_SUPPORT_ROLE",
      "outputs": [
        {
          "name": "",
          "type": "bytes32"
        }
      ],
      "payable": false,
      "stateMutability": "view",
      "type": "function"
    },
    {
      "constant": true,
      "inputs": [
        {
          "name": "",
          "type": "address"
        }
      ],
      "name": "lastCreateVoteTimes",
      "outputs": [
        {
          "name": "",
          "type": "uint256"
        }
      ],
      "payable": false,
      "stateMutability": "view",
      "type": "function"
    },
    {
      "constant": true,
      "inputs": [
        {
          "name": "token",
          "type": "address"
        }
      ],
      "name": "allowRecoverability",
      "outputs": [
        {
          "name": "",
          "type": "bool"
        }
      ],
      "payable": false,
      "stateMutability": "view",
      "type": "function"
    },
    {
      "constant": true,
      "inputs": [],
      "name": "appId",
      "outputs": [
        {
          "name": "",
          "type": "bytes32"
        }
      ],
      "payable": false,
      "stateMutability": "view",
      "type": "function"
    },
    {
      "constant": true,
      "inputs": [],
      "name": "ENABLE_VOTE_CREATION",
      "outputs": [
        {
          "name": "",
          "type": "bytes32"
        }
      ],
      "payable": false,
      "stateMutability": "view",
      "type": "function"
    },
    {
      "constant": true,
      "inputs": [],
      "name": "getInitializationBlock",
      "outputs": [
        {
          "name": "",
          "type": "uint256"
        }
      ],
      "payable": false,
      "stateMutability": "view",
      "type": "function"
    },
    {
      "constant": true,
      "inputs": [],
      "name": "minBalanceUpperLimit",
      "outputs": [
        {
          "name": "",
          "type": "uint256"
        }
      ],
      "payable": false,
      "stateMutability": "view",
      "type": "function"
    },
    {
      "constant": false,
      "inputs": [
        {
          "name": "_token",
          "type": "address"
        }
      ],
      "name": "transferToVault",
      "outputs": [],
      "payable": false,
      "stateMutability": "nonpayable",
      "type": "function"
    },
    {
      "constant": true,
      "inputs": [
        {
          "name": "_sender",
          "type": "address"
        },
        {
          "name": "_role",
          "type": "bytes32"
        },
        {
          "name": "_params",
          "type": "uint256[]"
        }
      ],
      "name": "canPerform",
      "outputs": [
        {
          "name": "",
          "type": "bool"
        }
      ],
      "payable": false,
      "stateMutability": "view",
      "type": "function"
    },
    {
      "constant": true,
      "inputs": [],
      "name": "getEVMScriptRegistry",
      "outputs": [
        {
          "name": "",
          "type": "address"
        }
      ],
      "payable": false,
      "stateMutability": "view",
      "type": "function"
    },
    {
      "constant": true,
      "inputs": [],
      "name": "SET_MIN_BALANCE_ROLE",
      "outputs": [
        {
          "name": "",
          "type": "bytes32"
        }
      ],
      "payable": false,
      "stateMutability": "view",
      "type": "function"
    },
    {
      "constant": true,
      "inputs": [],
      "name": "minTimeLowerLimit",
      "outputs": [
        {
          "name": "",
          "type": "uint256"
        }
      ],
      "payable": false,
      "stateMutability": "view",
      "type": "function"
    },
    {
      "constant": true,
      "inputs": [],
      "name": "voteTime",
      "outputs": [
        {
          "name": "",
          "type": "uint64"
        }
      ],
      "payable": false,
      "stateMutability": "view",
      "type": "function"
    },
    {
      "constant": true,
      "inputs": [],
      "name": "CREATE_VOTES_ROLE",
      "outputs": [
        {
          "name": "",
          "type": "bytes32"
        }
      ],
      "payable": false,
      "stateMutability": "view",
      "type": "function"
    },
    {
      "constant": true,
      "inputs": [],
      "name": "SET_MIN_TIME_ROLE",
      "outputs": [
        {
          "name": "",
          "type": "bytes32"
        }
      ],
      "payable": false,
      "stateMutability": "view",
      "type": "function"
    },
    {
      "constant": true,
      "inputs": [],
      "name": "minBalance",
      "outputs": [
        {
          "name": "",
          "type": "uint256"
        }
      ],
      "payable": false,
      "stateMutability": "view",
      "type": "function"
    },
    {
      "constant": true,
      "inputs": [],
      "name": "chi",
      "outputs": [
        {
          "name": "",
          "type": "address"
        }
      ],
      "payable": false,
      "stateMutability": "view",
      "type": "function"
    },
    {
      "constant": true,
      "inputs": [],
      "name": "kernel",
      "outputs": [
        {
          "name": "",
          "type": "address"
        }
      ],
      "payable": false,
      "stateMutability": "view",
      "type": "function"
    },
    {
      "constant": true,
      "inputs": [],
      "name": "minAcceptQuorumPct",
      "outputs": [
        {
          "name": "",
          "type": "uint64"
        }
      ],
      "payable": false,
      "stateMutability": "view",
      "type": "function"
    },
    {
      "constant": true,
      "inputs": [],
      "name": "isPetrified",
      "outputs": [
        {
          "name": "",
          "type": "bool"
        }
      ],
      "payable": false,
      "stateMutability": "view",
      "type": "function"
    },
    {
      "constant": true,
      "inputs": [],
      "name": "votesLength",
      "outputs": [
        {
          "name": "",
          "type": "uint256"
        }
      ],
      "payable": false,
      "stateMutability": "view",
      "type": "function"
    },
    {
      "constant": true,
      "inputs": [],
      "name": "minTimeUpperLimit",
      "outputs": [
        {
          "name": "",
          "type": "uint256"
        }
      ],
      "payable": false,
      "stateMutability": "view",
      "type": "function"
    },
    {
      "constant": true,
      "inputs": [],
      "name": "minBalanceLowerLimit",
      "outputs": [
        {
          "name": "",
          "type": "uint256"
        }
      ],
      "payable": false,
      "stateMutability": "view",
      "type": "function"
    },
    {
      "constant": true,
      "inputs": [],
      "name": "enableVoteCreation",
      "outputs": [
        {
          "name": "",
          "type": "bool"
        }
      ],
      "payable": false,
      "stateMutability": "view",
      "type": "function"
    },
    {
      "constant": true,
      "inputs": [],
      "name": "supportRequiredPct",
      "outputs": [
        {
          "name": "",
          "type": "uint64"
        }
      ],
      "payable": false,
      "stateMutability": "view",
      "type": "function"
    },
    {
      "constant": true,
      "inputs": [],
      "name": "token",
      "outputs": [
        {
          "name": "",
          "type": "address"
        }
      ],
      "payable": false,
      "stateMutability": "view",
      "type": "function"
    },
    {
      "constant": true,
      "inputs": [],
      "name": "PCT_BASE",
      "outputs": [
        {
          "name": "",
          "type": "uint64"
        }
      ],
      "payable": false,
      "stateMutability": "view",
      "type": "function"
    },
    {
      "constant": true,
      "inputs": [],
      "name": "DISABLE_VOTE_CREATION",
      "outputs": [
        {
          "name": "",
          "type": "bytes32"
        }
      ],
      "payable": false,
      "stateMutability": "view",
      "type": "function"
    },
    {
      "anonymous": false,
      "inputs": [
        {
          "indexed": true,
          "name": "voteId",
          "type": "uint256"
        },
        {
          "indexed": true,
          "name": "creator",
          "type": "address"
        },
        {
          "indexed": false,
          "name": "metadata",
          "type": "string"
        },
        {
          "indexed": false,
          "name": "minBalance",
          "type": "uint256"
        },
        {
          "indexed": false,
          "name": "minTime",
          "type": "uint256"
        },
        {
          "indexed": false,
          "name": "totalSupply",
          "type": "uint256"
        },
        {
          "indexed": false,
          "name": "creatorVotingPower",
          "type": "uint256"
        }
      ],
      "name": "StartVote",
      "type": "event"
    },
    {
      "anonymous": false,
      "inputs": [
        {
          "indexed": true,
          "name": "voteId",
          "type": "uint256"
        },
        {
          "indexed": true,
          "name": "voter",
          "type": "address"
        },
        {
          "indexed": false,
          "name": "supports",
          "type": "bool"
        },
        {
          "indexed": false,
          "name": "stake",
          "type": "uint256"
        }
      ],
      "name": "CastVote",
      "type": "event"
    },
    {
      "anonymous": false,
      "inputs": [
        {
          "indexed": true,
          "name": "voteId",
          "type": "uint256"
        }
      ],
      "name": "ExecuteVote",
      "type": "event"
    },
    {
      "anonymous": false,
      "inputs": [
        {
          "indexed": false,
          "name": "supportRequiredPct",
          "type": "uint64"
        }
      ],
      "name": "ChangeSupportRequired",
      "type": "event"
    },
    {
      "anonymous": false,
      "inputs": [
        {
          "indexed": false,
          "name": "minAcceptQuorumPct",
          "type": "uint64"
        }
      ],
      "name": "ChangeMinQuorum",
      "type": "event"
    },
    {
      "anonymous": false,
      "inputs": [
        {
          "indexed": false,
          "name": "minBalance",
          "type": "uint256"
        }
      ],
      "name": "MinimumBalanceSet",
      "type": "event"
    },
    {
      "anonymous": false,
      "inputs": [
        {
          "indexed": false,
          "name": "minTime",
          "type": "uint256"
        }
      ],
      "name": "MinimumTimeSet",
      "type": "event"
    },
    {
      "anonymous": false,
      "inputs": [
        {
          "indexed": false,
          "name": "userAddress",
          "type": "address"
        },
        {
          "indexed": false,
          "name": "relayerAddress",
          "type": "address"
        },
        {
          "indexed": false,
          "name": "functionSignature",
          "type": "bytes"
        }
      ],
      "name": "MetaTransactionExecuted",
      "type": "event"
    },
    {
      "anonymous": false,
      "inputs": [
        {
          "indexed": true,
          "name": "executor",
          "type": "address"
        },
        {
          "indexed": false,
          "name": "script",
          "type": "bytes"
        },
        {
          "indexed": false,
          "name": "input",
          "type": "bytes"
        },
        {
          "indexed": false,
          "name": "returnData",
          "type": "bytes"
        }
      ],
      "name": "ScriptResult",
      "type": "event"
    },
    {
      "anonymous": false,
      "inputs": [
        {
          "indexed": true,
          "name": "vault",
          "type": "address"
        },
        {
          "indexed": true,
          "name": "token",
          "type": "address"
        },
        {
          "indexed": false,
          "name": "amount",
          "type": "uint256"
        }
      ],
      "name": "RecoverToVault",
      "type": "event"
    },
    {
      "constant": false,
      "inputs": [
        {
          "name": "_token",
          "type": "address"
        },
        {
          "name": "_supportRequiredPct",
          "type": "uint64"
        },
        {
          "name": "_minAcceptQuorumPct",
          "type": "uint64"
        },
        {
          "name": "_voteTime",
          "type": "uint64"
        },
        {
          "name": "_minBalance",
          "type": "uint256"
        },
        {
          "name": "_minTime",
          "type": "uint256"
        },
        {
          "name": "_minBalanceLowerLimit",
          "type": "uint256"
        },
        {
          "name": "_minBalanceUpperLimit",
          "type": "uint256"
        },
        {
          "name": "_minTimeLowerLimit",
          "type": "uint256"
        },
        {
          "name": "_minTimeUpperLimit",
          "type": "uint256"
        }
      ],
      "name": "initialize",
      "outputs": [],
      "payable": false,
      "stateMutability": "nonpayable",
      "type": "function"
    },
    {
      "constant": false,
      "inputs": [
        {
          "name": "_supportRequiredPct",
          "type": "uint64"
        }
      ],
      "name": "changeSupportRequiredPct",
      "outputs": [],
      "payable": false,
      "stateMutability": "nonpayable",
      "type": "function"
    },
    {
      "constant": false,
      "inputs": [
        {
          "name": "_minAcceptQuorumPct",
          "type": "uint64"
        }
      ],
      "name": "changeMinAcceptQuorumPct",
      "outputs": [],
      "payable": false,
      "stateMutability": "nonpayable",
      "type": "function"
    },
    {
      "constant": false,
      "inputs": [
        {
          "name": "_minBalance",
          "type": "uint256"
        }
      ],
      "name": "setMinBalance",
      "outputs": [],
      "payable": false,
      "stateMutability": "nonpayable",
      "type": "function"
    },
    {
      "constant": false,
      "inputs": [
        {
          "name": "_minTime",
          "type": "uint256"
        }
      ],
      "name": "setMinTime",
      "outputs": [],
      "payable": false,
      "stateMutability": "nonpayable",
      "type": "function"
    },
    {
      "constant": false,
      "inputs": [],
      "name": "disableVoteCreationOnce",
      "outputs": [],
      "payable": false,
      "stateMutability": "nonpayable",
      "type": "function"
    },
    {
      "constant": false,
      "inputs": [],
      "name": "enableVoteCreationOnce",
      "outputs": [],
      "payable": false,
      "stateMutability": "nonpayable",
      "type": "function"
    },
    {
      "constant": false,
      "inputs": [
        {
          "name": "_executionScript",
          "type": "bytes"
        },
        {
          "name": "_metadata",
          "type": "string"
        }
      ],
      "name": "newVote",
      "outputs": [
        {
          "name": "voteId",
          "type": "uint256"
        }
      ],
      "payable": false,
      "stateMutability": "nonpayable",
      "type": "function"
    },
    {
      "constant": false,
      "inputs": [
        {
          "name": "_executionScript",
          "type": "bytes"
        },
        {
          "name": "_metadata",
          "type": "string"
        },
        {
          "name": "_castVote",
          "type": "bool"
        },
        {
          "name": "_executesIfDecided",
          "type": "bool"
        }
      ],
      "name": "newVote",
      "outputs": [
        {
          "name": "voteId",
          "type": "uint256"
        }
      ],
      "payable": false,
      "stateMutability": "nonpayable",
      "type": "function"
    },
    {
      "constant": false,
      "inputs": [
        {
          "name": "_voteId",
          "type": "uint256"
        },
        {
          "name": "_supports",
          "type": "bool"
        },
        {
          "name": "_executesIfDecided",
          "type": "bool"
        }
      ],
      "name": "vote",
      "outputs": [],
      "payable": false,
      "stateMutability": "nonpayable",
      "type": "function"
    },
    {
      "constant": false,
      "inputs": [
        {
          "name": "_voteId",
          "type": "uint256"
        }
      ],
      "name": "executeVote",
      "outputs": [],
      "payable": false,
      "stateMutability": "nonpayable",
      "type": "function"
    },
    {
      "constant": true,
      "inputs": [],
      "name": "isForwarder",
      "outputs": [
        {
          "name": "",
          "type": "bool"
        }
      ],
      "payable": false,
      "stateMutability": "pure",
      "type": "function"
    },
    {
      "constant": false,
      "inputs": [
        {
          "name": "_evmScript",
          "type": "bytes"
        }
      ],
      "name": "forward",
      "outputs": [],
      "payable": false,
      "stateMutability": "nonpayable",
      "type": "function"
    },
    {
      "constant": true,
      "inputs": [
        {
          "name": "_sender",
          "type": "address"
        },
        {
          "name": "",
          "type": "bytes"
        }
      ],
      "name": "canForward",
      "outputs": [
        {
          "name": "",
          "type": "bool"
        }
      ],
      "payable": false,
      "stateMutability": "view",
      "type": "function"
    },
    {
      "constant": true,
      "inputs": [
        {
          "name": "_voteId",
          "type": "uint256"
        }
      ],
      "name": "canExecute",
      "outputs": [
        {
          "name": "",
          "type": "bool"
        }
      ],
      "payable": false,
      "stateMutability": "view",
      "type": "function"
    },
    {
      "constant": true,
      "inputs": [
        {
          "name": "_voteId",
          "type": "uint256"
        },
        {
          "name": "_voter",
          "type": "address"
        }
      ],
      "name": "canVote",
      "outputs": [
        {
          "name": "",
          "type": "bool"
        }
      ],
      "payable": false,
      "stateMutability": "view",
      "type": "function"
    },
    {
      "constant": true,
      "inputs": [
        {
          "name": "_sender",
          "type": "address"
        }
      ],
      "name": "canCreateNewVote",
      "outputs": [
        {
          "name": "",
          "type": "bool"
        }
      ],
      "payable": false,
      "stateMutability": "view",
      "type": "function"
    },
    {
      "constant": true,
      "inputs": [
        {
          "name": "_voteId",
          "type": "uint256"
        }
      ],
      "name": "getVote",
      "outputs": [
        {
          "name": "open",
          "type": "bool"
        },
        {
          "name": "executed",
          "type": "bool"
        },
        {
          "name": "startDate",
          "type": "uint64"
        },
        {
          "name": "snapshotBlock",
          "type": "uint64"
        },
        {
          "name": "supportRequired",
          "type": "uint64"
        },
        {
          "name": "minAcceptQuorum",
          "type": "uint64"
        },
        {
          "name": "yea",
          "type": "uint256"
        },
        {
          "name": "nay",
          "type": "uint256"
        },
        {
          "name": "votingPower",
          "type": "uint256"
        },
        {
          "name": "script",
          "type": "bytes"
        }
      ],
      "payable": false,
      "stateMutability": "view",
      "type": "function"
    },
    {
      "constant": true,
      "inputs": [
        {
          "name": "_voteId",
          "type": "uint256"
        },
        {
          "name": "_voter",
          "type": "address"
        }
      ],
      "name": "getVoterState",
      "outputs": [
        {
          "name": "",
          "type": "uint8"
        }
      ],
      "payable": false,
      "stateMutability": "view",
      "type": "function"
    }
  ],
  "bytecode": "0x6080604052620000176401000000006200001d810204565b6200023b565b6200003064010000000062000125810204565b60408051808201909152601881527f494e49545f414c52454144595f494e495449414c495a45440000000000000000602082015290156200010c576040517f08c379a00000000000000000000000000000000000000000000000000000000081526004018080602001828103825283818151815260200191508051906020019080838360005b83811015620000d0578181015183820152602001620000b6565b50505050905090810190601f168015620000fe5780820380516001836020036101000a031916815260200191505b509250505060405180910390fd5b506200012360001964010000000062000154810204565b565b60006200014f6000805160206200510b833981519152640100000000620035856200023382021704565b905090565b6200016764010000000062000125810204565b60408051808201909152601881527f494e49545f414c52454144595f494e495449414c495a454400000000000000006020820152901562000206576040517f08c379a000000000000000000000000000000000000000000000000000000000815260040180806020018281038252838181518152602001915080519060200190808383600083811015620000d0578181015183820152602001620000b6565b50620002306000805160206200510b83398151915282640100000000620044816200023782021704565b50565b5490565b9055565b614ec0806200024b6000396000f3006080604052600436106102845763ffffffff60e060020a6000350416630803fac081146102895780630c53c51c146102b25780631aa430781461031e5780632914b9bd146103455780632d0335ab146103ba5780632d573501146103db57806332f0a3b5146103fc5780633c624c75146104115780634b12311c14610426578063564b81ef1461046e5780635a55c1f0146104835780635eb24332146105aa5780636281133d146105cc57806362de7e5a146106485780637bbddcfc1461065d5780637c1d0b871461067e5780637e7db6e1146106a057806380afdea8146106c1578063868ce31a146106d65780638b3dd749146106eb5780638b5683271461070057806393f89a80146107155780639d4941d81461072d578063a1658fad1461074e578063a479e508146107b5578063a87f8624146107ca578063b6f6825414610818578063b87957251461082d578063bcf93dd614610842578063be2c64d414610874578063c0774df314610889578063c54c24b5146108f0578063c5bb875814610905578063c91d956c1461091a578063c92aecc414610932578063cc63604a14610947578063cdb2867b1461095f578063d4aae0c414610983578063d5db2c8014610998578063d948d468146109c4578063dc177eec14610a1d578063dc474b1a14610a32578063de4796ed14610a47578063de4f634714610a5c578063df133bca14610a71578063df13660214610a93578063df35219714610aa8578063eb1e3b7714610abd578063ee0f160e14610ad2578063f4b0051314610ae7578063f98a4eca14610b1d578063fad167ab14610b35578063fc0c546a14610b4a578063fc157cb414610b5f578063fd64eccb14610b74578063ff31183814610b89575b600080fd5b34801561029557600080fd5b5061029e610b9e565b604080519115158252519081900360200190f35b60408051602060046024803582810135601f810185900485028601850190965285855261031c958335600160a060020a0316953695604494919390910191908190840183828082843750949750508435955050506020830135926040013560ff169150610bc89050565b005b34801561032a57600080fd5b50610333610ef9565b60408051918252519081900360200190f35b34801561035157600080fd5b506040805160206004803580820135601f810184900484028501840190955284845261039e943694929360249392840191908190840183828082843750949750610eff9650505050505050565b60408051600160a060020a039092168252519081900360200190f35b3480156103c657600080fd5b50610333600160a060020a0360043516610fe5565b3480156103e757600080fd5b5061029e600160a060020a0360043516611000565b34801561040857600080fd5b5061039e6110e7565b34801561041d57600080fd5b50610333611160565b34801561043257600080fd5b5061044a600435600160a060020a0360243516611184565b6040518082600281111561045a57fe5b60ff16815260200191505060405180910390f35b34801561047a57600080fd5b50610333611270565b34801561048f57600080fd5b5061049b600435611275565b604051808b1515151581526020018a1515151581526020018967ffffffffffffffff1667ffffffffffffffff1681526020018867ffffffffffffffff1667ffffffffffffffff1681526020018767ffffffffffffffff1667ffffffffffffffff1681526020018667ffffffffffffffff1667ffffffffffffffff16815260200185815260200184815260200183815260200180602001828103825283818151815260200191508051906020019080838360005b8381101561056657818101518382015260200161054e565b50505050905090810190601f1680156105935780820380516001836020036101000a031916815260200191505b509b50505050505050505050505060405180910390f35b3480156105b657600080fd5b5061031c67ffffffffffffffff60043516611462565b3480156105d857600080fd5b50604080516020601f60643560048181013592830184900484028501840190955281845261029e94600160a060020a038135169460248035956044359536956084949301918190840183828082843750949750508435955050506020830135926040013560ff1691506116169050565b34801561065457600080fd5b5061033361186b565b34801561066957600080fd5b50610333600160a060020a036004351661188f565b34801561068a57600080fd5b5061031c67ffffffffffffffff600435166118a1565b3480156106ac57600080fd5b5061029e600160a060020a0360043516611b0d565b3480156106cd57600080fd5b50610333611b13565b3480156106e257600080fd5b50610333611b43565b3480156106f757600080fd5b50610333611b67565b34801561070c57600080fd5b50610333611b92565b34801561072157600080fd5b5061031c600435611b98565b34801561073957600080fd5b5061031c600160a060020a0360043516611d1d565b34801561075a57600080fd5b50604080516020600460443581810135838102808601850190965280855261029e958335600160a060020a0316956024803596369695606495939492019291829185019084908082843750949750611fac9650505050505050565b3480156107c157600080fd5b5061039e6120fc565b3480156107d657600080fd5b5061031c600160a060020a036004351667ffffffffffffffff6024358116906044358116906064351660843560a43560c43560e43561010435610124356121b1565b34801561082457600080fd5b506103336128ab565b34801561083957600080fd5b506103336128cf565b34801561084e57600080fd5b506108576128d5565b6040805167ffffffffffffffff9092168252519081900360200190f35b34801561088057600080fd5b506103336128f1565b34801561089557600080fd5b5060408051602060046024803582810135601f810185900485028601850190965285855261029e958335600160a060020a03169536956044949193909101919081908401838280828437509497506129039650505050505050565b3480156108fc57600080fd5b5061033361293c565b34801561091157600080fd5b50610333612960565b34801561092657600080fd5b5061031c600435612966565b34801561093e57600080fd5b5061039e612ae9565b34801561095357600080fd5b5061029e600435612afb565b34801561096b57600080fd5b5061029e600435600160a060020a0360243516612b8a565b34801561098f57600080fd5b5061039e612c19565b3480156109a457600080fd5b506103336024600480358281019290820135918135918201910135612c44565b3480156109d057600080fd5b506040805160206004803580820135601f810184900484028501840190955284845261031c943694929360249392840191908190840183828082843750949750612d5d9650505050505050565b348015610a2957600080fd5b5061031c612e16565b348015610a3e57600080fd5b50610857612ed8565b348015610a5357600080fd5b5061029e612ee8565b348015610a6857600080fd5b50610333612efb565b348015610a7d57600080fd5b5061031c60043560243515156044351515612f01565b348015610a9f57600080fd5b5061031c61302b565b348015610ab457600080fd5b506103336130f0565b348015610ac957600080fd5b506103336130f6565b348015610ade57600080fd5b5061029e6130fc565b348015610af357600080fd5b50610333602460048035828101929082013591813591820191013560443515156064351515613105565b348015610b2957600080fd5b5061031c60043561321f565b348015610b4157600080fd5b506108576132a1565b348015610b5657600080fd5b5061039e6132b8565b348015610b6b57600080fd5b506108576132c7565b348015610b8057600080fd5b5061029e611270565b348015610b9557600080fd5b506103336132d3565b600080610ba9611b67565b90508015801590610bc1575080610bbe6132f7565b10155b91505b5090565b600160a060020a038516600090815260208190526040812054610bf8908790610bef611270565b88888888611616565b1515610c74576040805160e560020a62461bcd02815260206004820152602160248201527f5369676e657220616e64207369676e617475726520646f206e6f74206d61746360448201527f6800000000000000000000000000000000000000000000000000000000000000606482015290519081900360840190fd5b600160a060020a038616600090815260208190526040902054610c9e90600163ffffffff6132fb16565b60008088600160a060020a0316600160a060020a031681526020019081526020016000208190555030600160a060020a031685876040516020018083805190602001908083835b60208310610d045780518252601f199092019160209182019101610ce5565b6001836020036101000a03801982511681845116808217855250505050505090500182600160a060020a0316600160a060020a03166c010000000000000000000000000281526014019250505060405160208183030381529060405260405180828051906020019080838360005b83811015610d8a578181015183820152602001610d72565b50505050905090810190601f168015610db75780820380516001836020036101000a031916815260200191505b509150506000604051808303816000865af192505050801515610e24576040805160e560020a62461bcd02815260206004820152601c60248201527f46756e6374696f6e2063616c6c206e6f74207375636365737366756c00000000604482015290519081900360640190fd5b7f5845892132946850460bff5a0083f71031bc5bf9aadcd40f1de79423eac9b10b8633876040518084600160a060020a0316600160a060020a0316815260200183600160a060020a0316600160a060020a0316815260200180602001828103825283818151815260200191508051906020019080838360005b83811015610eb5578181015183820152602001610e9d565b50505050905090810190601f168015610ee25780820380516001836020036101000a031916815260200191505b5094505050505060405180910390a1505050505050565b60085481565b6000610f096120fc565b600160a060020a03166304bf2a7f836040518263ffffffff1660e060020a0281526004018080602001828103825283818151815260200191508051906020019080838360005b83811015610f67578181015183820152602001610f4f565b50505050905090810190601f168015610f945780820380516001836020036101000a031916815260200191505b5092505050602060405180830381600087803b158015610fb357600080fd5b505af1158015610fc7573d6000803e3d6000fd5b505050506040513d6020811015610fdd57600080fd5b505192915050565b600160a060020a031660009081526020819052604090205490565b60095460009060ff1680156110aa5750600754600154604080517f70a08231000000000000000000000000000000000000000000000000000000008152600160a060020a038681166004830152915191909216916370a082319160248083019260209291908290030181600087803b15801561107b57600080fd5b505af115801561108f573d6000803e3d6000fd5b505050506040513d60208110156110a557600080fd5b505110155b80156110e15750600160a060020a0382166000908152600c60205260409020546008546110de90429063ffffffff61338916565b10155b92915050565b60006110f1612c19565b600160a060020a03166332f0a3b56040518163ffffffff1660e060020a028152600401602060405180830381600087803b15801561112e57600080fd5b505af1158015611142573d6000803e3d6000fd5b505050506040513d602081101561115857600080fd5b505190505b90565b7fad15e7261800b4bb73f1b69d3864565ffb1fd00cb93cf14fe48da8f1f2149f3981565b600b5460408051808201909152600e8152600080516020614e558339815191526020820152600091849190821061123c5760405160e560020a62461bcd0281526004018080602001828103825283818151815260200191508051906020019080838360005b838110156112015781810151838201526020016111e9565b50505050905090810190601f16801561122e5780820380516001836020036101000a031916815260200191505b509250505060405180910390fd5b506000848152600a60209081526040808320600160a060020a038716845260060190915290205460ff1691505b5092915050565b600190565b6000806000806000806000806000606060008b600b5481106040805190810160405280600e8152602001600080516020614e558339815191528152509015156113035760405160e560020a62461bcd028152600401808060200182810382528381815181526020019150805190602001908083836000838110156112015781810151838201526020016111e9565b5060008d8152600a60205260409020915061131d8261341d565b9b508160000160009054906101000a900460ff169a508160000160019054906101000a900467ffffffffffffffff1699508160000160099054906101000a900467ffffffffffffffff1698508160000160119054906101000a900467ffffffffffffffff1697508160010160009054906101000a900467ffffffffffffffff169650816002015495508160030154945081600401549350816005018054600181600116156101000203166002900480601f01602080910402602001604051908101604052809291908181526020018280546001816001161561010002031660029004801561144c5780601f106114215761010080835404028352916020019161144c565b820191906000526020600020905b81548152906001019060200180831161142f57829003601f168201915b5050505050925050509193959799509193959799565b6002547fad15e7261800b4bb73f1b69d3864565ffb1fd00cb93cf14fe48da8f1f2149f399061149e9067ffffffffffffffff8085169116613480565b6114a9338383611fac565b60408051808201909152600f8152600080516020614e35833981519152602082015290151561151d5760405160e560020a62461bcd028152600401808060200182810382528381815181526020019150805190602001908083836000838110156112015781810151838201526020016111e9565b5060015460408051808201909152601981527f564f54494e475f4348414e47455f51554f52554d5f504354530000000000000060208201529067ffffffffffffffff60a060020a909104811690851611156115bd5760405160e560020a62461bcd028152600401808060200182810382528381815181526020019150805190602001908083836000838110156112015781810151838201526020016111e9565b506002805467ffffffffffffffff851667ffffffffffffffff19909116811790915560408051918252517f3172f2e9273c729c2a47cc8bf7e7f18506e3e3035126d562602bd2155bc78a509181900360200190a1505050565b60008080600160a060020a038a16151561167a576040805160e560020a62461bcd02815260206004820152601560248201527f496e76616c6964206f776e657220616464726573730000000000000000000000604482015290519081900360640190fd5b61177e89308a8a6040516020018085815260200184600160a060020a0316600160a060020a03166c0100000000000000000000000002815260140183815260200182805190602001908083835b602083106116e65780518252601f1990920191602091820191016116c7565b6001836020036101000a0380198251168184511680821785525050505050509050019450505050506040516020818303038152906040526040518082805190602001908083835b6020831061174c5780518252601f19909201916020918201910161172d565b6001836020036101000a03801982511681845116808217855250505050505090500191505060405180910390206134db565b604080516000808252602080830180855285905260ff891683850152606083018b9052608083018a9052925193955060019360a08084019493601f19830193908390039091019190865af11580156117da573d6000803e3d6000fd5b5050604051601f190151915050600160a060020a0381161515611847576040805160e560020a62461bcd02815260206004820152601160248201527f496e76616c6964207369676e6174757265000000000000000000000000000000604482015290519081900360640190fd5b80600160a060020a03168a600160a060020a03161492505050979650505050505050565b7fda3972983e62bdf826c4b807c4c9c2b8a941e1f83dfa76d53d6aeac11e1be65081565b600c6020526000908152604090205481565b6001547fda3972983e62bdf826c4b807c4c9c2b8a941e1f83dfa76d53d6aeac11e1be650906118e49067ffffffffffffffff8085169160a060020a900416613480565b6118ef338383611fac565b60408051808201909152600f8152600080516020614e3583398151915260208201529015156119635760405160e560020a62461bcd028152600401808060200182810382528381815181526020019150805190602001908083836000838110156112015781810151838201526020016111e9565b5060025460408051808201909152601a81527f564f54494e475f4348414e47455f535550504f52545f5043545300000000000060208201529067ffffffffffffffff808616911611156119fb5760405160e560020a62461bcd028152600401808060200182810382528381815181526020019150805190602001908083836000838110156112015781810151838201526020016111e9565b5060408051808201909152601a81527f564f54494e475f4348414e47455f535550505f544f4f5f4249470000000000006020820152670de0b6b3a764000067ffffffffffffffff851610611a945760405160e560020a62461bcd028152600401808060200182810382528381815181526020019150805190602001908083836000838110156112015781810151838201526020016111e9565b506001805467ffffffffffffffff851660a060020a81027fffffffff0000000000000000ffffffffffffffffffffffffffffffffffffffff9092169190911790915560408051918252517f903b617f7f36eb047a29b89d1bf7885fdae31d250c3320fccf11d045c11b396e9181900360200190a1505050565b50600190565b6000611b3e7fd625496217aa6a3453eecb9c3489dc5a53e6c67b444329ea2b2cbc9ff547639b613585565b905090565b7fecb50dc3e77ba8a59697a3cc090a29b4cbd3c1f2b6b3aea524e0d166969592b981565b6000611b3e7febb05b386a8d34882b8711d156f463690983dc47815980fb82aeeff1aa43579e613585565b60045481565b604080516000808252602082019092527fe7ab0252519cd959720b328191bed7fe61b8e25f77613877be7070646d12daf091611bda9133918491905b50611fac565b60408051808201909152600f8152600080516020614e358339815191526020820152901515611c4e5760405160e560020a62461bcd028152600401808060200182810382528381815181526020019150805190602001908083836000838110156112015781810151838201526020016111e9565b50816005548110158015611c6457506006548111155b1515611ce0576040805160e560020a62461bcd02815260206004820152603960248201527f4d696e2074696d652073686f756c642062652077697468696e20696e6974696160448201527f6c697a6174696f6e2068617264636f646564206c696d69747300000000000000606482015290519081900360840190fd5b60088390556040805184815290517fcb34d0577abe5b2f96b65ea1bb5de2209ba6309c6909438c6d50dd277ca3b5809181900360200190a1505050565b6000806000611d2b84611b0d565b60408051808201909152601281527f5245434f5645525f444953414c4c4f57454400000000000000000000000000006020820152901515611db15760405160e560020a62461bcd028152600401808060200182810382528381815181526020019150805190602001908083836000838110156112015781810151838201526020016111e9565b50611dba6110e7565b9250611dc58361358d565b60408051808201909152601a81527f5245434f5645525f5641554c545f4e4f545f434f4e54524143540000000000006020820152901515611e4b5760405160e560020a62461bcd028152600401808060200182810382528381815181526020019150805190602001908083836000838110156112015781810151838201526020016111e9565b50600160a060020a0384161515611e9c5760405130319250600160a060020a0384169083156108fc029084906000818181858888f19350505050158015611e96573d6000803e3d6000fd5b50611f5b565b5082611eb7600160a060020a0382163063ffffffff6135b316565b9150611ed3600160a060020a038216848463ffffffff6136b316565b60408051808201909152601d81527f5245434f5645525f544f4b454e5f5452414e534645525f4641494c45440000006020820152901515611f595760405160e560020a62461bcd028152600401808060200182810382528381815181526020019150805190602001908083836000838110156112015781810151838201526020016111e9565b505b83600160a060020a031683600160a060020a03167f596caf56044b55fb8c4ca640089bbc2b63cae3e978b851f5745cbb7c5b288e02846040518082815260200191505060405180910390a350505050565b600080611fb7610b9e565b1515611fc657600091506120f4565b611fce612c19565b9050600160a060020a0381161515611fe957600091506120f4565b80600160a060020a031663fdef910686308761200488613729565b60405160e060020a63ffffffff8716028152600160a060020a03808616600483019081529085166024830152604482018490526080606483019081528351608484015283519192909160a490910190602085019080838360005b8381101561207657818101518382015260200161205e565b50505050905090810190601f1680156120a35780820380516001836020036101000a031916815260200191505b5095505050505050602060405180830381600087803b1580156120c557600080fd5b505af11580156120d9573d6000803e3d6000fd5b505050506040513d60208110156120ef57600080fd5b505191505b509392505050565b600080612107612c19565b604080517fbe00bbd80000000000000000000000000000000000000000000000000000000081527fd6f028ca0e8edb4a8c9757ca4fdccab25fa1e0317da1188108f7d2dee14902fb60048201527fddbcfd564f642ab5627cf68b9b7d374fb4f8a36e941a75d89c87998cef03bd6160248201529051600160a060020a03929092169163be00bbd8916044808201926020929091908290030181600087803b158015610fb357600080fd5b60006121bb611b67565b60408051808201909152601881527f494e49545f414c52454144595f494e495449414c495a45440000000000000000602082015290156122405760405160e560020a62461bcd028152600401808060200182810382528381815181526020019150805190602001908083836000838110156112015781810151838201526020016111e9565b50604080517f4352454154455f564f5445535f524f4c4500000000000000000000000000000081529051908190036011019020600080516020614e758339815191521461228957fe5b604080517f4d4f444946595f535550504f52545f524f4c4500000000000000000000000000815290519081900360130190207fda3972983e62bdf826c4b807c4c9c2b8a941e1f83dfa76d53d6aeac11e1be650146122e357fe5b604080517f4d4f444946595f51554f52554d5f524f4c450000000000000000000000000000815290519081900360120190207fad15e7261800b4bb73f1b69d3864565ffb1fd00cb93cf14fe48da8f1f2149f391461233d57fe5b604080517f5345545f4d494e5f42414c414e43455f524f4c45000000000000000000000000815290519081900360140190207fb1f3f26f63ad27cd630737a426f990492f5c674208299d6fb23bb2b0733d3d661461239757fe5b604080517f5345545f4d494e5f54494d455f524f4c45000000000000000000000000000000815290519081900360110190207fe7ab0252519cd959720b328191bed7fe61b8e25f77613877be7070646d12daf0146123f157fe5b604080517f44495341424c455f564f54455f4352454154494f4e0000000000000000000000815290519081900360150190207f40b01f8b31b51596de2eeab8c325ff77cc3695c1c1875d66ff31176e7148d2a11461244b57fe5b604080517f454e41424c455f564f54455f4352454154494f4e000000000000000000000000815290519081900360140190207fecb50dc3e77ba8a59697a3cc090a29b4cbd3c1f2b6b3aea524e0d166969592b9146124a557fe5b6124ad613733565b60408051808201909152601081527f564f54494e475f494e49545f5043545300000000000000000000000000000000602082015267ffffffffffffffff808c16908b1611156125415760405160e560020a62461bcd028152600401808060200182810382528381815181526020019150805190602001908083836000838110156112015781810151838201526020016111e9565b5060408051808201909152601b81527f564f54494e475f494e49545f535550504f52545f544f4f5f42494700000000006020820152670de0b6b3a764000067ffffffffffffffff8c16106125da5760405160e560020a62461bcd028152600401808060200182810382528381815181526020019150805190602001908083836000838110156112015781810151838201526020016111e9565b508487101580156125eb5750838711155b15156125f657600080fd5b8286101580156126065750818611155b151561261157600080fd5b8a600160006101000a815481600160a060020a030219169083600160a060020a0316021790555089600160146101000a81548167ffffffffffffffff021916908367ffffffffffffffff16021790555088600260006101000a81548167ffffffffffffffff021916908367ffffffffffffffff16021790555087600260086101000a81548167ffffffffffffffff021916908367ffffffffffffffff160217905550600160009054906101000a9004600160a060020a0316600160a060020a031663313ce5676040518163ffffffff1660e060020a028152600401602060405180830381600087803b15801561270657600080fd5b505af115801561271a573d6000803e3d6000fd5b505050506040513d602081101561273057600080fd5b505160ff16600a0a905061274a878263ffffffff6137fb16565b6007556008869055612762858263ffffffff6137fb16565b600355612775848263ffffffff6137fb16565b6004556005839055600682905560075460408051918252517fbd5318adc778260bd213cc16f3ef06cfb4f729adb9309495fed0e10abc61c3759181900360200190a160085460408051918252517fcb34d0577abe5b2f96b65ea1bb5de2209ba6309c6909438c6d50dd277ca3b5809181900360200190a16009805460ff19166001179055604080517f095ea7b3000000000000000000000000000000000000000000000000000000008152306004820152600019602482015290516d4946c0e9f43f4dee607b0ef1fa1c9163095ea7b39160448083019260209291908290030181600087803b15801561286757600080fd5b505af115801561287b573d6000803e3d6000fd5b505050506040513d602081101561289157600080fd5b5051151561289e57600080fd5b5050505050505050505050565b7fb1f3f26f63ad27cd630737a426f990492f5c674208299d6fb23bb2b0733d3d6681565b60055481565b60025468010000000000000000900467ffffffffffffffff1681565b600080516020614e7583398151915281565b600061292583600080516020614e758339815191526129206138a6565b611fac565b8015612935575061293583611000565b9392505050565b7fe7ab0252519cd959720b328191bed7fe61b8e25f77613877be7070646d12daf081565b60075481565b604080516000808252602082019092527fb1f3f26f63ad27cd630737a426f990492f5c674208299d6fb23bb2b0733d3d66916129a6913391849190611bd4565b60408051808201909152600f8152600080516020614e358339815191526020820152901515612a1a5760405160e560020a62461bcd028152600401808060200182810382528381815181526020019150805190602001908083836000838110156112015781810151838201526020016111e9565b50816003548110158015612a3057506004548111155b1515612aac576040805160e560020a62461bcd02815260206004820152603c60248201527f4d696e2062616c616e63652073686f756c642062652077697468696e20696e6960448201527f7469616c697a6174696f6e2068617264636f646564206c696d69747300000000606482015290519081900360840190fd5b60078390556040805184815290517fbd5318adc778260bd213cc16f3ef06cfb4f729adb9309495fed0e10abc61c3759181900360200190a1505050565b6d4946c0e9f43f4dee607b0ef1fa1c81565b600b5460408051808201909152600e8152600080516020614e5583398151915260208201526000918391908210612b775760405160e560020a62461bcd028152600401808060200182810382528381815181526020019150805190602001908083836000838110156112015781810151838201526020016111e9565b50612b81836138b8565b91505b50919050565b600b5460408051808201909152600e8152600080516020614e5583398151915260208201526000918491908210612c065760405160e560020a62461bcd028152600401808060200182810382528381815181526020019150805190602001908083836000838110156112015781810151838201526020016111e9565b50612c1184846139e7565b949350505050565b6000611b3e7f4172f0f7d2289153072b0a6ca36959e0cbe2efc3afe50fc81636caa96338137b613585565b60408051600080825260208201909252600080516020614e7583398151915290612c72903390839085611bd4565b60408051808201909152600f8152600080516020614e358339815191526020820152901515612ce65760405160e560020a62461bcd028152600401808060200182810382528381815181526020019150805190602001908083836000838110156112015781810151838201526020016111e9565b50612d5386868080601f0160208091040260200160405190810160405280939291908181526020018383808284375050604080516020601f8c018190048102820181019092528a815294508a93508992508291508401838280828437820191505050505050600180613ac4565b9695505050505050565b612d6e612d68613f64565b82612903565b60408051808201909152601681527f564f54494e475f43414e5f4e4f545f464f5257415244000000000000000000006020820152901515612df45760405160e560020a62461bcd028152600401808060200182810382528381815181526020019150805190602001908083836000838110156112015781810151838201526020016111e9565b50612e12816020604051908101604052806000815250600180613ac4565b5050565b604080516000808252602082019092527f40b01f8b31b51596de2eeab8c325ff77cc3695c1c1875d66ff31176e7148d2a191612e56913391849190611bd4565b60408051808201909152600f8152600080516020614e358339815191526020820152901515612eca5760405160e560020a62461bcd028152600401808060200182810382528381815181526020019150805190602001908083836000838110156112015781810151838201526020016111e9565b50506009805460ff19169055565b60025467ffffffffffffffff1681565b6000600019612ef5611b67565b14905090565b600b5481565b600b5460408051808201909152600e8152600080516020614e55833981519152602082015284918210612f795760405160e560020a62461bcd028152600401808060200182810382528381815181526020019150805190602001908083836000838110156112015781810151838201526020016111e9565b50612f8b84612f86613f64565b6139e7565b60408051808201909152601381527f564f54494e475f43414e5f4e4f545f564f54450000000000000000000000000060208201529015156130115760405160e560020a62461bcd028152600401808060200182810382528381815181526020019150805190602001908083836000838110156112015781810151838201526020016111e9565b50613025848461301f613f64565b85613fc7565b50505050565b604080516000808252602082019092527fecb50dc3e77ba8a59697a3cc090a29b4cbd3c1f2b6b3aea524e0d166969592b99161306b913391849190611bd4565b60408051808201909152600f8152600080516020614e3583398151915260208201529015156130df5760405160e560020a62461bcd028152600401808060200182810382528381815181526020019150805190602001908083836000838110156112015781810151838201526020016111e9565b50506009805460ff19166001179055565b60065481565b60035481565b60095460ff1681565b60408051600080825260208201909252600080516020614e7583398151915290613133903390839085611bd4565b60408051808201909152600f8152600080516020614e3583398151915260208201529015156131a75760405160e560020a62461bcd028152600401808060200182810382528381815181526020019150805190602001908083836000838110156112015781810151838201526020016111e9565b5061321388888080601f0160208091040260200160405190810160405280939291908181526020018383808284375050604080516020601f8e018190048102820181019092528c815294508c93508b925082915084018382808284378201915050505050508686613ac4565b98975050505050505050565b600b5460408051808201909152600e8152600080516020614e558339815191526020820152829182106132975760405160e560020a62461bcd028152600401808060200182810382528381815181526020019150805190602001908083836000838110156112015781810151838201526020016111e9565b50612e12826142b9565b60015460a060020a900467ffffffffffffffff1681565b600154600160a060020a031681565b670de0b6b3a764000081565b7f40b01f8b31b51596de2eeab8c325ff77cc3695c1c1875d66ff31176e7148d2a181565b4390565b60408051808201909152601181527f4d4154485f4144445f4f564552464c4f57000000000000000000000000000000602082015260009083830190848210156120f45760405160e560020a62461bcd028152600401808060200182810382528381815181526020019150805190602001908083836000838110156112015781810151838201526020016111e9565b60408051808201909152601281527f4d4154485f5355425f554e444552464c4f57000000000000000000000000000060208201526000908190848411156134155760405160e560020a62461bcd028152600401808060200182810382528381815181526020019150805190602001908083836000838110156112015781810151838201526020016111e9565b505050900390565b600254815460009161345391610100900467ffffffffffffffff908116916801000000000000000090041663ffffffff61435516565b67ffffffffffffffff166134656143f0565b67ffffffffffffffff161080156110e15750505460ff161590565b6040805160028082526060808301845292602083019080388339019050509050828160008151811015156134b057fe5b6020908102909101015280518290829060019081106134cb57fe5b6020908102909101015292915050565b604080517f19457468657265756d205369676e6564204d6573736167653a0a333200000000602080830191909152603c80830185905283518084039091018152605c909201928390528151600093918291908401908083835b602083106135535780518252601f199092019160209182019101613534565b5181516020939093036101000a6000190180199091169216919091179052604051920182900390912095945050505050565b5490565b5490565b600080600160a060020a03831615156135a95760009150612b84565b50506000903b1190565b60408051600160a060020a038316602480830191909152825180830390910181526044909101909152602081018051600160e060020a03167f70a0823100000000000000000000000000000000000000000000000000000000179052600090818061361e8684614402565b60408051808201909152601c81527f534146455f4552435f32305f42414c414e43455f524556455254454400000000602082015291935091508215156136a95760405160e560020a62461bcd028152600401808060200182810382528381815181526020019150805190602001908083836000838110156112015781810151838201526020016111e9565b5095945050505050565b60408051600160a060020a03841660248201526044808201849052825180830390910181526064909101909152602081018051600160e060020a03167fa9059cbb000000000000000000000000000000000000000000000000000000001790526000906137208582614433565b95945050505050565b8051602002815290565b61373b611b67565b60408051808201909152601881527f494e49545f414c52454144595f494e495449414c495a45440000000000000000602082015290156137c05760405160e560020a62461bcd028152600401808060200182810382528381815181526020019150805190602001908083836000838110156112015781810151838201526020016111e9565b506137f96137cc6132f7565b7febb05b386a8d34882b8711d156f463690983dc47815980fb82aeeff1aa43579e9063ffffffff61448116565b565b60008083151561380e5760009150611269565b5082820282848281151561381e57fe5b60408051808201909152601181527f4d4154485f4d554c5f4f564552464c4f57000000000000000000000000000000602082015292919004146120f45760405160e560020a62461bcd028152600401808060200182810382528381815181526020019150805190602001908083836000838110156112015781810151838201526020016111e9565b60408051600081526020810190915290565b6000818152600a60205260408120816138d08261341d565b156138de57600092506139e0565b815460ff16156138f157600092506139e0565b60028201546004830154835461392792919071010000000000000000000000000000000000900467ffffffffffffffff16614485565b1561393557600192506139e0565b61393e8261341d565b1561394c57600092506139e0565b600382015460028301546139659163ffffffff6132fb16565b6002830154835491925061399991839071010000000000000000000000000000000000900467ffffffffffffffff16614485565b15156139a857600092506139e0565b6002820154600483015460018401546139cc92919067ffffffffffffffff16614485565b15156139db57600092506139e0565b600192505b5050919050565b6000828152600a602052604081206139fe8161341d565b8015612c1157506001548154604080517f4ee2cd7e000000000000000000000000000000000000000000000000000000008152600160a060020a038781166004830152690100000000000000000090930467ffffffffffffffff16602482015290516000939290921691634ee2cd7e9160448082019260209290919082900301818787803b158015613a8f57600080fd5b505af1158015613aa3573d6000803e3d6000fd5b505050506040513d6020811015613ab957600080fd5b505111949350505050565b600080600080613ada613ad5613f64565b611000565b1515613ae557600080fd5b6001613aef6144c7565b600154604080517f981b24d00000000000000000000000000000000000000000000000000000000081529390920367ffffffffffffffff811660048501529151919550600160a060020a03169163981b24d09160248083019260209291908290030181600087803b158015613b6357600080fd5b505af1158015613b77573d6000803e3d6000fd5b505050506040513d6020811015613b8d57600080fd5b505160408051808201909152601681527f564f54494e475f4e4f5f564f54494e475f504f57455200000000000000000000602082015290925060008311613c195760405160e560020a62461bcd028152600401808060200182810382528381815181526020019150805190602001908083836000838110156112015781810151838201526020016111e9565b5050600b8054600181019091556000818152600a60205260409020909350613c3f6143f0565b815468ffffffffffffffff00191661010067ffffffffffffffff928316021770ffffffffffffffff0000000000000000001916690100000000000000000085831602178083556001805478ffffffffffffffff00000000000000000000000000000000001990921660a060020a9092048316710100000000000000000000000000000000000291909117835560025490830180549190921667ffffffffffffffff19909116179055600481018290558751613d0390600583019060208b0190614da6565b50613d0c613f64565b600160a060020a0316847f0730610a5322c6584fb6f5bb760719e650c888cfd965a2beb2d598bcd425e39489600754600854600160009054906101000a9004600160a060020a0316600160a060020a03166318160ddd6040518163ffffffff1660e060020a028152600401602060405180830381600087803b158015613d9157600080fd5b505af1158015613da5573d6000803e3d6000fd5b505050506040513d6020811015613dbb57600080fd5b5051600154600160a060020a0316634ee2cd7e613dd6613f64565b8c6040518363ffffffff1660e060020a0281526004018083600160a060020a0316600160a060020a031681526020018267ffffffffffffffff16815260200192505050602060405180830381600087803b158015613e3357600080fd5b505af1158015613e47573d6000803e3d6000fd5b505050506040513d6020811015613e5d57600080fd5b5051604080516020818101879052918101859052606081018490526080810183905260a080825287519082015286519091829160c083019189019080838360005b83811015613eb6578181015183820152602001613e9e565b50505050905090810190601f168015613ee35780820380516001836020036101000a031916815260200191505b50965050505050505060405180910390a3613efc6143f0565b67ffffffffffffffff16600c6000613f12613f64565b600160a060020a03168152602081019190915260400160002055858015613f405750613f4084612f86613f64565b15613f5957613f59846001613f53613f64565b88613fc7565b505050949350505050565b600060608133301415613fbe576000368080601f0160208091040260200160405190810160405280939291908181526020018383808284375050503680850151600160a060020a03169750939550929350613fc292505050565b3392505b505090565b6000848152600a60209081526040808320600160a060020a038616845260068101909252822054909160ff90911690808083600281111561400457fe5b14614059576040805160e560020a62461bcd02815260206004820152601260248201527f43616e2774206368616e676520766f7465730000000000000000000000000000604482015290519081900360640190fd5b6001548454604080517f4ee2cd7e000000000000000000000000000000000000000000000000000000008152600160a060020a038a81166004830152690100000000000000000090930467ffffffffffffffff16602482015290519190921691634ee2cd7e9160448083019260209291908290030181600087803b1580156140e057600080fd5b505af11580156140f4573d6000803e3d6000fd5b505050506040513d602081101561410a57600080fd5b50516002549092506141b79068010000000000000000900467ffffffffffffffff166141ab61418461413a6143f0565b600254895461416e9161010090910467ffffffffffffffff908116916801000000000000000090041663ffffffff61435516565b67ffffffffffffffff169063ffffffff6144d416565b67ffffffffffffffff1661419f60028763ffffffff6137fb16565b9063ffffffff6137fb16565b9063ffffffff61456d16565b9050818111156141c45750805b86156141e95760028401546141df908263ffffffff6132fb16565b6002850155614204565b60038401546141fe908263ffffffff6132fb16565b60038501555b86614210576002614213565b60015b600160a060020a03871660009081526006860160205260409020805460ff1916600183600281111561424157fe5b0217905550604080518815158152602081018390528151600160a060020a038916928b927fb34ee265e3d4f5ec4e8b52d59b2a9be8fceca2f274ebc080d8fba797fea9391f929081900390910190a38480156142a157506142a1886138b8565b156142af576142af8861460d565b5050505050505050565b6142c2816138b8565b60408051808201909152601681527f564f54494e475f43414e5f4e4f545f455845435554450000000000000000000060208201529015156143485760405160e560020a62461bcd028152600401808060200182810382528381815181526020019150805190602001908083836000838110156112015781810151838201526020016111e9565b506143528161460d565b50565b60408051808201909152601381527f4d41544836345f4144445f4f564552464c4f570000000000000000000000000060208201526000908383019067ffffffffffffffff80861690831610156120f45760405160e560020a62461bcd028152600401808060200182810382528381815181526020019150805190602001908083836000838110156112015781810151838201526020016111e9565b6000611b3e6143fd614704565b614708565b6000806000806040516020818751602089018a5afa9250600083111561442757805191505b50909590945092505050565b6000806040516020818551602087016000895af16000811115614477573d8015614464576020811461446d57614475565b60019350614475565b600183511493505b505b5090949350505050565b9055565b60008083151561449857600091506120f4565b836144b186670de0b6b3a764000063ffffffff6137fb16565b8115156144ba57fe5b0492909211949350505050565b6000611b3e6143fd6132f7565b60408051808201909152601481527f4d41544836345f5355425f554e444552464c4f570000000000000000000000006020820152600090819067ffffffffffffffff80861690851611156134155760405160e560020a62461bcd028152600401808060200182810382528381815181526020019150805190602001908083836000838110156112015781810151838201526020016111e9565b60408051808201909152600d81527f4d4154485f4449565f5a45524f00000000000000000000000000000000000000602082015260009081908184116145f85760405160e560020a62461bcd028152600401808060200182810382528381815181526020019150805190602001908083836000838110156112015781810151838201526020016111e9565b50828481151561460457fe5b04949350505050565b6000818152600a60209081526040808320805460ff191660019081178255825194855260058201805460029281161561010002600019011691909104601f810185900485028601840184529385018481529194936146d3938501828280156146b65780601f1061468b576101008083540402835291602001916146b6565b820191906000526020600020905b81548152906001019060200180831161469957829003601f168201915b505060408051600081526020810190915286935091506147a19050565b5060405183907fbf8e2b108bb7c980e08903a8a46527699d5e84905a082d56dacb4150725c8cab90600090a2505050565b4290565b60408051808201909152601581527f55494e5436345f4e554d4245525f544f4f5f4249470000000000000000000000602082015260009067ffffffffffffffff83111561479a5760405160e560020a62461bcd028152600401808060200182810382528381815181526020019150805190602001908083836000838110156112015781810151838201526020016111e9565b5090919050565b60606000806060806147b1610b9e565b60408051808201909152601481527f494e49545f4e4f545f494e495449414c495a454400000000000000000000000060208201529015156148375760405160e560020a62461bcd028152600401808060200182810382528381815181526020019150805190602001908083836000838110156112015781810151838201526020016111e9565b50600080614843612c19565b915061484d611b13565b90506148588a610eff565b60408051808201909152601b81527f45564d52554e5f4558454355544f525f554e415641494c41424c4500000000006020820152909650600160a060020a03871615156148ea5760405160e560020a62461bcd028152600401808060200182810382528381815181526020019150805190602001908083836000838110156112015781810151838201526020016111e9565b506040516060602482019081528b5160848301528b517f279cea3500000000000000000000000000000000000000000000000000000000975087928d928d928d9282916044820191606481019160a490910190602089019080838360005b83811015614960578181015183820152602001614948565b50505050905090810190601f16801561498d5780820380516001836020036101000a031916815260200191505b50848103835286518152865160209182019188019080838360005b838110156149c05781810151838201526020016149a8565b50505050905090810190601f1680156149ed5780820380516001836020036101000a031916815260200191505b508481038252855181528551602091820191808801910280838360005b83811015614a22578181015183820152602001614a0a565b50505050905001965050505050505060405160208183030381529060405290600160e060020a031916602082018051600160e060020a0383818316178352505050509350600080855160208701895af46040519350808015614ae657603f3d118015614a9b5760203d03806020883e8601604052614ae0565b60e560020a62461bcd02865260206004870152601e60248701527f45564d52554e5f4558454355544f525f494e56414c49445f52455455524e00006044870152606486fd5b50614aef565b3d6000863e3d85fd5b505085600160a060020a03167f5229a5dba83a54ae8cb5b51bdd6de9474cacbe9dd332f5185f3a4f4f2e3f4ad98b8b8660405180806020018060200180602001848103845287818151815260200191508051906020019080838360005b83811015614b64578181015183820152602001614b4c565b50505050905090810190601f168015614b915780820380516001836020036101000a031916815260200191505b50848103835286518152865160209182019188019080838360005b83811015614bc4578181015183820152602001614bac565b50505050905090810190601f168015614bf15780820380516001836020036101000a031916815260200191505b50848103825285518152855160209182019187019080838360005b83811015614c24578181015183820152602001614c0c565b50505050905090810190601f168015614c515780820380516001836020036101000a031916815260200191505b50965050505050505060405180910390a282965081600160a060020a0316614c77612c19565b600160a060020a0316146040805190810160405280601f81526020017f45564d52554e5f50524f5445435445445f53544154455f4d4f44494649454400815250901515614d095760405160e560020a62461bcd028152600401808060200182810382528381815181526020019150805190602001908083836000838110156112015781810151838201526020016111e9565b5080614d13611b13565b60408051808201909152601f81527f45564d52554e5f50524f5445435445445f53544154455f4d4f4449464945440060208201529114614d985760405160e560020a62461bcd028152600401808060200182810382528381815181526020019150805190602001908083836000838110156112015781810151838201526020016111e9565b505050505050509392505050565b828054600181600116156101000203166002900490600052602060002090601f016020900481019282601f10614de757805160ff1916838001178555614e14565b82800160010185558215614e14579182015b82811115614e14578251825591602001919060010190614df9565b50610bc49261115d9250905b80821115610bc45760008155600101614e2056004150505f415554485f4641494c45440000000000000000000000000000000000564f54494e475f4e4f5f564f5445000000000000000000000000000000000000e7dcd7275292e064d090fbc5f3bd7995be23b502c1fed5cd94cfddbbdcd32bbca165627a7a72305820cf990530efd8ad8b8b68ea654673df28ad1fe9b47378e4562f6ae21eeb90b1110029ebb05b386a8d34882b8711d156f463690983dc47815980fb82aeeff1aa43579e",
  "source": "/*\n * SPDX-License-Identitifer:    GPL-3.0-or-later\n */\n\npragma solidity 0.4.24;\n\nimport \"@aragon/os/contracts/apps/AragonApp.sol\";\nimport \"@aragon/os/contracts/common/IForwarder.sol\";\n\nimport \"@aragon/os/contracts/lib/math/SafeMath.sol\";\nimport \"@aragon/os/contracts/lib/math/SafeMath64.sol\";\n\nimport \"@aragon/apps-shared-minime/contracts/MiniMeToken.sol\";\n\nimport \"../biconomy/BasicMetaTransaction.sol\";\n\n\ninterface IFreeFromUpTo {\n    function freeFromUpTo(address from, uint256 value) external returns (uint256 freed);\n    function balanceOf(address account) external view returns (uint256);\n    function approve(address spender, uint256 amount) external returns (bool);\n}\n\ncontract Voting is IForwarder, AragonApp, BasicMetaTransaction {\n    using SafeMath for uint256;\n    using SafeMath64 for uint64;\n\n    IFreeFromUpTo public constant chi = IFreeFromUpTo(0x0000000000004946c0e9F43F4Dee607b0eF1fA1c);\n\n    modifier discountCHI {\n        uint256 gasStart = gasleft();\n        _;\n        uint256 gasSpent = 21000 + gasStart - gasleft() + 16 *\n                           msg.data.length;\n        if(chi.balanceOf(address(this)) > 0) {\n            chi.freeFromUpTo(address(this), (gasSpent + 14154) / 41947);\n        }\n        else {\n            chi.freeFromUpTo(msgSender(), (gasSpent + 14154) / 41947);\n        }\n    }\n\n    bytes32 public constant CREATE_VOTES_ROLE = 0xe7dcd7275292e064d090fbc5f3bd7995be23b502c1fed5cd94cfddbbdcd32bbc; //keccak256(\"CREATE_VOTES_ROLE\");\n    bytes32 public constant MODIFY_SUPPORT_ROLE = 0xda3972983e62bdf826c4b807c4c9c2b8a941e1f83dfa76d53d6aeac11e1be650; //keccak256(\"MODIFY_SUPPORT_ROLE\");\n    bytes32 public constant MODIFY_QUORUM_ROLE = 0xad15e7261800b4bb73f1b69d3864565ffb1fd00cb93cf14fe48da8f1f2149f39; //keccak256(\"MODIFY_QUORUM_ROLE\");\n\n    bytes32 public constant SET_MIN_BALANCE_ROLE = 0xb1f3f26f63ad27cd630737a426f990492f5c674208299d6fb23bb2b0733d3d66; //keccak256(\"SET_MIN_BALANCE_ROLE\")\n    bytes32 public constant SET_MIN_TIME_ROLE = 0xe7ab0252519cd959720b328191bed7fe61b8e25f77613877be7070646d12daf0; //keccak256(\"SET_MIN_TIME_ROLE\")\n\n    bytes32 public constant ENABLE_VOTE_CREATION = 0xecb50dc3e77ba8a59697a3cc090a29b4cbd3c1f2b6b3aea524e0d166969592b9; //keccak256(\"ENABLE_VOTE_CREATION\")\n\n    bytes32 public constant DISABLE_VOTE_CREATION = 0x40b01f8b31b51596de2eeab8c325ff77cc3695c1c1875d66ff31176e7148d2a1; //keccack256(\"DISABLE_VOTE_CREATION\")\n\n    uint64 public constant PCT_BASE = 10 ** 18; // 0% = 0; 1% = 10^16; 100% = 10^18\n\n    string private constant ERROR_NO_VOTE = \"VOTING_NO_VOTE\";\n    string private constant ERROR_INIT_PCTS = \"VOTING_INIT_PCTS\";\n    string private constant ERROR_CHANGE_SUPPORT_PCTS = \"VOTING_CHANGE_SUPPORT_PCTS\";\n    string private constant ERROR_CHANGE_QUORUM_PCTS = \"VOTING_CHANGE_QUORUM_PCTS\";\n    string private constant ERROR_INIT_SUPPORT_TOO_BIG = \"VOTING_INIT_SUPPORT_TOO_BIG\";\n    string private constant ERROR_CHANGE_SUPPORT_TOO_BIG = \"VOTING_CHANGE_SUPP_TOO_BIG\";\n    string private constant ERROR_CAN_NOT_VOTE = \"VOTING_CAN_NOT_VOTE\";\n    string private constant ERROR_CAN_NOT_EXECUTE = \"VOTING_CAN_NOT_EXECUTE\";\n    string private constant ERROR_CAN_NOT_FORWARD = \"VOTING_CAN_NOT_FORWARD\";\n    string private constant ERROR_NO_VOTING_POWER = \"VOTING_NO_VOTING_POWER\";\n\n    enum VoterState { Absent, Yea, Nay }\n\n    struct Vote {\n        bool executed;\n        uint64 startDate;\n        uint64 snapshotBlock;\n        uint64 supportRequiredPct;\n        uint64 minAcceptQuorumPct;\n        uint256 yea;\n        uint256 nay;\n        uint256 votingPower;\n        bytes executionScript;\n        mapping (address => VoterState) voters;\n    }\n\n    MiniMeToken public token;\n    uint64 public supportRequiredPct;\n    uint64 public minAcceptQuorumPct;\n    uint64 public voteTime;\n\n    //2500000000000000000000\n    uint256 public minBalanceLowerLimit;\n    uint256 public minBalanceUpperLimit;\n    //43200\n    uint256 public minTimeLowerLimit;\n    //1209600\n    uint256 public minTimeUpperLimit;\n\n    uint256 public minBalance;\n    uint256 public minTime;\n\n    bool public enableVoteCreation;\n\n    // We are mimicing an array, we use a mapping instead to make app upgrade more graceful\n    mapping (uint256 => Vote) internal votes;\n    uint256 public votesLength;\n\n    mapping(address => uint256) public lastCreateVoteTimes;\n\n    event StartVote(uint256 indexed voteId, address indexed creator, string metadata, uint256 minBalance, uint256 minTime, uint256 totalSupply, uint256 creatorVotingPower);\n    event CastVote(uint256 indexed voteId, address indexed voter, bool supports, uint256 stake);\n    event ExecuteVote(uint256 indexed voteId);\n    event ChangeSupportRequired(uint64 supportRequiredPct);\n    event ChangeMinQuorum(uint64 minAcceptQuorumPct);\n\n    event MinimumBalanceSet(uint256 minBalance);\n    event MinimumTimeSet(uint256 minTime);\n\n    modifier voteExists(uint256 _voteId) {\n        require(_voteId < votesLength, ERROR_NO_VOTE);\n        _;\n    }\n\n    modifier minBalanceCheck(uint256 _minBalance) {\n        //_minBalance to be at least the equivalent of 10k locked for a year (1e18 precision)\n        require(_minBalance >= minBalanceLowerLimit && _minBalance <= minBalanceUpperLimit, \"Min balance should be within initialization hardcoded limits\");\n        _;\n    }\n\n    modifier minTimeCheck(uint256 _minTime) {\n        require(_minTime >= minTimeLowerLimit && _minTime <= minTimeUpperLimit, \"Min time should be within initialization hardcoded limits\");\n        _;\n    }\n\n    /**\n    * @notice Initialize Voting app with `_token.symbol(): string` for governance, minimum support of `@formatPct(_supportRequiredPct)`%, minimum acceptance quorum of `@formatPct(_minAcceptQuorumPct)`%, and a voting duration of `@transformTime(_voteTime)`\n    * @param _token MiniMeToken Address that will be used as governance token\n    * @param _supportRequiredPct Percentage of yeas in casted votes for a vote to succeed (expressed as a percentage of 10^18; eg. 10^16 = 1%, 10^18 = 100%)\n    * @param _minAcceptQuorumPct Percentage of yeas in total possible votes for a vote to succeed (expressed as a percentage of 10^18; eg. 10^16 = 1%, 10^18 = 100%)\n    * @param _voteTime Seconds that a vote will be open for token holders to vote (unless enough yeas or nays have been cast to make an early decision)\n    * @param _minBalance Minumum balance that a token holder should have to create a new vote\n    * @param _minTime Minimum time between a user's previous vote and creating a new vote\n    * @param _minBalanceLowerLimit Hardcoded lower limit for _minBalance on initialization\n    * @param _minTimeLowerLimit Hardcoded lower limit for _minTime on initialization\n    * @param _minTimeUpperLimit Hardcoded upper limit for _minTime on initialization\n    */\n    function initialize(MiniMeToken _token, \n        uint64 _supportRequiredPct, \n        uint64 _minAcceptQuorumPct, \n        uint64 _voteTime,\n        uint256 _minBalance,\n        uint256 _minTime,\n        uint256 _minBalanceLowerLimit,\n        uint256 _minBalanceUpperLimit,\n        uint256 _minTimeLowerLimit,\n        uint256 _minTimeUpperLimit\n    ) external onlyInit {\n        assert(CREATE_VOTES_ROLE == keccak256(\"CREATE_VOTES_ROLE\"));\n        assert(MODIFY_SUPPORT_ROLE == keccak256(\"MODIFY_SUPPORT_ROLE\"));\n        assert(MODIFY_QUORUM_ROLE == keccak256(\"MODIFY_QUORUM_ROLE\"));\n        assert(SET_MIN_BALANCE_ROLE == keccak256(\"SET_MIN_BALANCE_ROLE\"));\n        assert(SET_MIN_TIME_ROLE == keccak256(\"SET_MIN_TIME_ROLE\"));\n        assert(DISABLE_VOTE_CREATION == keccak256(\"DISABLE_VOTE_CREATION\"));\n        assert(ENABLE_VOTE_CREATION == keccak256(\"ENABLE_VOTE_CREATION\"));\n\n        initialized();\n\n        require(_minAcceptQuorumPct <= _supportRequiredPct, ERROR_INIT_PCTS);\n        require(_supportRequiredPct < PCT_BASE, ERROR_INIT_SUPPORT_TOO_BIG);\n\n        require(_minBalance >= _minBalanceLowerLimit && _minBalance <= _minBalanceUpperLimit);\n        require(_minTime >= _minTimeLowerLimit && _minTime <= _minTimeUpperLimit);\n\n        token = _token;\n        supportRequiredPct = _supportRequiredPct;\n        minAcceptQuorumPct = _minAcceptQuorumPct;\n        voteTime = _voteTime;\n\n        uint256 decimalsMul = uint256(10) ** token.decimals();\n\n        minBalance = _minBalance.mul(decimalsMul);\n        minTime = _minTime;\n\n        minBalanceLowerLimit = _minBalanceLowerLimit.mul(decimalsMul);\n        minBalanceUpperLimit = _minBalanceUpperLimit.mul(decimalsMul);\n        minTimeLowerLimit = _minTimeLowerLimit;\n        minTimeUpperLimit = _minTimeUpperLimit;\n\n        emit MinimumBalanceSet(minBalance);\n        emit MinimumTimeSet(minTime);\n\n        enableVoteCreation = true;\n\n        require(chi.approve(address(this), uint256(-1)));\n    }\n\n    /**\n    * @notice Change required support to `@formatPct(_supportRequiredPct)`%\n    * @param _supportRequiredPct New required support\n    */\n    function changeSupportRequiredPct(uint64 _supportRequiredPct)\n        external\n        authP(MODIFY_SUPPORT_ROLE, arr(uint256(_supportRequiredPct), uint256(supportRequiredPct)))\n    {\n        require(minAcceptQuorumPct <= _supportRequiredPct, ERROR_CHANGE_SUPPORT_PCTS);\n        require(_supportRequiredPct < PCT_BASE, ERROR_CHANGE_SUPPORT_TOO_BIG);\n        supportRequiredPct = _supportRequiredPct;\n\n        emit ChangeSupportRequired(_supportRequiredPct);\n    }\n\n    /**\n    * @notice Change minimum acceptance quorum to `@formatPct(_minAcceptQuorumPct)`%\n    * @param _minAcceptQuorumPct New acceptance quorum\n    */\n    function changeMinAcceptQuorumPct(uint64 _minAcceptQuorumPct)\n        external\n        authP(MODIFY_QUORUM_ROLE, arr(uint256(_minAcceptQuorumPct), uint256(minAcceptQuorumPct)))\n    {\n        require(_minAcceptQuorumPct <= supportRequiredPct, ERROR_CHANGE_QUORUM_PCTS);\n        minAcceptQuorumPct = _minAcceptQuorumPct;\n\n        emit ChangeMinQuorum(_minAcceptQuorumPct);\n    }\n\n    /**\n    * @notice Change minimum balance needed to create a vote to `_minBalance`\n    * @param _minBalance New minimum balance\n    */\n\n    function setMinBalance(uint256 _minBalance) external auth(SET_MIN_BALANCE_ROLE) minBalanceCheck(_minBalance) {\n        //min balance can't be set to lower than 10k * 1 year\n        minBalance = _minBalance;\n\n        emit MinimumBalanceSet(_minBalance);\n    }\n\n    /**\n    * @notice Change minimum time needed to pass between user's previous vote and a user creating a new vote\n    * @param _minTime New minumum time\n    */\n\n    function setMinTime(uint256 _minTime) external auth(SET_MIN_TIME_ROLE) minTimeCheck(_minTime) {\n        //min time should be within initialized hardcoded limits\n        minTime = _minTime;\n\n        emit MinimumTimeSet(_minTime);\n    }\n\n    //later role will be set to 0x0 - noone\n    function disableVoteCreationOnce() external auth(DISABLE_VOTE_CREATION) {\n        enableVoteCreation = false;\n    }\n\n    function enableVoteCreationOnce() external auth(ENABLE_VOTE_CREATION) {\n        enableVoteCreation = true;\n    }\n\n    /**\n    * @notice Create a new vote about \"`_metadata`\"\n    * @param _executionScript EVM script to be executed on approval\n    * @param _metadata Vote metadata\n    * @return voteId Id for newly created vote\n    */\n    function newVote(bytes _executionScript, string _metadata) external auth(CREATE_VOTES_ROLE) returns (uint256 voteId) {\n        return _newVote(_executionScript, _metadata, true, true);\n    }\n\n    /**\n    * @notice Create a new vote about \"`_metadata`\"\n    * @param _executionScript EVM script to be executed on approval\n    * @param _metadata Vote metadata\n    * @param _castVote Whether to also cast newly created vote\n    * @param _executesIfDecided Whether to also immediately execute newly created vote if decided\n    * @return voteId id for newly created vote\n    */\n    function newVote(bytes _executionScript, string _metadata, bool _castVote, bool _executesIfDecided)\n        external\n        auth(CREATE_VOTES_ROLE)\n        returns (uint256 voteId)\n    {\n        return _newVote(_executionScript, _metadata, _castVote, _executesIfDecided);\n    }\n\n    /**\n    * @notice Vote `_supports ? 'yes' : 'no'` in vote #`_voteId`\n    * @dev Initialization check is implicitly provided by `voteExists()` as new votes can only be\n    *      created via `newVote(),` which requires initialization\n    * @param _voteId Id for vote\n    * @param _supports Whether voter supports the vote\n    * @param _executesIfDecided Whether the vote should execute its action if it becomes decided\n    */\n    function vote(uint256 _voteId, bool _supports, bool _executesIfDecided) external voteExists(_voteId) {\n        require(_canVote(_voteId, msgSender()), ERROR_CAN_NOT_VOTE);\n        _vote(_voteId, _supports, msgSender(), _executesIfDecided);\n    }\n\n    /**\n    * @notice Execute vote #`_voteId`\n    * @dev Initialization check is implicitly provided by `voteExists()` as new votes can only be\n    *      created via `newVote(),` which requires initialization\n    * @param _voteId Id for vote\n    */\n    function executeVote(uint256 _voteId) external voteExists(_voteId) {\n        _executeVote(_voteId);\n    }\n\n    // Forwarding fns\n\n    /**\n    * @notice Tells whether the Voting app is a forwarder or not\n    * @dev IForwarder interface conformance\n    * @return Always true\n    */\n    function isForwarder() external pure returns (bool) {\n        return true;\n    }\n\n    /**\n    * @notice Creates a vote to execute the desired action, and casts a support vote if possible\n    * @dev IForwarder interface conformance\n    * @param _evmScript Start vote with script\n    */\n    function forward(bytes _evmScript) public {\n        require(canForward(msgSender(), _evmScript), ERROR_CAN_NOT_FORWARD);\n        _newVote(_evmScript, \"\", true, true);\n    }\n\n    /**\n    * @notice Tells whether `_sender` can forward actions or not\n    * @dev IForwarder interface conformance\n    * @param _sender Address of the account intending to forward an action\n    * @return True if the given address can create votes, false otherwise\n    */\n    function canForward(address _sender, bytes) public view returns (bool) {\n        // Note that `canPerform()` implicitly does an initialization check itself\n        return canPerform(_sender, CREATE_VOTES_ROLE, arr()) && canCreateNewVote(_sender);\n    }\n\n    // Getter fns\n\n    /**\n    * @notice Tells whether a vote #`_voteId` can be executed or not\n    * @dev Initialization check is implicitly provided by `voteExists()` as new votes can only be\n    *      created via `newVote(),` which requires initialization\n    * @return True if the given vote can be executed, false otherwise\n    */\n    function canExecute(uint256 _voteId) public view voteExists(_voteId) returns (bool) {\n        return _canExecute(_voteId);\n    }\n\n    /**\n    * @notice Tells whether `_sender` can participate in the vote #`_voteId` or not\n    * @dev Initialization check is implicitly provided by `voteExists()` as new votes can only be\n    *      created via `newVote(),` which requires initialization\n    * @return True if the given voter can participate a certain vote, false otherwise\n    */\n    function canVote(uint256 _voteId, address _voter) public view voteExists(_voteId) returns (bool) {\n        return _canVote(_voteId, _voter);\n    }\n\n    function canCreateNewVote(address _sender) public view returns(bool) {\n        return enableVoteCreation && token.balanceOf(_sender) >= minBalance &&  block.timestamp.sub(minTime) >= lastCreateVoteTimes[_sender];\n    }\n\n    /**\n    * @dev Return all information for a vote by its ID\n    * @param _voteId Vote identifier\n    * @return Vote open status\n    * @return Vote executed status\n    * @return Vote start date\n    * @return Vote snapshot block\n    * @return Vote support required\n    * @return Vote minimum acceptance quorum\n    * @return Vote yeas amount\n    * @return Vote nays amount\n    * @return Vote power\n    * @return Vote script\n    */\n    function getVote(uint256 _voteId)\n        public\n        view\n        voteExists(_voteId)\n        returns (\n            bool open,\n            bool executed,\n            uint64 startDate,\n            uint64 snapshotBlock,\n            uint64 supportRequired,\n            uint64 minAcceptQuorum,\n            uint256 yea,\n            uint256 nay,\n            uint256 votingPower,\n            bytes script\n        )\n    {\n        Vote storage vote_ = votes[_voteId];\n\n        open = _isVoteOpen(vote_);\n        executed = vote_.executed;\n        startDate = vote_.startDate;\n        snapshotBlock = vote_.snapshotBlock;\n        supportRequired = vote_.supportRequiredPct;\n        minAcceptQuorum = vote_.minAcceptQuorumPct;\n        yea = vote_.yea;\n        nay = vote_.nay;\n        votingPower = vote_.votingPower;\n        script = vote_.executionScript;\n    }\n\n    /**\n    * @dev Return the state of a voter for a given vote by its ID\n    * @param _voteId Vote identifier\n    * @return VoterState of the requested voter for a certain vote\n    */\n    function getVoterState(uint256 _voteId, address _voter) public view voteExists(_voteId) returns (VoterState) {\n        return votes[_voteId].voters[_voter];\n    }\n\n    // Internal fns\n\n    /**\n    * @dev Internal function to create a new vote\n    * @return voteId id for newly created vote\n    */\n    function _newVote(bytes _executionScript, string _metadata, bool _castVote, bool _executesIfDecided) internal returns (uint256 voteId) {\n        require(canCreateNewVote(msgSender()));\n        uint64 snapshotBlock = getBlockNumber64() - 1; // avoid double voting in this very block\n        uint256 votingPower = token.totalSupplyAt(snapshotBlock);\n        require(votingPower > 0, ERROR_NO_VOTING_POWER);\n\n        voteId = votesLength++;\n\n        Vote storage vote_ = votes[voteId];\n        vote_.startDate = getTimestamp64();\n        vote_.snapshotBlock = snapshotBlock;\n        vote_.supportRequiredPct = supportRequiredPct;\n        vote_.minAcceptQuorumPct = minAcceptQuorumPct;\n        vote_.votingPower = votingPower;\n        vote_.executionScript = _executionScript;\n\n        emit StartVote(voteId, msgSender(), _metadata, minBalance, minTime, token.totalSupply(), token.balanceOfAt(msgSender(), snapshotBlock));\n\n        lastCreateVoteTimes[msgSender()] = getTimestamp64();\n\n        if (_castVote && _canVote(voteId, msgSender())) {\n            _vote(voteId, true, msgSender(), _executesIfDecided);\n        }\n    }\n\n    /**\n    * @dev Internal function to cast a vote. It assumes the queried vote exists.\n    */\n    function _vote(uint256 _voteId, bool _supports, address _voter, bool _executesIfDecided) internal {\n        Vote storage vote_ = votes[_voteId];\n\n        VoterState state = vote_.voters[_voter];\n        require(state == VoterState.Absent, \"Can't change votes\");\n        // This could re-enter, though we can assume the governance token is not malicious\n        uint256 balance = token.balanceOfAt(_voter, vote_.snapshotBlock);\n        uint256 voterStake = uint256(2).mul(balance).mul(vote_.startDate.add(voteTime).sub(getTimestamp64())).div(voteTime);\n        if(voterStake > balance) {\n            voterStake = balance;\n        }\n\n        if (_supports) {\n            vote_.yea = vote_.yea.add(voterStake);\n        } else {\n            vote_.nay = vote_.nay.add(voterStake);\n        }\n\n        vote_.voters[_voter] = _supports ? VoterState.Yea : VoterState.Nay;\n\n        emit CastVote(_voteId, _voter, _supports, voterStake);\n\n        if (_executesIfDecided && _canExecute(_voteId)) {\n            // We've already checked if the vote can be executed with `_canExecute()`\n            _unsafeExecuteVote(_voteId);\n        }\n    }\n\n    /**\n    * @dev Internal function to execute a vote. It assumes the queried vote exists.\n    */\n    function _executeVote(uint256 _voteId) internal {\n        require(_canExecute(_voteId), ERROR_CAN_NOT_EXECUTE);\n        _unsafeExecuteVote(_voteId);\n    }\n\n    /**\n    * @dev Unsafe version of _executeVote that assumes you have already checked if the vote can be executed and exists\n    */\n    function _unsafeExecuteVote(uint256 _voteId) internal {\n        Vote storage vote_ = votes[_voteId];\n\n        vote_.executed = true;\n\n        bytes memory input = new bytes(0); // TODO: Consider input for voting scripts\n        runScript(vote_.executionScript, input, new address[](0));\n\n        emit ExecuteVote(_voteId);\n    }\n\n    /**\n    * @dev Internal function to check if a vote can be executed. It assumes the queried vote exists.\n    * @return True if the given vote can be executed, false otherwise\n    */\n    function _canExecute(uint256 _voteId) internal view returns (bool) {\n        Vote storage vote_ = votes[_voteId];\n\n        if(_isVoteOpen(vote_)) {\n            return false;\n        }\n\n        if (vote_.executed) {\n            return false;\n        }\n\n        // Voting is already decided\n        if (_isValuePct(vote_.yea, vote_.votingPower, vote_.supportRequiredPct)) {\n            return true;\n        }\n\n        // Vote ended?\n        if (_isVoteOpen(vote_)) {\n            return false;\n        }\n        // Has enough support?\n        uint256 totalVotes = vote_.yea.add(vote_.nay);\n        if (!_isValuePct(vote_.yea, totalVotes, vote_.supportRequiredPct)) {\n            return false;\n        }\n        // Has min quorum?\n        if (!_isValuePct(vote_.yea, vote_.votingPower, vote_.minAcceptQuorumPct)) {\n            return false;\n        }\n\n        return true;\n    }\n\n    /**\n    * @dev Internal function to check if a voter can participate on a vote. It assumes the queried vote exists.\n    * @return True if the given voter can participate a certain vote, false otherwise\n    */\n    function _canVote(uint256 _voteId, address _voter) internal view returns (bool) {\n        Vote storage vote_ = votes[_voteId];\n        return _isVoteOpen(vote_) && token.balanceOfAt(_voter, vote_.snapshotBlock) > 0;\n    }\n\n    /**\n    * @dev Internal function to check if a vote is still open\n    * @return True if the given vote is open, false otherwise\n    */\n    function _isVoteOpen(Vote storage vote_) internal view returns (bool) {\n        return getTimestamp64() < vote_.startDate.add(voteTime) && !vote_.executed;\n    }\n\n    /**\n    * @dev Calculates whether `_value` is more than a percentage `_pct` of `_total`\n    */\n    function _isValuePct(uint256 _value, uint256 _total, uint256 _pct) internal pure returns (bool) {\n        if (_total == 0) {\n            return false;\n        }\n\n        uint256 computedPct = _value.mul(PCT_BASE) / _total;\n        return computedPct > _pct;\n    }\n}",
  "sourcePath": "/home/acho/curve-aragon-voting/contracts/Voting.sol",
  "compiler": {
    "name": "solc",
    "version": "0.4.24+commit.e67f0147.Emscripten.clang"
  },
  "schemaVersion": "3.2.5",
  "updatedAt": "2020-10-14T13:52:27.302Z",
  "devdoc": {
    "methods": {
      "allowRecoverability(address)": {
        "details": "By default deriving from AragonApp makes it recoverable",
        "params": {
          "token": "Token address that would be recovered"
        },
        "return": "bool whether the app allows the recovery"
      },
      "canExecute(uint256)": {
        "details": "Initialization check is implicitly provided by `voteExists()` as new votes can only be     created via `newVote(),` which requires initialization",
        "return": "True if the given vote can be executed, false otherwise"
      },
      "canForward(address,bytes)": {
        "details": "IForwarder interface conformance",
        "params": {
          "_sender": "Address of the account intending to forward an action"
        },
        "return": "True if the given address can create votes, false otherwise"
      },
      "canPerform(address,bytes32,uint256[])": {
        "details": "Check whether an action can be performed by a sender for a particular role on this app",
        "params": {
          "_params": "Permission params for the role",
          "_role": "Role on this app",
          "_sender": "Sender of the call"
        },
        "return": "Boolean indicating whether the sender has the permissions to perform the action.        Always returns false if the app hasn't been initialized yet."
      },
      "canVote(uint256,address)": {
        "details": "Initialization check is implicitly provided by `voteExists()` as new votes can only be     created via `newVote(),` which requires initialization",
        "return": "True if the given voter can participate a certain vote, false otherwise"
      },
      "changeMinAcceptQuorumPct(uint64)": {
        "params": {
          "_minAcceptQuorumPct": "New acceptance quorum"
        }
      },
      "changeSupportRequiredPct(uint64)": {
        "params": {
          "_supportRequiredPct": "New required support"
        }
      },
      "executeMetaTransaction(address,bytes,bytes32,bytes32,uint8)": {
        "params": {
          "functionSignature": "Signature of the actual function to be called via meta transaction",
          "sigR": "R part of the signature",
          "sigS": "S part of the signature",
          "sigV": "V part of the signature",
          "userAddress": "Address of user trying to do meta transaction"
        }
      },
      "executeVote(uint256)": {
        "details": "Initialization check is implicitly provided by `voteExists()` as new votes can only be     created via `newVote(),` which requires initialization",
        "params": {
          "_voteId": "Id for vote"
        }
      },
      "forward(bytes)": {
        "details": "IForwarder interface conformance",
        "params": {
          "_evmScript": "Start vote with script"
        }
      },
      "getInitializationBlock()": {
        "return": "Block number in which the contract was initialized"
      },
      "getRecoveryVault()": {
        "details": "Get the recovery vault for the app",
        "return": "Recovery vault address for the app"
      },
      "getVote(uint256)": {
        "details": "Return all information for a vote by its ID",
        "params": {
          "_voteId": "Vote identifier"
        },
        "return": "Vote open statusVote executed statusVote start dateVote snapshot blockVote support requiredVote minimum acceptance quorumVote yeas amountVote nays amountVote powerVote script"
      },
      "getVoterState(uint256,address)": {
        "details": "Return the state of a voter for a given vote by its ID",
        "params": {
          "_voteId": "Vote identifier"
        },
        "return": "VoterState of the requested voter for a certain vote"
      },
      "hasInitialized()": {
        "return": "Whether the contract has been initialized by the time of the current block"
      },
      "initialize(address,uint64,uint64,uint64,uint256,uint256,uint256,uint256,uint256,uint256)": {
        "params": {
          "_minAcceptQuorumPct": "Percentage of yeas in total possible votes for a vote to succeed (expressed as a percentage of 10^18; eg. 10^16 = 1%, 10^18 = 100%)",
          "_minBalance": "Minumum balance that a token holder should have to create a new vote",
          "_minBalanceLowerLimit": "Hardcoded lower limit for _minBalance on initialization",
          "_minTime": "Minimum time between a user's previous vote and creating a new vote",
          "_minTimeLowerLimit": "Hardcoded lower limit for _minTime on initialization",
          "_minTimeUpperLimit": "Hardcoded upper limit for _minTime on initialization",
          "_supportRequiredPct": "Percentage of yeas in casted votes for a vote to succeed (expressed as a percentage of 10^18; eg. 10^16 = 1%, 10^18 = 100%)",
          "_token": "MiniMeToken Address that will be used as governance token",
          "_voteTime": "Seconds that a vote will be open for token holders to vote (unless enough yeas or nays have been cast to make an early decision)"
        }
      },
      "isForwarder()": {
        "details": "IForwarder interface conformance",
        "return": "Always true"
      },
      "newVote(bytes,string)": {
        "params": {
          "_executionScript": "EVM script to be executed on approval",
          "_metadata": "Vote metadata"
        },
        "return": "voteId Id for newly created vote"
      },
      "newVote(bytes,string,bool,bool)": {
        "params": {
          "_castVote": "Whether to also cast newly created vote",
          "_executesIfDecided": "Whether to also immediately execute newly created vote if decided",
          "_executionScript": "EVM script to be executed on approval",
          "_metadata": "Vote metadata"
        },
        "return": "voteId id for newly created vote"
      },
      "setMinBalance(uint256)": {
        "params": {
          "_minBalance": "New minimum balance"
        }
      },
      "setMinTime(uint256)": {
        "params": {
          "_minTime": "New minumum time"
        }
      },
      "transferToVault(address)": {
        "params": {
          "_token": "Token balance to be sent to recovery vault."
        }
      },
      "vote(uint256,bool,bool)": {
        "details": "Initialization check is implicitly provided by `voteExists()` as new votes can only be     created via `newVote(),` which requires initialization",
        "params": {
          "_executesIfDecided": "Whether the vote should execute its action if it becomes decided",
          "_supports": "Whether voter supports the vote",
          "_voteId": "Id for vote"
        }
      }
    }
  },
  "userdoc": {
    "methods": {
      "canExecute(uint256)": {
        "notice": "Tells whether a vote #`_voteId` can be executed or not"
      },
      "canForward(address,bytes)": {
        "notice": "Tells whether `_sender` can forward actions or not"
      },
      "canVote(uint256,address)": {
        "notice": "Tells whether `_sender` can participate in the vote #`_voteId` or not"
      },
      "changeMinAcceptQuorumPct(uint64)": {
        "notice": "Change minimum acceptance quorum to `@formatPct(_minAcceptQuorumPct)`%"
      },
      "changeSupportRequiredPct(uint64)": {
        "notice": "Change required support to `@formatPct(_supportRequiredPct)`%"
      },
      "executeMetaTransaction(address,bytes,bytes32,bytes32,uint8)": {
        "notice": "Main function to be called when user wants to execute meta transaction. The actual function to be called should be passed as param with name functionSignature Here the basic signature recovery is being used. Signature is expected to be generated using personal_sign method."
      },
      "executeVote(uint256)": {
        "notice": "Execute vote #`_voteId`"
      },
      "forward(bytes)": {
        "notice": "Creates a vote to execute the desired action, and casts a support vote if possible"
      },
      "initialize(address,uint64,uint64,uint64,uint256,uint256,uint256,uint256,uint256,uint256)": {
        "notice": "Initialize Voting app with `_token.symbol(): string` for governance, minimum support of `@formatPct(_supportRequiredPct)`%, minimum acceptance quorum of `@formatPct(_minAcceptQuorumPct)`%, and a voting duration of `@transformTime(_voteTime)`"
      },
      "isForwarder()": {
        "notice": "Tells whether the Voting app is a forwarder or not"
      },
      "newVote(bytes,string)": {
        "notice": "Create a new vote about \"`_metadata`\""
      },
      "newVote(bytes,string,bool,bool)": {
        "notice": "Create a new vote about \"`_metadata`\""
      },
      "setMinBalance(uint256)": {
        "notice": "Change minimum balance needed to create a vote to `_minBalance`"
      },
      "setMinTime(uint256)": {
        "notice": "Change minimum time needed to pass between user's previous vote and a user creating a new vote"
      },
      "transferToVault(address)": {
        "notice": "Send funds to recovery Vault. This contract should never receive funds,        but in case it does, this function allows one to recover them."
      },
      "vote(uint256,bool,bool)": {
        "notice": "Vote `_supports ? 'yes' : 'no'` in vote #`_voteId`"
      }
    }
  }
}