{
  "contractName": "Voting",
  "abi": [
    {
      "constant": true,
      "inputs": [],
      "name": "hasInitialized",
      "outputs": [
        {
          "name": "",
          "type": "bool"
        }
      ],
      "payable": false,
      "stateMutability": "view",
      "type": "function"
    },
    {
      "constant": true,
      "inputs": [],
      "name": "minTime",
      "outputs": [
        {
          "name": "",
          "type": "uint256"
        }
      ],
      "payable": false,
      "stateMutability": "view",
      "type": "function"
    },
    {
      "constant": true,
      "inputs": [
        {
          "name": "_script",
          "type": "bytes"
        }
      ],
      "name": "getEVMScriptExecutor",
      "outputs": [
        {
          "name": "",
          "type": "address"
        }
      ],
      "payable": false,
      "stateMutability": "view",
      "type": "function"
    },
    {
      "constant": true,
      "inputs": [],
      "name": "getRecoveryVault",
      "outputs": [
        {
          "name": "",
          "type": "address"
        }
      ],
      "payable": false,
      "stateMutability": "view",
      "type": "function"
    },
    {
      "constant": true,
      "inputs": [],
      "name": "MODIFY_QUORUM_ROLE",
      "outputs": [
        {
          "name": "",
          "type": "bytes32"
        }
      ],
      "payable": false,
      "stateMutability": "view",
      "type": "function"
    },
    {
      "constant": true,
      "inputs": [],
      "name": "MODIFY_SUPPORT_ROLE",
      "outputs": [
        {
          "name": "",
          "type": "bytes32"
        }
      ],
      "payable": false,
      "stateMutability": "view",
      "type": "function"
    },
    {
      "constant": true,
      "inputs": [
        {
          "name": "",
          "type": "address"
        }
      ],
      "name": "lastCreateVoteTimes",
      "outputs": [
        {
          "name": "",
          "type": "uint256"
        }
      ],
      "payable": false,
      "stateMutability": "view",
      "type": "function"
    },
    {
      "constant": true,
      "inputs": [
        {
          "name": "token",
          "type": "address"
        }
      ],
      "name": "allowRecoverability",
      "outputs": [
        {
          "name": "",
          "type": "bool"
        }
      ],
      "payable": false,
      "stateMutability": "view",
      "type": "function"
    },
    {
      "constant": true,
      "inputs": [],
      "name": "appId",
      "outputs": [
        {
          "name": "",
          "type": "bytes32"
        }
      ],
      "payable": false,
      "stateMutability": "view",
      "type": "function"
    },
    {
      "constant": true,
      "inputs": [],
      "name": "getInitializationBlock",
      "outputs": [
        {
          "name": "",
          "type": "uint256"
        }
      ],
      "payable": false,
      "stateMutability": "view",
      "type": "function"
    },
    {
      "constant": false,
      "inputs": [
        {
          "name": "_token",
          "type": "address"
        }
      ],
      "name": "transferToVault",
      "outputs": [],
      "payable": false,
      "stateMutability": "nonpayable",
      "type": "function"
    },
    {
      "constant": true,
      "inputs": [
        {
          "name": "_sender",
          "type": "address"
        },
        {
          "name": "_role",
          "type": "bytes32"
        },
        {
          "name": "_params",
          "type": "uint256[]"
        }
      ],
      "name": "canPerform",
      "outputs": [
        {
          "name": "",
          "type": "bool"
        }
      ],
      "payable": false,
      "stateMutability": "view",
      "type": "function"
    },
    {
      "constant": true,
      "inputs": [],
      "name": "getEVMScriptRegistry",
      "outputs": [
        {
          "name": "",
          "type": "address"
        }
      ],
      "payable": false,
      "stateMutability": "view",
      "type": "function"
    },
    {
      "constant": true,
      "inputs": [],
      "name": "SET_MIN_BALANCE_ROLE",
      "outputs": [
        {
          "name": "",
          "type": "bytes32"
        }
      ],
      "payable": false,
      "stateMutability": "view",
      "type": "function"
    },
    {
      "constant": true,
      "inputs": [],
      "name": "minTimeLowerLimit",
      "outputs": [
        {
          "name": "",
          "type": "uint256"
        }
      ],
      "payable": false,
      "stateMutability": "view",
      "type": "function"
    },
    {
      "constant": true,
      "inputs": [],
      "name": "voteTime",
      "outputs": [
        {
          "name": "",
          "type": "uint64"
        }
      ],
      "payable": false,
      "stateMutability": "view",
      "type": "function"
    },
    {
      "constant": true,
      "inputs": [],
      "name": "CREATE_VOTES_ROLE",
      "outputs": [
        {
          "name": "",
          "type": "bytes32"
        }
      ],
      "payable": false,
      "stateMutability": "view",
      "type": "function"
    },
    {
      "constant": true,
      "inputs": [],
      "name": "SET_MIN_TIME_ROLE",
      "outputs": [
        {
          "name": "",
          "type": "bytes32"
        }
      ],
      "payable": false,
      "stateMutability": "view",
      "type": "function"
    },
    {
      "constant": true,
      "inputs": [],
      "name": "minBalance",
      "outputs": [
        {
          "name": "",
          "type": "uint256"
        }
      ],
      "payable": false,
      "stateMutability": "view",
      "type": "function"
    },
    {
      "constant": true,
      "inputs": [],
      "name": "kernel",
      "outputs": [
        {
          "name": "",
          "type": "address"
        }
      ],
      "payable": false,
      "stateMutability": "view",
      "type": "function"
    },
    {
      "constant": true,
      "inputs": [],
      "name": "minAcceptQuorumPct",
      "outputs": [
        {
          "name": "",
          "type": "uint64"
        }
      ],
      "payable": false,
      "stateMutability": "view",
      "type": "function"
    },
    {
      "constant": true,
      "inputs": [],
      "name": "isPetrified",
      "outputs": [
        {
          "name": "",
          "type": "bool"
        }
      ],
      "payable": false,
      "stateMutability": "view",
      "type": "function"
    },
    {
      "constant": true,
      "inputs": [],
      "name": "votesLength",
      "outputs": [
        {
          "name": "",
          "type": "uint256"
        }
      ],
      "payable": false,
      "stateMutability": "view",
      "type": "function"
    },
    {
      "constant": true,
      "inputs": [],
      "name": "minTimeUpperLimit",
      "outputs": [
        {
          "name": "",
          "type": "uint256"
        }
      ],
      "payable": false,
      "stateMutability": "view",
      "type": "function"
    },
    {
      "constant": true,
      "inputs": [],
      "name": "minBalanceLowerLimit",
      "outputs": [
        {
          "name": "",
          "type": "uint256"
        }
      ],
      "payable": false,
      "stateMutability": "view",
      "type": "function"
    },
    {
      "constant": true,
      "inputs": [],
      "name": "supportRequiredPct",
      "outputs": [
        {
          "name": "",
          "type": "uint64"
        }
      ],
      "payable": false,
      "stateMutability": "view",
      "type": "function"
    },
    {
      "constant": true,
      "inputs": [],
      "name": "token",
      "outputs": [
        {
          "name": "",
          "type": "address"
        }
      ],
      "payable": false,
      "stateMutability": "view",
      "type": "function"
    },
    {
      "constant": true,
      "inputs": [],
      "name": "PCT_BASE",
      "outputs": [
        {
          "name": "",
          "type": "uint64"
        }
      ],
      "payable": false,
      "stateMutability": "view",
      "type": "function"
    },
    {
      "anonymous": false,
      "inputs": [
        {
          "indexed": true,
          "name": "voteId",
          "type": "uint256"
        },
        {
          "indexed": true,
          "name": "creator",
          "type": "address"
        },
        {
          "indexed": false,
          "name": "metadata",
          "type": "string"
        },
        {
          "indexed": false,
          "name": "minBalance",
          "type": "uint256"
        },
        {
          "indexed": false,
          "name": "minTime",
          "type": "uint256"
        },
        {
          "indexed": false,
          "name": "totalSupply",
          "type": "uint256"
        }
      ],
      "name": "StartVote",
      "type": "event"
    },
    {
      "anonymous": false,
      "inputs": [
        {
          "indexed": true,
          "name": "voteId",
          "type": "uint256"
        },
        {
          "indexed": true,
          "name": "voter",
          "type": "address"
        },
        {
          "indexed": false,
          "name": "supports",
          "type": "bool"
        },
        {
          "indexed": false,
          "name": "stake",
          "type": "uint256"
        }
      ],
      "name": "CastVote",
      "type": "event"
    },
    {
      "anonymous": false,
      "inputs": [
        {
          "indexed": true,
          "name": "voteId",
          "type": "uint256"
        }
      ],
      "name": "ExecuteVote",
      "type": "event"
    },
    {
      "anonymous": false,
      "inputs": [
        {
          "indexed": false,
          "name": "supportRequiredPct",
          "type": "uint64"
        }
      ],
      "name": "ChangeSupportRequired",
      "type": "event"
    },
    {
      "anonymous": false,
      "inputs": [
        {
          "indexed": false,
          "name": "minAcceptQuorumPct",
          "type": "uint64"
        }
      ],
      "name": "ChangeMinQuorum",
      "type": "event"
    },
    {
      "anonymous": false,
      "inputs": [
        {
          "indexed": false,
          "name": "minBalance",
          "type": "uint256"
        }
      ],
      "name": "MinimumBalanceSet",
      "type": "event"
    },
    {
      "anonymous": false,
      "inputs": [
        {
          "indexed": false,
          "name": "minTime",
          "type": "uint256"
        }
      ],
      "name": "MinimumTimeSet",
      "type": "event"
    },
    {
      "anonymous": false,
      "inputs": [
        {
          "indexed": true,
          "name": "executor",
          "type": "address"
        },
        {
          "indexed": false,
          "name": "script",
          "type": "bytes"
        },
        {
          "indexed": false,
          "name": "input",
          "type": "bytes"
        },
        {
          "indexed": false,
          "name": "returnData",
          "type": "bytes"
        }
      ],
      "name": "ScriptResult",
      "type": "event"
    },
    {
      "anonymous": false,
      "inputs": [
        {
          "indexed": true,
          "name": "vault",
          "type": "address"
        },
        {
          "indexed": true,
          "name": "token",
          "type": "address"
        },
        {
          "indexed": false,
          "name": "amount",
          "type": "uint256"
        }
      ],
      "name": "RecoverToVault",
      "type": "event"
    },
    {
      "constant": false,
      "inputs": [
        {
          "name": "_token",
          "type": "address"
        },
        {
          "name": "_supportRequiredPct",
          "type": "uint64"
        },
        {
          "name": "_minAcceptQuorumPct",
          "type": "uint64"
        },
        {
          "name": "_voteTime",
          "type": "uint64"
        },
        {
          "name": "_minBalance",
          "type": "uint256"
        },
        {
          "name": "_minTime",
          "type": "uint256"
        },
        {
          "name": "_minBalanceLowerLimit",
          "type": "uint256"
        },
        {
          "name": "_minTimeLowerLimit",
          "type": "uint256"
        },
        {
          "name": "_minTimeUpperLimit",
          "type": "uint256"
        }
      ],
      "name": "initialize",
      "outputs": [],
      "payable": false,
      "stateMutability": "nonpayable",
      "type": "function"
    },
    {
      "constant": false,
      "inputs": [
        {
          "name": "_supportRequiredPct",
          "type": "uint64"
        }
      ],
      "name": "changeSupportRequiredPct",
      "outputs": [],
      "payable": false,
      "stateMutability": "nonpayable",
      "type": "function"
    },
    {
      "constant": false,
      "inputs": [
        {
          "name": "_minAcceptQuorumPct",
          "type": "uint64"
        }
      ],
      "name": "changeMinAcceptQuorumPct",
      "outputs": [],
      "payable": false,
      "stateMutability": "nonpayable",
      "type": "function"
    },
    {
      "constant": false,
      "inputs": [
        {
          "name": "_minBalance",
          "type": "uint256"
        }
      ],
      "name": "setMinBalance",
      "outputs": [],
      "payable": false,
      "stateMutability": "nonpayable",
      "type": "function"
    },
    {
      "constant": false,
      "inputs": [
        {
          "name": "_minTime",
          "type": "uint256"
        }
      ],
      "name": "setMinTime",
      "outputs": [],
      "payable": false,
      "stateMutability": "nonpayable",
      "type": "function"
    },
    {
      "constant": false,
      "inputs": [
        {
          "name": "_executionScript",
          "type": "bytes"
        },
        {
          "name": "_metadata",
          "type": "string"
        }
      ],
      "name": "newVote",
      "outputs": [
        {
          "name": "voteId",
          "type": "uint256"
        }
      ],
      "payable": false,
      "stateMutability": "nonpayable",
      "type": "function"
    },
    {
      "constant": false,
      "inputs": [
        {
          "name": "_executionScript",
          "type": "bytes"
        },
        {
          "name": "_metadata",
          "type": "string"
        },
        {
          "name": "_castVote",
          "type": "bool"
        },
        {
          "name": "_executesIfDecided",
          "type": "bool"
        }
      ],
      "name": "newVote",
      "outputs": [
        {
          "name": "voteId",
          "type": "uint256"
        }
      ],
      "payable": false,
      "stateMutability": "nonpayable",
      "type": "function"
    },
    {
      "constant": false,
      "inputs": [
        {
          "name": "_voteId",
          "type": "uint256"
        },
        {
          "name": "_supports",
          "type": "bool"
        },
        {
          "name": "_executesIfDecided",
          "type": "bool"
        }
      ],
      "name": "vote",
      "outputs": [],
      "payable": false,
      "stateMutability": "nonpayable",
      "type": "function"
    },
    {
      "constant": false,
      "inputs": [
        {
          "name": "_voteId",
          "type": "uint256"
        }
      ],
      "name": "executeVote",
      "outputs": [],
      "payable": false,
      "stateMutability": "nonpayable",
      "type": "function"
    },
    {
      "constant": true,
      "inputs": [],
      "name": "isForwarder",
      "outputs": [
        {
          "name": "",
          "type": "bool"
        }
      ],
      "payable": false,
      "stateMutability": "pure",
      "type": "function"
    },
    {
      "constant": false,
      "inputs": [
        {
          "name": "_evmScript",
          "type": "bytes"
        }
      ],
      "name": "forward",
      "outputs": [],
      "payable": false,
      "stateMutability": "nonpayable",
      "type": "function"
    },
    {
      "constant": true,
      "inputs": [
        {
          "name": "_sender",
          "type": "address"
        },
        {
          "name": "",
          "type": "bytes"
        }
      ],
      "name": "canForward",
      "outputs": [
        {
          "name": "",
          "type": "bool"
        }
      ],
      "payable": false,
      "stateMutability": "view",
      "type": "function"
    },
    {
      "constant": true,
      "inputs": [
        {
          "name": "_voteId",
          "type": "uint256"
        }
      ],
      "name": "canExecute",
      "outputs": [
        {
          "name": "",
          "type": "bool"
        }
      ],
      "payable": false,
      "stateMutability": "view",
      "type": "function"
    },
    {
      "constant": true,
      "inputs": [
        {
          "name": "_voteId",
          "type": "uint256"
        },
        {
          "name": "_voter",
          "type": "address"
        }
      ],
      "name": "canVote",
      "outputs": [
        {
          "name": "",
          "type": "bool"
        }
      ],
      "payable": false,
      "stateMutability": "view",
      "type": "function"
    },
    {
      "constant": true,
      "inputs": [],
      "name": "canCreateNewVote",
      "outputs": [
        {
          "name": "",
          "type": "bool"
        }
      ],
      "payable": false,
      "stateMutability": "view",
      "type": "function"
    },
    {
      "constant": true,
      "inputs": [
        {
          "name": "_voteId",
          "type": "uint256"
        }
      ],
      "name": "getVote",
      "outputs": [
        {
          "name": "open",
          "type": "bool"
        },
        {
          "name": "executed",
          "type": "bool"
        },
        {
          "name": "startDate",
          "type": "uint64"
        },
        {
          "name": "snapshotBlock",
          "type": "uint64"
        },
        {
          "name": "supportRequired",
          "type": "uint64"
        },
        {
          "name": "minAcceptQuorum",
          "type": "uint64"
        },
        {
          "name": "yea",
          "type": "uint256"
        },
        {
          "name": "nay",
          "type": "uint256"
        },
        {
          "name": "votingPower",
          "type": "uint256"
        },
        {
          "name": "script",
          "type": "bytes"
        }
      ],
      "payable": false,
      "stateMutability": "view",
      "type": "function"
    },
    {
      "constant": true,
      "inputs": [
        {
          "name": "_voteId",
          "type": "uint256"
        },
        {
          "name": "_voter",
          "type": "address"
        }
      ],
      "name": "getVoterState",
      "outputs": [
        {
          "name": "",
          "type": "uint8"
        }
      ],
      "payable": false,
      "stateMutability": "view",
      "type": "function"
    }
  ],
  "bytecode": "0x60806040526200001d62000023640100000000026401000000009004565b62000309565b60006200003e6200015e640100000000026401000000009004565b146040805190810160405280601881526020017f494e49545f414c52454144595f494e495449414c495a4544000000000000000081525090151562000121576040517f08c379a00000000000000000000000000000000000000000000000000000000081526004018080602001828103825283818151815260200191508051906020019080838360005b83811015620000e5578082015181840152602081019050620000c8565b50505050905090810190601f168015620001135780820380516001836020036101000a031916815260200191505b509250505060405180910390fd5b506200015c7fffffffffffffffffffffffffffffffffffffffffffffffffffffffffffffffff620001ab640100000000026401000000009004565b565b6000620001a67febb05b386a8d34882b8711d156f463690983dc47815980fb82aeeff1aa43579e60010260001916620002f76401000000000262003d1b176401000000009004565b905090565b6000620001c66200015e640100000000026401000000009004565b146040805190810160405280601881526020017f494e49545f414c52454144595f494e495449414c495a45440000000000000000815250901515620002a9576040517f08c379a00000000000000000000000000000000000000000000000000000000081526004018080602001828103825283818151815260200191508051906020019080838360005b838110156200026d57808201518184015260208101905062000250565b50505050905090810190601f1680156200029b5780820380516001836020036101000a031916815260200191505b509250505060405180910390fd5b50620002f4817febb05b386a8d34882b8711d156f463690983dc47815980fb82aeeff1aa43579e6001026000191662000302640100000000026200524a179091906401000000009004565b50565b600081549050919050565b8082555050565b61615780620003196000396000f300608060405260043610610225576000357c0100000000000000000000000000000000000000000000000000000000900463ffffffff1680630803fac01461022a5780631aa43078146102595780632914b9bd1461028457806332f0a3b51461032d5780633c624c75146103845780634b12311c146103b75780635a55c1f0146104265780635eb243321461056357806362de7e5a1461059a5780637bbddcfc146105cd5780637c1d0b87146106245780637e7db6e11461065b57806380afdea8146106b65780638b3dd749146106e957806393f89a80146107145780639d4941d814610741578063a1658fad14610784578063a479e50814610830578063a70baa3114610887578063b6f6825414610938578063b87957251461096b578063bcf93dd614610996578063be2c64d4146109d5578063c0774df314610a08578063c54c24b514610aa9578063c5bb875814610adc578063c91d956c14610b07578063cc63604a14610b34578063cdb2867b14610b79578063d4aae0c414610bde578063d5db2c8014610c35578063d948d46814610c9c578063dc474b1a14610d05578063de4796ed14610d44578063de4f634714610d73578063df133bca14610d9e578063df35219714610de3578063eb1e3b7714610e0e578063f4b0051314610e39578063f98a4eca14610eb8578063fad167ab14610ee5578063fc0c546a14610f24578063fc157cb414610f7b578063fd64eccb14610fba578063fe32a64d14610fe9575b600080fd5b34801561023657600080fd5b5061023f611018565b604051808215151515815260200191505060405180910390f35b34801561026557600080fd5b5061026e611043565b6040518082815260200191505060405180910390f35b34801561029057600080fd5b506102eb600480360381019080803590602001908201803590602001908080601f0160208091040260200160405190810160405280939291908181526020018383808284378201915050505050509192919290505050611049565b604051808273ffffffffffffffffffffffffffffffffffffffff1673ffffffffffffffffffffffffffffffffffffffff16815260200191505060405180910390f35b34801561033957600080fd5b50610342611168565b604051808273ffffffffffffffffffffffffffffffffffffffff1673ffffffffffffffffffffffffffffffffffffffff16815260200191505060405180910390f35b34801561039057600080fd5b50610399611215565b60405180826000191660001916815260200191505060405180910390f35b3480156103c357600080fd5b5061040260048036038101908080359060200190929190803573ffffffffffffffffffffffffffffffffffffffff16906020019092919050505061123c565b6040518082600281111561041257fe5b60ff16815260200191505060405180910390f35b34801561043257600080fd5b506104516004803603810190808035906020019092919050505061138d565b604051808b1515151581526020018a1515151581526020018967ffffffffffffffff1667ffffffffffffffff1681526020018867ffffffffffffffff1667ffffffffffffffff1681526020018767ffffffffffffffff1667ffffffffffffffff1681526020018667ffffffffffffffff1667ffffffffffffffff16815260200185815260200184815260200183815260200180602001828103825283818151815260200191508051906020019080838360005b8381101561051f578082015181840152602081019050610504565b50505050905090810190601f16801561054c5780820380516001836020036101000a031916815260200191505b509b50505050505050505050505060405180910390f35b34801561056f57600080fd5b50610598600480360381019080803567ffffffffffffffff1690602001909291905050506115e7565b005b3480156105a657600080fd5b506105af6118af565b60405180826000191660001916815260200191505060405180910390f35b3480156105d957600080fd5b5061060e600480360381019080803573ffffffffffffffffffffffffffffffffffffffff1690602001909291905050506118d6565b6040518082815260200191505060405180910390f35b34801561063057600080fd5b50610659600480360381019080803567ffffffffffffffff1690602001909291905050506118ee565b005b34801561066757600080fd5b5061069c600480360381019080803573ffffffffffffffffffffffffffffffffffffffff169060200190929190505050611cb4565b604051808215151515815260200191505060405180910390f35b3480156106c257600080fd5b506106cb611cbf565b60405180826000191660001916815260200191505060405180910390f35b3480156106f557600080fd5b506106fe611cf6565b6040518082815260200191505060405180910390f35b34801561072057600080fd5b5061073f60048036038101908080359060200190929190505050611d2d565b005b34801561074d57600080fd5b50610782600480360381019080803573ffffffffffffffffffffffffffffffffffffffff169060200190929190505050611f5d565b005b34801561079057600080fd5b50610816600480360381019080803573ffffffffffffffffffffffffffffffffffffffff16906020019092919080356000191690602001909291908035906020019082018035906020019080806020026020016040519081016040528093929190818152602001838360200280828437820191505050505050919291929050505061237b565b604051808215151515815260200191505060405180910390f35b34801561083c57600080fd5b50610845612577565b604051808273ffffffffffffffffffffffffffffffffffffffff1673ffffffffffffffffffffffffffffffffffffffff16815260200191505060405180910390f35b34801561089357600080fd5b50610936600480360381019080803573ffffffffffffffffffffffffffffffffffffffff169060200190929190803567ffffffffffffffff169060200190929190803567ffffffffffffffff169060200190929190803567ffffffffffffffff1690602001909291908035906020019092919080359060200190929190803590602001909291908035906020019092919080359060200190929190505050612692565b005b34801561094457600080fd5b5061094d612d8e565b60405180826000191660001916815260200191505060405180910390f35b34801561097757600080fd5b50610980612db5565b6040518082815260200191505060405180910390f35b3480156109a257600080fd5b506109ab612dbb565b604051808267ffffffffffffffff1667ffffffffffffffff16815260200191505060405180910390f35b3480156109e157600080fd5b506109ea612dd5565b60405180826000191660001916815260200191505060405180910390f35b348015610a1457600080fd5b50610a8f600480360381019080803573ffffffffffffffffffffffffffffffffffffffff169060200190929190803590602001908201803590602001908080601f0160208091040260200160405190810160405280939291908181526020018383808284378201915050505050509192919290505050612dfc565b604051808215151515815260200191505060405180910390f35b348015610ab557600080fd5b50610abe612e4b565b60405180826000191660001916815260200191505060405180910390f35b348015610ae857600080fd5b50610af1612e72565b6040518082815260200191505060405180910390f35b348015610b1357600080fd5b50610b3260048036038101908080359060200190929190505050612e78565b005b348015610b4057600080fd5b50610b5f60048036038101908080359060200190929190505050613074565b604051808215151515815260200191505060405180910390f35b348015610b8557600080fd5b50610bc460048036038101908080359060200190929190803573ffffffffffffffffffffffffffffffffffffffff16906020019092919050505061316c565b604051808215151515815260200191505060405180910390f35b348015610bea57600080fd5b50610bf3613266565b604051808273ffffffffffffffffffffffffffffffffffffffff1673ffffffffffffffffffffffffffffffffffffffff16815260200191505060405180910390f35b348015610c4157600080fd5b50610c8660048036038101908080359060200190820180359060200191909192939192939080359060200190820180359060200191909192939192939050505061329d565b6040518082815260200191505060405180910390f35b348015610ca857600080fd5b50610d03600480360381019080803590602001908201803590602001908080601f0160208091040260200160405190810160405280939291908181526020018383808284378201915050505050509192919290505050613459565b005b348015610d1157600080fd5b50610d1a613563565b604051808267ffffffffffffffff1667ffffffffffffffff16815260200191505060405180910390f35b348015610d5057600080fd5b50610d5961357d565b604051808215151515815260200191505060405180910390f35b348015610d7f57600080fd5b50610d886135ae565b6040518082815260200191505060405180910390f35b348015610daa57600080fd5b50610de1600480360381019080803590602001909291908035151590602001909291908035151590602001909291905050506135b4565b005b348015610def57600080fd5b50610df8613794565b6040518082815260200191505060405180910390f35b348015610e1a57600080fd5b50610e2361379a565b6040518082815260200191505060405180910390f35b348015610e4557600080fd5b50610ea26004803603810190808035906020019082018035906020019190919293919293908035906020019082018035906020019190919293919293908035151590602001909291908035151590602001909291905050506137a0565b6040518082815260200191505060405180910390f35b348015610ec457600080fd5b50610ee36004803603810190808035906020019092919050505061395d565b005b348015610ef157600080fd5b50610efa613a4f565b604051808267ffffffffffffffff1667ffffffffffffffff16815260200191505060405180910390f35b348015610f3057600080fd5b50610f39613a69565b604051808273ffffffffffffffffffffffffffffffffffffffff1673ffffffffffffffffffffffffffffffffffffffff16815260200191505060405180910390f35b348015610f8757600080fd5b50610f90613a8e565b604051808267ffffffffffffffff1667ffffffffffffffff16815260200191505060405180910390f35b348015610fc657600080fd5b50610fcf613a9a565b604051808215151515815260200191505060405180910390f35b348015610ff557600080fd5b50610ffe613aa3565b604051808215151515815260200191505060405180910390f35b600080611023611cf6565b90506000811415801561103d57508061103a613c05565b10155b91505090565b60065481565b6000611053612577565b73ffffffffffffffffffffffffffffffffffffffff166304bf2a7f836040518263ffffffff167c01000000000000000000000000000000000000000000000000000000000281526004018080602001828103825283818151815260200191508051906020019080838360005b838110156110da5780820151818401526020810190506110bf565b50505050905090810190601f1680156111075780820380516001836020036101000a031916815260200191505b5092505050602060405180830381600087803b15801561112657600080fd5b505af115801561113a573d6000803e3d6000fd5b505050506040513d602081101561115057600080fd5b81019080805190602001909291905050509050919050565b6000611172613266565b73ffffffffffffffffffffffffffffffffffffffff166332f0a3b56040518163ffffffff167c0100000000000000000000000000000000000000000000000000000000028152600401602060405180830381600087803b1580156111d557600080fd5b505af11580156111e9573d6000803e3d6000fd5b505050506040513d60208110156111ff57600080fd5b8101908080519060200190929190505050905090565b7fad15e7261800b4bb73f1b69d3864565ffb1fd00cb93cf14fe48da8f1f2149f3960010281565b60008260085481106040805190810160405280600e81526020017f564f54494e475f4e4f5f564f5445000000000000000000000000000000000000815250901515611322576040517f08c379a00000000000000000000000000000000000000000000000000000000081526004018080602001828103825283818151815260200191508051906020019080838360005b838110156112e75780820151818401526020810190506112cc565b50505050905090810190601f1680156113145780820380516001836020036101000a031916815260200191505b509250505060405180910390fd5b506007600085815260200190815260200160002060060160008473ffffffffffffffffffffffffffffffffffffffff1673ffffffffffffffffffffffffffffffffffffffff16815260200190815260200160002060009054906101000a900460ff1691505092915050565b6000806000806000806000806000606060008b60085481106040805190810160405280600e81526020017f564f54494e475f4e4f5f564f5445000000000000000000000000000000000000815250901515611483576040517f08c379a00000000000000000000000000000000000000000000000000000000081526004018080602001828103825283818151815260200191508051906020019080838360005b8381101561144857808201518184015260208101905061142d565b50505050905090810190601f1680156114755780820380516001836020036101000a031916815260200191505b509250505060405180910390fd5b50600760008e815260200190815260200160002091506114a282613c0d565b9b508160000160009054906101000a900460ff169a508160000160019054906101000a900467ffffffffffffffff1699508160000160099054906101000a900467ffffffffffffffff1698508160000160119054906101000a900467ffffffffffffffff1697508160010160009054906101000a900467ffffffffffffffff169650816002015495508160030154945081600401549350816005018054600181600116156101000203166002900480601f0160208091040260200160405190810160405280929190818152602001828054600181600116156101000203166002900480156115d15780601f106115a6576101008083540402835291602001916115d1565b820191906000526020600020905b8154815290600101906020018083116115b457829003601f168201915b5050505050925050509193959799509193959799565b7fad15e7261800b4bb73f1b69d3864565ffb1fd00cb93cf14fe48da8f1f2149f3960010261163f8267ffffffffffffffff16600160009054906101000a900467ffffffffffffffff1667ffffffffffffffff16613c99565b61164a33838361237b565b6040805190810160405280600f81526020017f4150505f415554485f4641494c45440000000000000000000000000000000000815250901515611728576040517f08c379a00000000000000000000000000000000000000000000000000000000081526004018080602001828103825283818151815260200191508051906020019080838360005b838110156116ed5780820151818401526020810190506116d2565b50505050905090810190601f16801561171a5780820380516001836020036101000a031916815260200191505b509250505060405180910390fd5b50600060149054906101000a900467ffffffffffffffff1667ffffffffffffffff168367ffffffffffffffff1611156040805190810160405280601981526020017f564f54494e475f4348414e47455f51554f52554d5f5043545300000000000000815250901515611835576040517f08c379a00000000000000000000000000000000000000000000000000000000081526004018080602001828103825283818151815260200191508051906020019080838360005b838110156117fa5780820151818401526020810190506117df565b50505050905090810190601f1680156118275780820380516001836020036101000a031916815260200191505b509250505060405180910390fd5b5082600160006101000a81548167ffffffffffffffff021916908367ffffffffffffffff1602179055507f3172f2e9273c729c2a47cc8bf7e7f18506e3e3035126d562602bd2155bc78a5083604051808267ffffffffffffffff1667ffffffffffffffff16815260200191505060405180910390a1505050565b7fda3972983e62bdf826c4b807c4c9c2b8a941e1f83dfa76d53d6aeac11e1be65060010281565b60096020528060005260406000206000915090505481565b7fda3972983e62bdf826c4b807c4c9c2b8a941e1f83dfa76d53d6aeac11e1be6506001026119468267ffffffffffffffff16600060149054906101000a900467ffffffffffffffff1667ffffffffffffffff16613c99565b61195133838361237b565b6040805190810160405280600f81526020017f4150505f415554485f4641494c45440000000000000000000000000000000000815250901515611a2f576040517f08c379a00000000000000000000000000000000000000000000000000000000081526004018080602001828103825283818151815260200191508051906020019080838360005b838110156119f45780820151818401526020810190506119d9565b50505050905090810190601f168015611a215780820380516001836020036101000a031916815260200191505b509250505060405180910390fd5b508267ffffffffffffffff16600160009054906101000a900467ffffffffffffffff1667ffffffffffffffff1611156040805190810160405280601a81526020017f564f54494e475f4348414e47455f535550504f52545f50435453000000000000815250901515611b3c576040517f08c379a00000000000000000000000000000000000000000000000000000000081526004018080602001828103825283818151815260200191508051906020019080838360005b83811015611b01578082015181840152602081019050611ae6565b50505050905090810190601f168015611b2e5780820380516001836020036101000a031916815260200191505b509250505060405180910390fd5b50670de0b6b3a764000067ffffffffffffffff168367ffffffffffffffff16106040805190810160405280601a81526020017f564f54494e475f4348414e47455f535550505f544f4f5f424947000000000000815250901515611c3a576040517f08c379a00000000000000000000000000000000000000000000000000000000081526004018080602001828103825283818151815260200191508051906020019080838360005b83811015611bff578082015181840152602081019050611be4565b50505050905090810190601f168015611c2c5780820380516001836020036101000a031916815260200191505b509250505060405180910390fd5b5082600060146101000a81548167ffffffffffffffff021916908367ffffffffffffffff1602179055507f903b617f7f36eb047a29b89d1bf7885fdae31d250c3320fccf11d045c11b396e83604051808267ffffffffffffffff1667ffffffffffffffff16815260200191505060405180910390a1505050565b600060019050919050565b6000611cf17fd625496217aa6a3453eecb9c3489dc5a53e6c67b444329ea2b2cbc9ff547639b60010260001916613d10565b905090565b6000611d287febb05b386a8d34882b8711d156f463690983dc47815980fb82aeeff1aa43579e60010260001916613d1b565b905090565b7fe7ab0252519cd959720b328191bed7fe61b8e25f77613877be7070646d12daf0600102611d8c33826000604051908082528060200260200182016040528015611d865781602001602082028038833980820191505090505b5061237b565b6040805190810160405280600f81526020017f4150505f415554485f4641494c45440000000000000000000000000000000000815250901515611e6a576040517f08c379a00000000000000000000000000000000000000000000000000000000081526004018080602001828103825283818151815260200191508051906020019080838360005b83811015611e2f578082015181840152602081019050611e14565b50505050905090810190601f168015611e5c5780820380516001836020036101000a031916815260200191505b509250505060405180910390fd5b50816003548110158015611e8057506004548111155b1515611f1a576040517f08c379a00000000000000000000000000000000000000000000000000000000081526004018080602001828103825260398152602001807f4d696e2074696d652073686f756c642062652077697468696e20696e6974696181526020017f6c697a6174696f6e2068617264636f646564206c696d6974730000000000000081525060400191505060405180910390fd5b826006819055507fcb34d0577abe5b2f96b65ea1bb5de2209ba6309c6909438c6d50dd277ca3b580836040518082815260200191505060405180910390a1505050565b6000806000611f6b84611cb4565b6040805190810160405280601281526020017f5245434f5645525f444953414c4c4f5745440000000000000000000000000000815250901515612049576040517f08c379a00000000000000000000000000000000000000000000000000000000081526004018080602001828103825283818151815260200191508051906020019080838360005b8381101561200e578082015181840152602081019050611ff3565b50505050905090810190601f16801561203b5780820380516001836020036101000a031916815260200191505b509250505060405180910390fd5b50612052611168565b925061205d83613d26565b6040805190810160405280601a81526020017f5245434f5645525f5641554c545f4e4f545f434f4e545241435400000000000081525090151561213b576040517f08c379a00000000000000000000000000000000000000000000000000000000081526004018080602001828103825283818151815260200191508051906020019080838360005b838110156121005780820151818401526020810190506120e5565b50505050905090810190601f16801561212d5780820380516001836020036101000a031916815260200191505b509250505060405180910390fd5b50600073ffffffffffffffffffffffffffffffffffffffff168473ffffffffffffffffffffffffffffffffffffffff1614156121d7573073ffffffffffffffffffffffffffffffffffffffff163191508273ffffffffffffffffffffffffffffffffffffffff166108fc839081150290604051600060405180830381858888f193505050501580156121d1573d6000803e3d6000fd5b50612310565b839050612203308273ffffffffffffffffffffffffffffffffffffffff16613d7890919063ffffffff16565b915061223083838373ffffffffffffffffffffffffffffffffffffffff16613f529092919063ffffffff16565b6040805190810160405280601d81526020017f5245434f5645525f544f4b454e5f5452414e534645525f4641494c454400000081525090151561230e576040517f08c379a00000000000000000000000000000000000000000000000000000000081526004018080602001828103825283818151815260200191508051906020019080838360005b838110156122d35780820151818401526020810190506122b8565b50505050905090810190601f1680156123005780820380516001836020036101000a031916815260200191505b509250505060405180910390fd5b505b8373ffffffffffffffffffffffffffffffffffffffff168373ffffffffffffffffffffffffffffffffffffffff167f596caf56044b55fb8c4ca640089bbc2b63cae3e978b851f5745cbb7c5b288e02846040518082815260200191505060405180910390a350505050565b600080612386611018565b1515612395576000915061256f565b61239d613266565b9050600073ffffffffffffffffffffffffffffffffffffffff168173ffffffffffffffffffffffffffffffffffffffff1614156123dd576000915061256f565b8073ffffffffffffffffffffffffffffffffffffffff1663fdef910686308761240588614032565b6040518563ffffffff167c0100000000000000000000000000000000000000000000000000000000028152600401808573ffffffffffffffffffffffffffffffffffffffff1673ffffffffffffffffffffffffffffffffffffffff1681526020018473ffffffffffffffffffffffffffffffffffffffff1673ffffffffffffffffffffffffffffffffffffffff168152602001836000191660001916815260200180602001828103825283818151815260200191508051906020019080838360005b838110156124e25780820151818401526020810190506124c7565b50505050905090810190601f16801561250f5780820380516001836020036101000a031916815260200191505b5095505050505050602060405180830381600087803b15801561253157600080fd5b505af1158015612545573d6000803e3d6000fd5b505050506040513d602081101561255b57600080fd5b810190808051906020019092919050505091505b509392505050565b600080612582613266565b73ffffffffffffffffffffffffffffffffffffffff1663be00bbd87fd6f028ca0e8edb4a8c9757ca4fdccab25fa1e0317da1188108f7d2dee14902fb6001027fddbcfd564f642ab5627cf68b9b7d374fb4f8a36e941a75d89c87998cef03bd616001026040518363ffffffff167c0100000000000000000000000000000000000000000000000000000000028152600401808360001916600019168152602001826000191660001916815260200192505050602060405180830381600087803b15801561264e57600080fd5b505af1158015612662573d6000803e3d6000fd5b505050506040513d602081101561267857600080fd5b810190808051906020019092919050505090508091505090565b60008061269d611cf6565b146040805190810160405280601881526020017f494e49545f414c52454144595f494e495449414c495a4544000000000000000081525090151561277c576040517f08c379a00000000000000000000000000000000000000000000000000000000081526004018080602001828103825283818151815260200191508051906020019080838360005b83811015612741578082015181840152602081019050612726565b50505050905090810190601f16801561276e5780820380516001836020036101000a031916815260200191505b509250505060405180910390fd5b5060405180807f4352454154455f564f5445535f524f4c4500000000000000000000000000000081525060110190506040518091039020600019167fe7dcd7275292e064d090fbc5f3bd7995be23b502c1fed5cd94cfddbbdcd32bbc600102600019161415156127e857fe5b60405180807f4d4f444946595f535550504f52545f524f4c450000000000000000000000000081525060130190506040518091039020600019167fda3972983e62bdf826c4b807c4c9c2b8a941e1f83dfa76d53d6aeac11e1be6506001026000191614151561285357fe5b60405180807f4d4f444946595f51554f52554d5f524f4c45000000000000000000000000000081525060120190506040518091039020600019167fad15e7261800b4bb73f1b69d3864565ffb1fd00cb93cf14fe48da8f1f2149f39600102600019161415156128be57fe5b60405180807f5345545f4d494e5f42414c414e43455f524f4c4500000000000000000000000081525060140190506040518091039020600019167fb1f3f26f63ad27cd630737a426f990492f5c674208299d6fb23bb2b0733d3d666001026000191614151561292957fe5b60405180807f5345545f4d494e5f54494d455f524f4c4500000000000000000000000000000081525060110190506040518091039020600019167fe7ab0252519cd959720b328191bed7fe61b8e25f77613877be7070646d12daf06001026000191614151561299457fe5b61299c614049565b8867ffffffffffffffff168867ffffffffffffffff1611156040805190810160405280601081526020017f564f54494e475f494e49545f5043545300000000000000000000000000000000815250901515612a92576040517f08c379a00000000000000000000000000000000000000000000000000000000081526004018080602001828103825283818151815260200191508051906020019080838360005b83811015612a57578082015181840152602081019050612a3c565b50505050905090810190601f168015612a845780820380516001836020036101000a031916815260200191505b509250505060405180910390fd5b50670de0b6b3a764000067ffffffffffffffff168967ffffffffffffffff16106040805190810160405280601b81526020017f564f54494e475f494e49545f535550504f52545f544f4f5f4249470000000000815250901515612b90576040517f08c379a00000000000000000000000000000000000000000000000000000000081526004018080602001828103825283818151815260200191508051906020019080838360005b83811015612b55578082015181840152602081019050612b3a565b50505050905090810190601f168015612b825780820380516001836020036101000a031916815260200191505b509250505060405180910390fd5b50838610151515612ba057600080fd5b828510158015612bb05750818511155b1515612bbb57600080fd5b896000806101000a81548173ffffffffffffffffffffffffffffffffffffffff021916908373ffffffffffffffffffffffffffffffffffffffff16021790555088600060146101000a81548167ffffffffffffffff021916908367ffffffffffffffff16021790555087600160006101000a81548167ffffffffffffffff021916908367ffffffffffffffff16021790555086600160086101000a81548167ffffffffffffffff021916908367ffffffffffffffff1602179055506000809054906101000a900473ffffffffffffffffffffffffffffffffffffffff1673ffffffffffffffffffffffffffffffffffffffff1663313ce5676040518163ffffffff167c0100000000000000000000000000000000000000000000000000000000028152600401602060405180830381600087803b158015612cfb57600080fd5b505af1158015612d0f573d6000803e3d6000fd5b505050506040513d6020811015612d2557600080fd5b810190808051906020019092919050505060ff169050612d4e818761417690919063ffffffff16565b60058190555084600681905550612d6e818561417690919063ffffffff16565b600281905550826003819055508160048190555050505050505050505050565b7fb1f3f26f63ad27cd630737a426f990492f5c674208299d6fb23bb2b0733d3d6660010281565b60035481565b600160089054906101000a900467ffffffffffffffff1681565b7fe7dcd7275292e064d090fbc5f3bd7995be23b502c1fed5cd94cfddbbdcd32bbc60010281565b6000612e33837fe7dcd7275292e064d090fbc5f3bd7995be23b502c1fed5cd94cfddbbdcd32bbc600102612e2e614288565b61237b565b8015612e435750612e42613aa3565b5b905092915050565b7fe7ab0252519cd959720b328191bed7fe61b8e25f77613877be7070646d12daf060010281565b60055481565b7fb1f3f26f63ad27cd630737a426f990492f5c674208299d6fb23bb2b0733d3d66600102612ed733826000604051908082528060200260200182016040528015612ed15781602001602082028038833980820191505090505b5061237b565b6040805190810160405280600f81526020017f4150505f415554485f4641494c45440000000000000000000000000000000000815250901515612fb5576040517f08c379a00000000000000000000000000000000000000000000000000000000081526004018080602001828103825283818151815260200191508051906020019080838360005b83811015612f7a578082015181840152602081019050612f5f565b50505050905090810190601f168015612fa75780820380516001836020036101000a031916815260200191505b509250505060405180910390fd5b50816002548110151515613031576040517f08c379a00000000000000000000000000000000000000000000000000000000081526004018080602001828103825260168152602001807f4e6f7420656e6f756768206d696e2062616c616e63650000000000000000000081525060200191505060405180910390fd5b826005819055507fbd5318adc778260bd213cc16f3ef06cfb4f729adb9309495fed0e10abc61c375836040518082815260200191505060405180910390a1505050565b60008160085481106040805190810160405280600e81526020017f564f54494e475f4e4f5f564f544500000000000000000000000000000000000081525090151561315a576040517f08c379a00000000000000000000000000000000000000000000000000000000081526004018080602001828103825283818151815260200191508051906020019080838360005b8381101561311f578082015181840152602081019050613104565b50505050905090810190601f16801561314c5780820380516001836020036101000a031916815260200191505b509250505060405180910390fd5b50613164836142c0565b915050919050565b60008260085481106040805190810160405280600e81526020017f564f54494e475f4e4f5f564f5445000000000000000000000000000000000000815250901515613252576040517f08c379a00000000000000000000000000000000000000000000000000000000081526004018080602001828103825283818151815260200191508051906020019080838360005b838110156132175780820151818401526020810190506131fc565b50505050905090810190601f1680156132445780820380516001836020036101000a031916815260200191505b509250505060405180910390fd5b5061325d8484614401565b91505092915050565b60006132987f4172f0f7d2289153072b0a6ca36959e0cbe2efc3afe50fc81636caa96338137b60010260001916614557565b905090565b60007fe7dcd7275292e064d090fbc5f3bd7995be23b502c1fed5cd94cfddbbdcd32bbc6001026132fe338260006040519080825280602002602001820160405280156132f85781602001602082028038833980820191505090505b5061237b565b6040805190810160405280600f81526020017f4150505f415554485f4641494c454400000000000000000000000000000000008152509015156133dc576040517f08c379a00000000000000000000000000000000000000000000000000000000081526004018080602001828103825283818151815260200191508051906020019080838360005b838110156133a1578082015181840152602081019050613386565b50505050905090810190601f1680156133ce5780820380516001836020036101000a031916815260200191505b509250505060405180910390fd5b5061344e86868080601f01602080910402602001604051908101604052809392919081815260200183838082843782019150505050505085858080601f016020809104026020016040519081016040528093929190818152602001838380828437820191505050505050600180614562565b915050949350505050565b6134633382612dfc565b6040805190810160405280601681526020017f564f54494e475f43414e5f4e4f545f464f525741524400000000000000000000815250901515613541576040517f08c379a00000000000000000000000000000000000000000000000000000000081526004018080602001828103825283818151815260200191508051906020019080838360005b838110156135065780820151818401526020810190506134eb565b50505050905090810190601f1680156135335780820380516001836020036101000a031916815260200191505b509250505060405180910390fd5b5061355f816020604051908101604052806000815250600180614562565b5050565b600160009054906101000a900467ffffffffffffffff1681565b60007fffffffffffffffffffffffffffffffffffffffffffffffffffffffffffffffff6135a8611cf6565b14905090565b60085481565b8260085481106040805190810160405280600e81526020017f564f54494e475f4e4f5f564f5445000000000000000000000000000000000000815250901515613698576040517f08c379a00000000000000000000000000000000000000000000000000000000081526004018080602001828103825283818151815260200191508051906020019080838360005b8381101561365d578082015181840152602081019050613642565b50505050905090810190601f16801561368a5780820380516001836020036101000a031916815260200191505b509250505060405180910390fd5b506136a38433614401565b6040805190810160405280601381526020017f564f54494e475f43414e5f4e4f545f564f544500000000000000000000000000815250901515613781576040517f08c379a00000000000000000000000000000000000000000000000000000000081526004018080602001828103825283818151815260200191508051906020019080838360005b8381101561374657808201518184015260208101905061372b565b50505050905090810190601f1680156137735780820380516001836020036101000a031916815260200191505b509250505060405180910390fd5b5061378e84843385614a80565b50505050565b60045481565b60025481565b60007fe7dcd7275292e064d090fbc5f3bd7995be23b502c1fed5cd94cfddbbdcd32bbc600102613801338260006040519080825280602002602001820160405280156137fb5781602001602082028038833980820191505090505b5061237b565b6040805190810160405280600f81526020017f4150505f415554485f4641494c454400000000000000000000000000000000008152509015156138df576040517f08c379a00000000000000000000000000000000000000000000000000000000081526004018080602001828103825283818151815260200191508051906020019080838360005b838110156138a4578082015181840152602081019050613889565b50505050905090810190601f1680156138d15780820380516001836020036101000a031916815260200191505b509250505060405180910390fd5b5061395088888080601f01602080910402602001604051908101604052809392919081815260200183838082843782019150505050505087878080601f0160208091040260200160405190810160405280939291908181526020018383808284378201915050505050508686614562565b9150509695505050505050565b8060085481106040805190810160405280600e81526020017f564f54494e475f4e4f5f564f5445000000000000000000000000000000000000815250901515613a41576040517f08c379a00000000000000000000000000000000000000000000000000000000081526004018080602001828103825283818151815260200191508051906020019080838360005b83811015613a065780820151818401526020810190506139eb565b50505050905090810190601f168015613a335780820380516001836020036101000a031916815260200191505b509250505060405180910390fd5b50613a4b82614eba565b5050565b600060149054906101000a900467ffffffffffffffff1681565b6000809054906101000a900473ffffffffffffffffffffffffffffffffffffffff1681565b670de0b6b3a764000081565b60006001905090565b60006005546000809054906101000a900473ffffffffffffffffffffffffffffffffffffffff1673ffffffffffffffffffffffffffffffffffffffff166370a08231336040518263ffffffff167c0100000000000000000000000000000000000000000000000000000000028152600401808273ffffffffffffffffffffffffffffffffffffffff1673ffffffffffffffffffffffffffffffffffffffff168152602001915050602060405180830381600087803b158015613b6457600080fd5b505af1158015613b78573d6000803e3d6000fd5b505050506040513d6020811015613b8e57600080fd5b810190808051906020019092919050505010158015613c005750600960003373ffffffffffffffffffffffffffffffffffffffff1673ffffffffffffffffffffffffffffffffffffffff16815260200190815260200160002054613bfd60065442614fae90919063ffffffff16565b10155b905090565b600043905090565b6000613c5a600160089054906101000a900467ffffffffffffffff168360000160019054906101000a900467ffffffffffffffff1667ffffffffffffffff166150a390919063ffffffff16565b67ffffffffffffffff16613c6c6151ac565b67ffffffffffffffff16108015613c9257508160000160009054906101000a900460ff16155b9050919050565b60606002604051908082528060200260200182016040528015613ccb5781602001602082028038833980820191505090505b50905082816000815181101515613cde57fe5b906020019060200201818152505081816001815181101515613cfc57fe5b906020019060200201818152505092915050565b600081549050919050565b600081549050919050565b600080600073ffffffffffffffffffffffffffffffffffffffff168373ffffffffffffffffffffffffffffffffffffffff161415613d675760009150613d72565b823b90506000811191505b50919050565b600060606000808573ffffffffffffffffffffffffffffffffffffffff166370a0823190507c01000000000000000000000000000000000000000000000000000000000285604051602401808273ffffffffffffffffffffffffffffffffffffffff1673ffffffffffffffffffffffffffffffffffffffff168152602001915050604051602081830303815290604052907bffffffffffffffffffffffffffffffffffffffffffffffffffffffff19166020820180517bffffffffffffffffffffffffffffffffffffffffffffffffffffffff83818316178352505050509250613e6286846151c3565b91509150816040805190810160405280601c81526020017f534146455f4552435f32305f42414c414e43455f524556455254454400000000815250901515613f45576040517f08c379a00000000000000000000000000000000000000000000000000000000081526004018080602001828103825283818151815260200191508051906020019080838360005b83811015613f0a578082015181840152602081019050613eef565b50505050905090810190601f168015613f375780820380516001836020036101000a031916815260200191505b509250505060405180910390fd5b5080935050505092915050565b6000606063a9059cbb7c0100000000000000000000000000000000000000000000000000000000028484604051602401808373ffffffffffffffffffffffffffffffffffffffff1673ffffffffffffffffffffffffffffffffffffffff16815260200182815260200192505050604051602081830303815290604052907bffffffffffffffffffffffffffffffffffffffffffffffffffffffff19166020820180517bffffffffffffffffffffffffffffffffffffffffffffffffffffffff8381831617835250505050905061402885826151f8565b9150509392505050565b606060006020835102905082915080825250919050565b6000614053611cf6565b146040805190810160405280601881526020017f494e49545f414c52454144595f494e495449414c495a45440000000000000000815250901515614132576040517f08c379a00000000000000000000000000000000000000000000000000000000081526004018080602001828103825283818151815260200191508051906020019080838360005b838110156140f75780820151818401526020810190506140dc565b50505050905090810190601f1680156141245780820380516001836020036101000a031916815260200191505b509250505060405180910390fd5b5061417461413e613c05565b7febb05b386a8d34882b8711d156f463690983dc47815980fb82aeeff1aa43579e6001026000191661524a90919063ffffffff16565b565b600080600084141561418b5760009150614281565b828402905082848281151561419c57fe5b04146040805190810160405280601181526020017f4d4154485f4d554c5f4f564552464c4f5700000000000000000000000000000081525090151561427c576040517f08c379a00000000000000000000000000000000000000000000000000000000081526004018080602001828103825283818151815260200191508051906020019080838360005b83811015614241578082015181840152602081019050614226565b50505050905090810190601f16801561426e5780820380516001836020036101000a031916815260200191505b509250505060405180910390fd5b508091505b5092915050565b606060006040519080825280602002602001820160405280156142ba5781602001602082028038833980820191505090505b50905090565b60008060006007600085815260200190815260200160002091508160000160009054906101000a900460ff16156142fa57600092506143fa565b61432f826002015483600401548460000160119054906101000a900467ffffffffffffffff1667ffffffffffffffff16615251565b1561433d57600192506143fa565b61434682613c0d565b1561435457600092506143fa565b61436f826003015483600201546152a690919063ffffffff16565b90506143a28260020154828460000160119054906101000a900467ffffffffffffffff1667ffffffffffffffff16615251565b15156143b157600092506143fa565b6143e6826002015483600401548460010160009054906101000a900467ffffffffffffffff1667ffffffffffffffff16615251565b15156143f557600092506143fa565b600192505b5050919050565b60008060076000858152602001908152602001600020905061442281613c0d565b801561454e575060008060009054906101000a900473ffffffffffffffffffffffffffffffffffffffff1673ffffffffffffffffffffffffffffffffffffffff16634ee2cd7e858460000160099054906101000a900467ffffffffffffffff166040518363ffffffff167c0100000000000000000000000000000000000000000000000000000000028152600401808373ffffffffffffffffffffffffffffffffffffffff1673ffffffffffffffffffffffffffffffffffffffff1681526020018267ffffffffffffffff16815260200192505050602060405180830381600087803b15801561451157600080fd5b505af1158015614525573d6000803e3d6000fd5b505050506040513d602081101561453b57600080fd5b8101908080519060200190929190505050115b91505092915050565b600081549050919050565b600080600080614570613aa3565b151561457b57600080fd5b600161458561539b565b0392506000809054906101000a900473ffffffffffffffffffffffffffffffffffffffff1673ffffffffffffffffffffffffffffffffffffffff1663981b24d0846040518263ffffffff167c0100000000000000000000000000000000000000000000000000000000028152600401808267ffffffffffffffff168152602001915050602060405180830381600087803b15801561462257600080fd5b505af1158015614636573d6000803e3d6000fd5b505050506040513d602081101561464c57600080fd5b81019080805190602001909291905050509150600082116040805190810160405280601681526020017f564f54494e475f4e4f5f564f54494e475f504f57455200000000000000000000815250901515614741576040517f08c379a00000000000000000000000000000000000000000000000000000000081526004018080602001828103825283818151815260200191508051906020019080838360005b838110156147065780820151818401526020810190506146eb565b50505050905090810190601f1680156147335780820380516001836020036101000a031916815260200191505b509250505060405180910390fd5b50600860008154809291906001019190505593506007600085815260200190815260200160002090506147726151ac565b8160000160016101000a81548167ffffffffffffffff021916908367ffffffffffffffff160217905550828160000160096101000a81548167ffffffffffffffff021916908367ffffffffffffffff160217905550600060149054906101000a900467ffffffffffffffff168160000160116101000a81548167ffffffffffffffff021916908367ffffffffffffffff160217905550600160009054906101000a900467ffffffffffffffff168160010160006101000a81548167ffffffffffffffff021916908367ffffffffffffffff1602179055508181600401819055508781600501908051906020019061486a929190616086565b503373ffffffffffffffffffffffffffffffffffffffff16847f03ec16dff0e4a15a49c957ec170080a2c7c60d038f917ca3cbd4e7916afc7abf896005546006546000809054906101000a900473ffffffffffffffffffffffffffffffffffffffff1673ffffffffffffffffffffffffffffffffffffffff166318160ddd6040518163ffffffff167c0100000000000000000000000000000000000000000000000000000000028152600401602060405180830381600087803b15801561493057600080fd5b505af1158015614944573d6000803e3d6000fd5b505050506040513d602081101561495a57600080fd5b81019080805190602001909291905050506040518080602001858152602001848152602001838152602001828103825286818151815260200191508051906020019080838360005b838110156149bd5780820151818401526020810190506149a2565b50505050905090810190601f1680156149ea5780820380516001836020036101000a031916815260200191505b509550505050505060405180910390a3614a026151ac565b67ffffffffffffffff16600960003373ffffffffffffffffffffffffffffffffffffffff1673ffffffffffffffffffffffffffffffffffffffff16815260200190815260200160002081905550858015614a625750614a618433614401565b5b15614a7557614a748460013388614a80565b5b505050949350505050565b6000806000806007600089815260200190815260200160002093508360060160008773ffffffffffffffffffffffffffffffffffffffff1673ffffffffffffffffffffffffffffffffffffffff16815260200190815260200160002060009054906101000a900460ff16925060006002811115614af957fe5b836002811115614b0557fe5b141515614b7a576040517f08c379a00000000000000000000000000000000000000000000000000000000081526004018080602001828103825260128152602001807f43616e2774206368616e676520766f746573000000000000000000000000000081525060200191505060405180910390fd5b6000809054906101000a900473ffffffffffffffffffffffffffffffffffffffff1673ffffffffffffffffffffffffffffffffffffffff16634ee2cd7e878660000160099054906101000a900467ffffffffffffffff166040518363ffffffff167c0100000000000000000000000000000000000000000000000000000000028152600401808373ffffffffffffffffffffffffffffffffffffffff1673ffffffffffffffffffffffffffffffffffffffff1681526020018267ffffffffffffffff16815260200192505050602060405180830381600087803b158015614c6057600080fd5b505af1158015614c74573d6000803e3d6000fd5b505050506040513d6020811015614c8a57600080fd5b81019080805190602001909291905050509150614d6c600160089054906101000a900467ffffffffffffffff1667ffffffffffffffff16614d5e614d32614ccf6151ac565b614d1a600160089054906101000a900467ffffffffffffffff168a60000160019054906101000a900467ffffffffffffffff1667ffffffffffffffff166150a390919063ffffffff16565b67ffffffffffffffff166153b290919063ffffffff16565b67ffffffffffffffff16614d5086600261417690919063ffffffff16565b61417690919063ffffffff16565b6154bb90919063ffffffff16565b905081811115614d7a578190505b8615614da457614d978185600201546152a690919063ffffffff16565b8460020181905550614dc4565b614dbb8185600301546152a690919063ffffffff16565b84600301819055505b86614dd0576002614dd3565b60015b8460060160008873ffffffffffffffffffffffffffffffffffffffff1673ffffffffffffffffffffffffffffffffffffffff16815260200190815260200160002060006101000a81548160ff02191690836002811115614e2f57fe5b02179055508573ffffffffffffffffffffffffffffffffffffffff16887fb34ee265e3d4f5ec4e8b52d59b2a9be8fceca2f274ebc080d8fba797fea9391f898460405180831515151581526020018281526020019250505060405180910390a3848015614ea15750614ea0886142c0565b5b15614eb057614eaf886155b9565b5b5050505050505050565b614ec3816142c0565b6040805190810160405280601681526020017f564f54494e475f43414e5f4e4f545f4558454355544500000000000000000000815250901515614fa1576040517f08c379a00000000000000000000000000000000000000000000000000000000081526004018080602001828103825283818151815260200191508051906020019080838360005b83811015614f66578082015181840152602081019050614f4b565b50505050905090810190601f168015614f935780820380516001836020036101000a031916815260200191505b509250505060405180910390fd5b50614fab816155b9565b50565b600080838311156040805190810160405280601281526020017f4d4154485f5355425f554e444552464c4f570000000000000000000000000000815250901515615093576040517f08c379a00000000000000000000000000000000000000000000000000000000081526004018080602001828103825283818151815260200191508051906020019080838360005b8381101561505857808201518184015260208101905061503d565b50505050905090810190601f1680156150855780820380516001836020036101000a031916815260200191505b509250505060405180910390fd5b5082840390508091505092915050565b60008082840190508367ffffffffffffffff168167ffffffffffffffff1610156040805190810160405280601381526020017f4d41544836345f4144445f4f564552464c4f57000000000000000000000000008152509015156151a1576040517f08c379a00000000000000000000000000000000000000000000000000000000081526004018080602001828103825283818151815260200191508051906020019080838360005b8381101561516657808201518184015260208101905061514b565b50505050905090810190601f1680156151935780820380516001836020036101000a031916815260200191505b509250505060405180910390fd5b508091505092915050565b60006151be6151b9615730565b615738565b905090565b6000806000806040516020818751602089018a5afa925060008311156151e857805191505b5081819350935050509250929050565b6000806040516020818551602087016000895af1600081111561523e573d6000811461522b57602081146152345761523c565b6001935061523c565b600183511493505b505b50508091505092915050565b8082555050565b6000806000841415615266576000915061529e565b8361528c670de0b6b3a764000067ffffffffffffffff168761417690919063ffffffff16565b81151561529557fe5b04905082811191505b509392505050565b6000808284019050838110156040805190810160405280601181526020017f4d4154485f4144445f4f564552464c4f57000000000000000000000000000000815250901515615390576040517f08c379a00000000000000000000000000000000000000000000000000000000081526004018080602001828103825283818151815260200191508051906020019080838360005b8381101561535557808201518184015260208101905061533a565b50505050905090810190601f1680156153825780820380516001836020036101000a031916815260200191505b509250505060405180910390fd5b508091505092915050565b60006153ad6153a8613c05565b615738565b905090565b6000808367ffffffffffffffff168367ffffffffffffffff1611156040805190810160405280601481526020017f4d41544836345f5355425f554e444552464c4f570000000000000000000000008152509015156154ab576040517f08c379a00000000000000000000000000000000000000000000000000000000081526004018080602001828103825283818151815260200191508051906020019080838360005b83811015615470578082015181840152602081019050615455565b50505050905090810190601f16801561549d5780820380516001836020036101000a031916815260200191505b509250505060405180910390fd5b5082840390508091505092915050565b600080600083116040805190810160405280600d81526020017f4d4154485f4449565f5a45524f000000000000000000000000000000000000008152509015156155a0576040517f08c379a00000000000000000000000000000000000000000000000000000000081526004018080602001828103825283818151815260200191508051906020019080838360005b8381101561556557808201518184015260208101905061554a565b50505050905090810190601f1680156155925780820380516001836020036101000a031916815260200191505b509250505060405180910390fd5b5082848115156155ac57fe5b0490508091505092915050565b6000606060076000848152602001908152602001600020915060018260000160006101000a81548160ff02191690831515021790555060006040519080825280601f01601f1916602001820160405280156156235781602001602082028038833980820191505090505b5090506156fd826005018054600181600116156101000203166002900480601f0160208091040260200160405190810160405280929190818152602001828054600181600116156101000203166002900480156156c15780601f10615696576101008083540402835291602001916156c1565b820191906000526020600020905b8154815290600101906020018083116156a457829003601f168201915b50505050508260006040519080825280602002602001820160405280156156f75781602001602082028038833980820191505090505b5061584f565b50827fbf8e2b108bb7c980e08903a8a46527699d5e84905a082d56dacb4150725c8cab60405160405180910390a2505050565b600042905090565b60007fffffffffffffffffffffffffffffffffffffffffffffffffffffffffffffffff67ffffffffffffffff168211156040805190810160405280601581526020017f55494e5436345f4e554d4245525f544f4f5f4249470000000000000000000000815250901515615846576040517f08c379a00000000000000000000000000000000000000000000000000000000081526004018080602001828103825283818151815260200191508051906020019080838360005b8381101561580b5780820151818401526020810190506157f0565b50505050905090810190601f1680156158385780820380516001836020036101000a031916815260200191505b509250505060405180910390fd5b50819050919050565b606060008060608061585f611018565b6040805190810160405280601481526020017f494e49545f4e4f545f494e495449414c495a454400000000000000000000000081525090151561593d576040517f08c379a00000000000000000000000000000000000000000000000000000000081526004018080602001828103825283818151815260200191508051906020019080838360005b838110156159025780820151818401526020810190506158e7565b50505050905090810190601f16801561592f5780820380516001836020036101000a031916815260200191505b509250505060405180910390fd5b50600080615949613266565b9150615953611cbf565b905061595e8a611049565b9550600073ffffffffffffffffffffffffffffffffffffffff168673ffffffffffffffffffffffffffffffffffffffff1614156040805190810160405280601b81526020017f45564d52554e5f4558454355544f525f554e415641494c41424c450000000000815250901515615a6f576040517f08c379a00000000000000000000000000000000000000000000000000000000081526004018080602001828103825283818151815260200191508051906020019080838360005b83811015615a34578082015181840152602081019050615a19565b50505050905090810190601f168015615a615780820380516001836020036101000a031916815260200191505b509250505060405180910390fd5b508573ffffffffffffffffffffffffffffffffffffffff1663279cea3590507c0100000000000000000000000000000000000000000000000000000000029450848a8a8a60405160240180806020018060200180602001848103845287818151815260200191508051906020019080838360005b83811015615afe578082015181840152602081019050615ae3565b50505050905090810190601f168015615b2b5780820380516001836020036101000a031916815260200191505b50848103835286818151815260200191508051906020019080838360005b83811015615b64578082015181840152602081019050615b49565b50505050905090810190601f168015615b915780820380516001836020036101000a031916815260200191505b50848103825285818151815260200191508051906020019060200280838360005b83811015615bcd578082015181840152602081019050615bb2565b505050509050019650505050505050604051602081830303815290604052907bffffffffffffffffffffffffffffffffffffffffffffffffffffffff19166020820180517bffffffffffffffffffffffffffffffffffffffffffffffffffffffff83818316178352505050509350600080855160208701895af460405193508060008114615cd857603f3d1160008114615c765760203d03806020883e80870160405250615cd2565b7f08c379a000000000000000000000000000000000000000000000000000000000865260206004870152601e60248701527f45564d52554e5f4558454355544f525f494e56414c49445f52455455524e00006044870152606486fd5b50615ce1565b3d6000863e3d85fd5b50508573ffffffffffffffffffffffffffffffffffffffff167f5229a5dba83a54ae8cb5b51bdd6de9474cacbe9dd332f5185f3a4f4f2e3f4ad98b8b8660405180806020018060200180602001848103845287818151815260200191508051906020019080838360005b83811015615d66578082015181840152602081019050615d4b565b50505050905090810190601f168015615d935780820380516001836020036101000a031916815260200191505b50848103835286818151815260200191508051906020019080838360005b83811015615dcc578082015181840152602081019050615db1565b50505050905090810190601f168015615df95780820380516001836020036101000a031916815260200191505b50848103825285818151815260200191508051906020019080838360005b83811015615e32578082015181840152602081019050615e17565b50505050905090810190601f168015615e5f5780820380516001836020036101000a031916815260200191505b50965050505050505060405180910390a28296508173ffffffffffffffffffffffffffffffffffffffff16615e92613266565b73ffffffffffffffffffffffffffffffffffffffff16146040805190810160405280601f81526020017f45564d52554e5f50524f5445435445445f53544154455f4d4f44494649454400815250901515615f87576040517f08c379a00000000000000000000000000000000000000000000000000000000081526004018080602001828103825283818151815260200191508051906020019080838360005b83811015615f4c578082015181840152602081019050615f31565b50505050905090810190601f168015615f795780820380516001836020036101000a031916815260200191505b509250505060405180910390fd5b508060001916615f95611cbf565b60001916146040805190810160405280601f81526020017f45564d52554e5f50524f5445435445445f53544154455f4d4f44494649454400815250901515616078576040517f08c379a00000000000000000000000000000000000000000000000000000000081526004018080602001828103825283818151815260200191508051906020019080838360005b8381101561603d578082015181840152602081019050616022565b50505050905090810190601f16801561606a5780820380516001836020036101000a031916815260200191505b509250505060405180910390fd5b505050505050509392505050565b828054600181600116156101000203166002900490600052602060002090601f016020900481019282601f106160c757805160ff19168380011785556160f5565b828001600101855582156160f5579182015b828111156160f45782518255916020019190600101906160d9565b5b5090506161029190616106565b5090565b61612891905b8082111561612457600081600090555060010161610c565b5090565b905600a165627a7a723058203dd3028ee095338f5f4c1980e9361018135f077cce7c0a28bb710a64467610050029",
  "source": "/*\n * SPDX-License-Identitifer:    GPL-3.0-or-later\n */\n\npragma solidity 0.4.24;\n\nimport \"@aragon/os/contracts/apps/AragonApp.sol\";\nimport \"@aragon/os/contracts/common/IForwarder.sol\";\n\nimport \"@aragon/os/contracts/lib/math/SafeMath.sol\";\nimport \"@aragon/os/contracts/lib/math/SafeMath64.sol\";\n\nimport \"@aragon/apps-shared-minime/contracts/MiniMeToken.sol\";\n\n\ncontract Voting is IForwarder, AragonApp {\n    using SafeMath for uint256;\n    using SafeMath64 for uint64;\n\n    bytes32 public constant CREATE_VOTES_ROLE = 0xe7dcd7275292e064d090fbc5f3bd7995be23b502c1fed5cd94cfddbbdcd32bbc; //keccak256(\"CREATE_VOTES_ROLE\");\n    bytes32 public constant MODIFY_SUPPORT_ROLE = 0xda3972983e62bdf826c4b807c4c9c2b8a941e1f83dfa76d53d6aeac11e1be650; //keccak256(\"MODIFY_SUPPORT_ROLE\");\n    bytes32 public constant MODIFY_QUORUM_ROLE = 0xad15e7261800b4bb73f1b69d3864565ffb1fd00cb93cf14fe48da8f1f2149f39; //keccak256(\"MODIFY_QUORUM_ROLE\");\n\n    bytes32 public constant SET_MIN_BALANCE_ROLE = 0xb1f3f26f63ad27cd630737a426f990492f5c674208299d6fb23bb2b0733d3d66; //keccak256(\"SET_MIN_BALANCE_ROLE\")\n    bytes32 public constant SET_MIN_TIME_ROLE = 0xe7ab0252519cd959720b328191bed7fe61b8e25f77613877be7070646d12daf0; //keccak256(\"SET_MIN_TIME_ROLE\")\n\n    uint64 public constant PCT_BASE = 10 ** 18; // 0% = 0; 1% = 10^16; 100% = 10^18\n\n    string private constant ERROR_NO_VOTE = \"VOTING_NO_VOTE\";\n    string private constant ERROR_INIT_PCTS = \"VOTING_INIT_PCTS\";\n    string private constant ERROR_CHANGE_SUPPORT_PCTS = \"VOTING_CHANGE_SUPPORT_PCTS\";\n    string private constant ERROR_CHANGE_QUORUM_PCTS = \"VOTING_CHANGE_QUORUM_PCTS\";\n    string private constant ERROR_INIT_SUPPORT_TOO_BIG = \"VOTING_INIT_SUPPORT_TOO_BIG\";\n    string private constant ERROR_CHANGE_SUPPORT_TOO_BIG = \"VOTING_CHANGE_SUPP_TOO_BIG\";\n    string private constant ERROR_CAN_NOT_VOTE = \"VOTING_CAN_NOT_VOTE\";\n    string private constant ERROR_CAN_NOT_EXECUTE = \"VOTING_CAN_NOT_EXECUTE\";\n    string private constant ERROR_CAN_NOT_FORWARD = \"VOTING_CAN_NOT_FORWARD\";\n    string private constant ERROR_NO_VOTING_POWER = \"VOTING_NO_VOTING_POWER\";\n\n    enum VoterState { Absent, Yea, Nay }\n\n    struct Vote {\n        bool executed;\n        uint64 startDate;\n        uint64 snapshotBlock;\n        uint64 supportRequiredPct;\n        uint64 minAcceptQuorumPct;\n        uint256 yea;\n        uint256 nay;\n        uint256 votingPower;\n        bytes executionScript;\n        mapping (address => VoterState) voters;\n    }\n\n    MiniMeToken public token;\n    uint64 public supportRequiredPct;\n    uint64 public minAcceptQuorumPct;\n    uint64 public voteTime;\n\n    //2500000000000000000000\n    uint256 public minBalanceLowerLimit;\n    //43200\n    uint256 public minTimeLowerLimit;\n    //1209600\n    uint256 public minTimeUpperLimit;\n\n    uint256 public minBalance;\n    uint256 public minTime;\n\n    // We are mimicing an array, we use a mapping instead to make app upgrade more graceful\n    mapping (uint256 => Vote) internal votes;\n    uint256 public votesLength;\n\n    mapping(address => uint256) public lastCreateVoteTimes;\n\n    event StartVote(uint256 indexed voteId, address indexed creator, string metadata, uint256 minBalance, uint256 minTime, uint256 totalSupply);\n    event CastVote(uint256 indexed voteId, address indexed voter, bool supports, uint256 stake);\n    event ExecuteVote(uint256 indexed voteId);\n    event ChangeSupportRequired(uint64 supportRequiredPct);\n    event ChangeMinQuorum(uint64 minAcceptQuorumPct);\n\n    event MinimumBalanceSet(uint256 minBalance);\n    event MinimumTimeSet(uint256 minTime);\n\n    modifier voteExists(uint256 _voteId) {\n        require(_voteId < votesLength, ERROR_NO_VOTE);\n        _;\n    }\n\n    modifier minBalanceCheck(uint256 _minBalance) {\n        //_minBalance to be at least the equivalent of 10k locked for a year (1e18 precision)\n        require(_minBalance >= minBalanceLowerLimit, \"Not enough min balance\");\n        _;\n    }\n\n    modifier minTimeCheck(uint256 _minTime) {\n        require(_minTime >= minTimeLowerLimit && _minTime <= minTimeUpperLimit, \"Min time should be within initialization hardcoded limits\");\n        _;\n    }\n\n    /**\n    * @notice Initialize Voting app with `_token.symbol(): string` for governance, minimum support of `@formatPct(_supportRequiredPct)`%, minimum acceptance quorum of `@formatPct(_minAcceptQuorumPct)`%, and a voting duration of `@transformTime(_voteTime)`\n    * @param _token MiniMeToken Address that will be used as governance token\n    * @param _supportRequiredPct Percentage of yeas in casted votes for a vote to succeed (expressed as a percentage of 10^18; eg. 10^16 = 1%, 10^18 = 100%)\n    * @param _minAcceptQuorumPct Percentage of yeas in total possible votes for a vote to succeed (expressed as a percentage of 10^18; eg. 10^16 = 1%, 10^18 = 100%)\n    * @param _voteTime Seconds that a vote will be open for token holders to vote (unless enough yeas or nays have been cast to make an early decision)\n    * @param _minBalance Minumum balance that a token holder should have to create a new vote\n    * @param _minTime Minimum time between a user's previous vote and creating a new vote\n    * @param _minBalanceLowerLimit Hardcoded lower limit for _minBalance on initialization\n    * @param _minTimeLowerLimit Hardcoded lower limit for _minTime on initialization\n    * @param _minTimeUpperLimit Hardcoded upper limit for _minTime on initialization\n    */\n    function initialize(MiniMeToken _token, \n        uint64 _supportRequiredPct, \n        uint64 _minAcceptQuorumPct, \n        uint64 _voteTime,\n        uint256 _minBalance,\n        uint256 _minTime,\n        uint256 _minBalanceLowerLimit,\n        uint256 _minTimeLowerLimit,\n        uint256 _minTimeUpperLimit\n    ) external onlyInit {\n        assert(CREATE_VOTES_ROLE == keccak256(\"CREATE_VOTES_ROLE\"));\n        assert(MODIFY_SUPPORT_ROLE == keccak256(\"MODIFY_SUPPORT_ROLE\"));\n        assert(MODIFY_QUORUM_ROLE == keccak256(\"MODIFY_QUORUM_ROLE\"));\n        assert(SET_MIN_BALANCE_ROLE == keccak256(\"SET_MIN_BALANCE_ROLE\"));\n        assert(SET_MIN_TIME_ROLE == keccak256(\"SET_MIN_TIME_ROLE\"));\n\n        initialized();\n\n        require(_minAcceptQuorumPct <= _supportRequiredPct, ERROR_INIT_PCTS);\n        require(_supportRequiredPct < PCT_BASE, ERROR_INIT_SUPPORT_TOO_BIG);\n\n        require(_minBalance >= _minBalanceLowerLimit);\n        require(_minTime >= _minTimeLowerLimit && _minTime <= _minTimeUpperLimit);\n\n        token = _token;\n        supportRequiredPct = _supportRequiredPct;\n        minAcceptQuorumPct = _minAcceptQuorumPct;\n        voteTime = _voteTime;\n\n        uint256 decimals = token.decimals();\n\n        minBalance = _minBalance.mul(decimals);\n        minTime = _minTime;\n\n        minBalanceLowerLimit = _minBalanceLowerLimit.mul(decimals);\n        minTimeLowerLimit = _minTimeLowerLimit;\n        minTimeUpperLimit = _minTimeUpperLimit;\n    }\n\n    /**\n    * @notice Change required support to `@formatPct(_supportRequiredPct)`%\n    * @param _supportRequiredPct New required support\n    */\n    function changeSupportRequiredPct(uint64 _supportRequiredPct)\n        external\n        authP(MODIFY_SUPPORT_ROLE, arr(uint256(_supportRequiredPct), uint256(supportRequiredPct)))\n    {\n        require(minAcceptQuorumPct <= _supportRequiredPct, ERROR_CHANGE_SUPPORT_PCTS);\n        require(_supportRequiredPct < PCT_BASE, ERROR_CHANGE_SUPPORT_TOO_BIG);\n        supportRequiredPct = _supportRequiredPct;\n\n        emit ChangeSupportRequired(_supportRequiredPct);\n    }\n\n    /**\n    * @notice Change minimum acceptance quorum to `@formatPct(_minAcceptQuorumPct)`%\n    * @param _minAcceptQuorumPct New acceptance quorum\n    */\n    function changeMinAcceptQuorumPct(uint64 _minAcceptQuorumPct)\n        external\n        authP(MODIFY_QUORUM_ROLE, arr(uint256(_minAcceptQuorumPct), uint256(minAcceptQuorumPct)))\n    {\n        require(_minAcceptQuorumPct <= supportRequiredPct, ERROR_CHANGE_QUORUM_PCTS);\n        minAcceptQuorumPct = _minAcceptQuorumPct;\n\n        emit ChangeMinQuorum(_minAcceptQuorumPct);\n    }\n\n    /**\n    * @notice Change minimum balance needed to create a vote to `_minBalance`\n    * @param _minBalance New minimum balance\n    */\n\n    function setMinBalance(uint256 _minBalance) external auth(SET_MIN_BALANCE_ROLE) minBalanceCheck(_minBalance) {\n        //min balance can't be set to lower than 10k * 1 year\n        minBalance = _minBalance;\n\n        emit MinimumBalanceSet(_minBalance);\n    }\n\n    /**\n    * @notice Change minimum time needed to pass between user's previous vote and a user creating a new vote\n    * @param _minTime New minumum time\n    */\n\n    function setMinTime(uint256 _minTime) external auth(SET_MIN_TIME_ROLE) minTimeCheck(_minTime) {\n        //min time should be within initialized hardcoded limits\n        minTime = _minTime;\n\n        emit MinimumTimeSet(_minTime);\n    }\n\n    /**\n    * @notice Create a new vote about \"`_metadata`\"\n    * @param _executionScript EVM script to be executed on approval\n    * @param _metadata Vote metadata\n    * @return voteId Id for newly created vote\n    */\n    function newVote(bytes _executionScript, string _metadata) external auth(CREATE_VOTES_ROLE) returns (uint256 voteId) {\n        return _newVote(_executionScript, _metadata, true, true);\n    }\n\n    /**\n    * @notice Create a new vote about \"`_metadata`\"\n    * @param _executionScript EVM script to be executed on approval\n    * @param _metadata Vote metadata\n    * @param _castVote Whether to also cast newly created vote\n    * @param _executesIfDecided Whether to also immediately execute newly created vote if decided\n    * @return voteId id for newly created vote\n    */\n    function newVote(bytes _executionScript, string _metadata, bool _castVote, bool _executesIfDecided)\n        external\n        auth(CREATE_VOTES_ROLE)\n        returns (uint256 voteId)\n    {\n        return _newVote(_executionScript, _metadata, _castVote, _executesIfDecided);\n    }\n\n    /**\n    * @notice Vote `_supports ? 'yes' : 'no'` in vote #`_voteId`\n    * @dev Initialization check is implicitly provided by `voteExists()` as new votes can only be\n    *      created via `newVote(),` which requires initialization\n    * @param _voteId Id for vote\n    * @param _supports Whether voter supports the vote\n    * @param _executesIfDecided Whether the vote should execute its action if it becomes decided\n    */\n    function vote(uint256 _voteId, bool _supports, bool _executesIfDecided) external voteExists(_voteId) {\n        require(_canVote(_voteId, msg.sender), ERROR_CAN_NOT_VOTE);\n        _vote(_voteId, _supports, msg.sender, _executesIfDecided);\n    }\n\n    /**\n    * @notice Execute vote #`_voteId`\n    * @dev Initialization check is implicitly provided by `voteExists()` as new votes can only be\n    *      created via `newVote(),` which requires initialization\n    * @param _voteId Id for vote\n    */\n    function executeVote(uint256 _voteId) external voteExists(_voteId) {\n        _executeVote(_voteId);\n    }\n\n    // Forwarding fns\n\n    /**\n    * @notice Tells whether the Voting app is a forwarder or not\n    * @dev IForwarder interface conformance\n    * @return Always true\n    */\n    function isForwarder() external pure returns (bool) {\n        return true;\n    }\n\n    /**\n    * @notice Creates a vote to execute the desired action, and casts a support vote if possible\n    * @dev IForwarder interface conformance\n    * @param _evmScript Start vote with script\n    */\n    function forward(bytes _evmScript) public {\n        require(canForward(msg.sender, _evmScript), ERROR_CAN_NOT_FORWARD);\n        _newVote(_evmScript, \"\", true, true);\n    }\n\n    /**\n    * @notice Tells whether `_sender` can forward actions or not\n    * @dev IForwarder interface conformance\n    * @param _sender Address of the account intending to forward an action\n    * @return True if the given address can create votes, false otherwise\n    */\n    function canForward(address _sender, bytes) public view returns (bool) {\n        // Note that `canPerform()` implicitly does an initialization check itself\n        return canPerform(_sender, CREATE_VOTES_ROLE, arr()) && canCreateNewVote();\n    }\n\n    // Getter fns\n\n    /**\n    * @notice Tells whether a vote #`_voteId` can be executed or not\n    * @dev Initialization check is implicitly provided by `voteExists()` as new votes can only be\n    *      created via `newVote(),` which requires initialization\n    * @return True if the given vote can be executed, false otherwise\n    */\n    function canExecute(uint256 _voteId) public view voteExists(_voteId) returns (bool) {\n        return _canExecute(_voteId);\n    }\n\n    /**\n    * @notice Tells whether `_sender` can participate in the vote #`_voteId` or not\n    * @dev Initialization check is implicitly provided by `voteExists()` as new votes can only be\n    *      created via `newVote(),` which requires initialization\n    * @return True if the given voter can participate a certain vote, false otherwise\n    */\n    function canVote(uint256 _voteId, address _voter) public view voteExists(_voteId) returns (bool) {\n        return _canVote(_voteId, _voter);\n    }\n\n    function canCreateNewVote() public view returns(bool) {\n        return token.balanceOf(msg.sender) >= minBalance &&  block.timestamp.sub(minTime) >= lastCreateVoteTimes[msg.sender];\n    }\n\n    /**\n    * @dev Return all information for a vote by its ID\n    * @param _voteId Vote identifier\n    * @return Vote open status\n    * @return Vote executed status\n    * @return Vote start date\n    * @return Vote snapshot block\n    * @return Vote support required\n    * @return Vote minimum acceptance quorum\n    * @return Vote yeas amount\n    * @return Vote nays amount\n    * @return Vote power\n    * @return Vote script\n    */\n    function getVote(uint256 _voteId)\n        public\n        view\n        voteExists(_voteId)\n        returns (\n            bool open,\n            bool executed,\n            uint64 startDate,\n            uint64 snapshotBlock,\n            uint64 supportRequired,\n            uint64 minAcceptQuorum,\n            uint256 yea,\n            uint256 nay,\n            uint256 votingPower,\n            bytes script\n        )\n    {\n        Vote storage vote_ = votes[_voteId];\n\n        open = _isVoteOpen(vote_);\n        executed = vote_.executed;\n        startDate = vote_.startDate;\n        snapshotBlock = vote_.snapshotBlock;\n        supportRequired = vote_.supportRequiredPct;\n        minAcceptQuorum = vote_.minAcceptQuorumPct;\n        yea = vote_.yea;\n        nay = vote_.nay;\n        votingPower = vote_.votingPower;\n        script = vote_.executionScript;\n    }\n\n    /**\n    * @dev Return the state of a voter for a given vote by its ID\n    * @param _voteId Vote identifier\n    * @return VoterState of the requested voter for a certain vote\n    */\n    function getVoterState(uint256 _voteId, address _voter) public view voteExists(_voteId) returns (VoterState) {\n        return votes[_voteId].voters[_voter];\n    }\n\n    // Internal fns\n\n    /**\n    * @dev Internal function to create a new vote\n    * @return voteId id for newly created vote\n    */\n    function _newVote(bytes _executionScript, string _metadata, bool _castVote, bool _executesIfDecided) internal returns (uint256 voteId) {\n        require(canCreateNewVote());\n        uint64 snapshotBlock = getBlockNumber64() - 1; // avoid double voting in this very block\n        uint256 votingPower = token.totalSupplyAt(snapshotBlock);\n        require(votingPower > 0, ERROR_NO_VOTING_POWER);\n\n        voteId = votesLength++;\n\n        Vote storage vote_ = votes[voteId];\n        vote_.startDate = getTimestamp64();\n        vote_.snapshotBlock = snapshotBlock;\n        vote_.supportRequiredPct = supportRequiredPct;\n        vote_.minAcceptQuorumPct = minAcceptQuorumPct;\n        vote_.votingPower = votingPower;\n        vote_.executionScript = _executionScript;\n\n        emit StartVote(voteId, msg.sender, _metadata, minBalance, minTime, token.totalSupply());\n\n        lastCreateVoteTimes[msg.sender] = getTimestamp64();\n\n        if (_castVote && _canVote(voteId, msg.sender)) {\n            _vote(voteId, true, msg.sender, _executesIfDecided);\n        }\n    }\n\n    /**\n    * @dev Internal function to cast a vote. It assumes the queried vote exists.\n    */\n    function _vote(uint256 _voteId, bool _supports, address _voter, bool _executesIfDecided) internal {\n        Vote storage vote_ = votes[_voteId];\n\n        VoterState state = vote_.voters[_voter];\n        require(state == VoterState.Absent, \"Can't change votes\");\n        // This could re-enter, though we can assume the governance token is not malicious\n        uint256 balance = token.balanceOfAt(_voter, vote_.snapshotBlock);\n        uint256 voterStake = uint256(2).mul(balance).mul(vote_.startDate.add(voteTime).sub(getTimestamp64())).div(voteTime);\n        if(voterStake > balance) {\n            voterStake = balance;\n        }\n\n        if (_supports) {\n            vote_.yea = vote_.yea.add(voterStake);\n        } else {\n            vote_.nay = vote_.nay.add(voterStake);\n        }\n\n        vote_.voters[_voter] = _supports ? VoterState.Yea : VoterState.Nay;\n\n        emit CastVote(_voteId, _voter, _supports, voterStake);\n\n        if (_executesIfDecided && _canExecute(_voteId)) {\n            // We've already checked if the vote can be executed with `_canExecute()`\n            _unsafeExecuteVote(_voteId);\n        }\n    }\n\n    /**\n    * @dev Internal function to execute a vote. It assumes the queried vote exists.\n    */\n    function _executeVote(uint256 _voteId) internal {\n        require(_canExecute(_voteId), ERROR_CAN_NOT_EXECUTE);\n        _unsafeExecuteVote(_voteId);\n    }\n\n    /**\n    * @dev Unsafe version of _executeVote that assumes you have already checked if the vote can be executed and exists\n    */\n    function _unsafeExecuteVote(uint256 _voteId) internal {\n        Vote storage vote_ = votes[_voteId];\n\n        vote_.executed = true;\n\n        bytes memory input = new bytes(0); // TODO: Consider input for voting scripts\n        runScript(vote_.executionScript, input, new address[](0));\n\n        emit ExecuteVote(_voteId);\n    }\n\n    /**\n    * @dev Internal function to check if a vote can be executed. It assumes the queried vote exists.\n    * @return True if the given vote can be executed, false otherwise\n    */\n    function _canExecute(uint256 _voteId) internal view returns (bool) {\n        Vote storage vote_ = votes[_voteId];\n\n        if (vote_.executed) {\n            return false;\n        }\n\n        // Voting is already decided\n        if (_isValuePct(vote_.yea, vote_.votingPower, vote_.supportRequiredPct)) {\n            return true;\n        }\n\n        // Vote ended?\n        if (_isVoteOpen(vote_)) {\n            return false;\n        }\n        // Has enough support?\n        uint256 totalVotes = vote_.yea.add(vote_.nay);\n        if (!_isValuePct(vote_.yea, totalVotes, vote_.supportRequiredPct)) {\n            return false;\n        }\n        // Has min quorum?\n        if (!_isValuePct(vote_.yea, vote_.votingPower, vote_.minAcceptQuorumPct)) {\n            return false;\n        }\n\n        return true;\n    }\n\n    /**\n    * @dev Internal function to check if a voter can participate on a vote. It assumes the queried vote exists.\n    * @return True if the given voter can participate a certain vote, false otherwise\n    */\n    function _canVote(uint256 _voteId, address _voter) internal view returns (bool) {\n        Vote storage vote_ = votes[_voteId];\n        return _isVoteOpen(vote_) && token.balanceOfAt(_voter, vote_.snapshotBlock) > 0;\n    }\n\n    /**\n    * @dev Internal function to check if a vote is still open\n    * @return True if the given vote is open, false otherwise\n    */\n    function _isVoteOpen(Vote storage vote_) internal view returns (bool) {\n        return getTimestamp64() < vote_.startDate.add(voteTime) && !vote_.executed;\n    }\n\n    /**\n    * @dev Calculates whether `_value` is more than a percentage `_pct` of `_total`\n    */\n    function _isValuePct(uint256 _value, uint256 _total, uint256 _pct) internal pure returns (bool) {\n        if (_total == 0) {\n            return false;\n        }\n\n        uint256 computedPct = _value.mul(PCT_BASE) / _total;\n        return computedPct > _pct;\n    }\n}",
  "sourcePath": "/home/acho/data/curve-aragon-voting/contracts/Voting.sol",
  "compiler": {
    "name": "solc",
    "version": "0.4.24+commit.e67f0147.Emscripten.clang"
  },
  "schemaVersion": "3.1.0",
  "updatedAt": "2020-07-21T23:12:41.484Z",
  "devdoc": {
    "methods": {
      "allowRecoverability(address)": {
        "details": "By default deriving from AragonApp makes it recoverable",
        "params": {
          "token": "Token address that would be recovered"
        },
        "return": "bool whether the app allows the recovery"
      },
      "canExecute(uint256)": {
        "details": "Initialization check is implicitly provided by `voteExists()` as new votes can only be     created via `newVote(),` which requires initialization",
        "return": "True if the given vote can be executed, false otherwise"
      },
      "canForward(address,bytes)": {
        "details": "IForwarder interface conformance",
        "params": {
          "_sender": "Address of the account intending to forward an action"
        },
        "return": "True if the given address can create votes, false otherwise"
      },
      "canPerform(address,bytes32,uint256[])": {
        "details": "Check whether an action can be performed by a sender for a particular role on this app",
        "params": {
          "_params": "Permission params for the role",
          "_role": "Role on this app",
          "_sender": "Sender of the call"
        },
        "return": "Boolean indicating whether the sender has the permissions to perform the action.        Always returns false if the app hasn't been initialized yet."
      },
      "canVote(uint256,address)": {
        "details": "Initialization check is implicitly provided by `voteExists()` as new votes can only be     created via `newVote(),` which requires initialization",
        "return": "True if the given voter can participate a certain vote, false otherwise"
      },
      "changeMinAcceptQuorumPct(uint64)": {
        "params": {
          "_minAcceptQuorumPct": "New acceptance quorum"
        }
      },
      "changeSupportRequiredPct(uint64)": {
        "params": {
          "_supportRequiredPct": "New required support"
        }
      },
      "executeVote(uint256)": {
        "details": "Initialization check is implicitly provided by `voteExists()` as new votes can only be     created via `newVote(),` which requires initialization",
        "params": {
          "_voteId": "Id for vote"
        }
      },
      "forward(bytes)": {
        "details": "IForwarder interface conformance",
        "params": {
          "_evmScript": "Start vote with script"
        }
      },
      "getInitializationBlock()": {
        "return": "Block number in which the contract was initialized"
      },
      "getRecoveryVault()": {
        "details": "Get the recovery vault for the app",
        "return": "Recovery vault address for the app"
      },
      "getVote(uint256)": {
        "details": "Return all information for a vote by its ID",
        "params": {
          "_voteId": "Vote identifier"
        },
        "return": "Vote open statusVote executed statusVote start dateVote snapshot blockVote support requiredVote minimum acceptance quorumVote yeas amountVote nays amountVote powerVote script"
      },
      "getVoterState(uint256,address)": {
        "details": "Return the state of a voter for a given vote by its ID",
        "params": {
          "_voteId": "Vote identifier"
        },
        "return": "VoterState of the requested voter for a certain vote"
      },
      "hasInitialized()": {
        "return": "Whether the contract has been initialized by the time of the current block"
      },
      "initialize(address,uint64,uint64,uint64,uint256,uint256,uint256,uint256,uint256)": {
        "params": {
          "_minAcceptQuorumPct": "Percentage of yeas in total possible votes for a vote to succeed (expressed as a percentage of 10^18; eg. 10^16 = 1%, 10^18 = 100%)",
          "_minBalance": "Minumum balance that a token holder should have to create a new vote",
          "_minBalanceLowerLimit": "Hardcoded lower limit for _minBalance on initialization",
          "_minTime": "Minimum time between a user's previous vote and creating a new vote",
          "_minTimeLowerLimit": "Hardcoded lower limit for _minTime on initialization",
          "_minTimeUpperLimit": "Hardcoded upper limit for _minTime on initialization",
          "_supportRequiredPct": "Percentage of yeas in casted votes for a vote to succeed (expressed as a percentage of 10^18; eg. 10^16 = 1%, 10^18 = 100%)",
          "_token": "MiniMeToken Address that will be used as governance token",
          "_voteTime": "Seconds that a vote will be open for token holders to vote (unless enough yeas or nays have been cast to make an early decision)"
        }
      },
      "isForwarder()": {
        "details": "IForwarder interface conformance",
        "return": "Always true"
      },
      "newVote(bytes,string)": {
        "params": {
          "_executionScript": "EVM script to be executed on approval",
          "_metadata": "Vote metadata"
        },
        "return": "voteId Id for newly created vote"
      },
      "newVote(bytes,string,bool,bool)": {
        "params": {
          "_castVote": "Whether to also cast newly created vote",
          "_executesIfDecided": "Whether to also immediately execute newly created vote if decided",
          "_executionScript": "EVM script to be executed on approval",
          "_metadata": "Vote metadata"
        },
        "return": "voteId id for newly created vote"
      },
      "setMinBalance(uint256)": {
        "params": {
          "_minBalance": "New minimum balance"
        }
      },
      "setMinTime(uint256)": {
        "params": {
          "_minTime": "New minumum time"
        }
      },
      "transferToVault(address)": {
        "params": {
          "_token": "Token balance to be sent to recovery vault."
        }
      },
      "vote(uint256,bool,bool)": {
        "details": "Initialization check is implicitly provided by `voteExists()` as new votes can only be     created via `newVote(),` which requires initialization",
        "params": {
          "_executesIfDecided": "Whether the vote should execute its action if it becomes decided",
          "_supports": "Whether voter supports the vote",
          "_voteId": "Id for vote"
        }
      }
    }
  },
  "userdoc": {
    "methods": {
      "canExecute(uint256)": {
        "notice": "Tells whether a vote #`_voteId` can be executed or not"
      },
      "canForward(address,bytes)": {
        "notice": "Tells whether `_sender` can forward actions or not"
      },
      "canVote(uint256,address)": {
        "notice": "Tells whether `_sender` can participate in the vote #`_voteId` or not"
      },
      "changeMinAcceptQuorumPct(uint64)": {
        "notice": "Change minimum acceptance quorum to `@formatPct(_minAcceptQuorumPct)`%"
      },
      "changeSupportRequiredPct(uint64)": {
        "notice": "Change required support to `@formatPct(_supportRequiredPct)`%"
      },
      "executeVote(uint256)": {
        "notice": "Execute vote #`_voteId`"
      },
      "forward(bytes)": {
        "notice": "Creates a vote to execute the desired action, and casts a support vote if possible"
      },
      "initialize(address,uint64,uint64,uint64,uint256,uint256,uint256,uint256,uint256)": {
        "notice": "Initialize Voting app with `_token.symbol(): string` for governance, minimum support of `@formatPct(_supportRequiredPct)`%, minimum acceptance quorum of `@formatPct(_minAcceptQuorumPct)`%, and a voting duration of `@transformTime(_voteTime)`"
      },
      "isForwarder()": {
        "notice": "Tells whether the Voting app is a forwarder or not"
      },
      "newVote(bytes,string)": {
        "notice": "Create a new vote about \"`_metadata`\""
      },
      "newVote(bytes,string,bool,bool)": {
        "notice": "Create a new vote about \"`_metadata`\""
      },
      "setMinBalance(uint256)": {
        "notice": "Change minimum balance needed to create a vote to `_minBalance`"
      },
      "setMinTime(uint256)": {
        "notice": "Change minimum time needed to pass between user's previous vote and a user creating a new vote"
      },
      "transferToVault(address)": {
        "notice": "Send funds to recovery Vault. This contract should never receive funds,        but in case it does, this function allows one to recover them."
      },
      "vote(uint256,bool,bool)": {
        "notice": "Vote `_supports ? 'yes' : 'no'` in vote #`_voteId`"
      }
    }
  }
}