{
  "contractName": "Voting",
  "abi": [
    {
      "constant": true,
      "inputs": [],
      "name": "hasInitialized",
      "outputs": [
        {
          "name": "",
          "type": "bool"
        }
      ],
      "payable": false,
      "stateMutability": "view",
      "type": "function"
    },
    {
      "constant": true,
      "inputs": [],
      "name": "minTime",
      "outputs": [
        {
          "name": "",
          "type": "uint256"
        }
      ],
      "payable": false,
      "stateMutability": "view",
      "type": "function"
    },
    {
      "constant": true,
      "inputs": [
        {
          "name": "_script",
          "type": "bytes"
        }
      ],
      "name": "getEVMScriptExecutor",
      "outputs": [
        {
          "name": "",
          "type": "address"
        }
      ],
      "payable": false,
      "stateMutability": "view",
      "type": "function"
    },
    {
      "constant": true,
      "inputs": [],
      "name": "getRecoveryVault",
      "outputs": [
        {
          "name": "",
          "type": "address"
        }
      ],
      "payable": false,
      "stateMutability": "view",
      "type": "function"
    },
    {
      "constant": true,
      "inputs": [],
      "name": "MODIFY_QUORUM_ROLE",
      "outputs": [
        {
          "name": "",
          "type": "bytes32"
        }
      ],
      "payable": false,
      "stateMutability": "view",
      "type": "function"
    },
    {
      "constant": true,
      "inputs": [],
      "name": "MODIFY_SUPPORT_ROLE",
      "outputs": [
        {
          "name": "",
          "type": "bytes32"
        }
      ],
      "payable": false,
      "stateMutability": "view",
      "type": "function"
    },
    {
      "constant": true,
      "inputs": [
        {
          "name": "",
          "type": "address"
        }
      ],
      "name": "lastCreateVoteTimes",
      "outputs": [
        {
          "name": "",
          "type": "uint256"
        }
      ],
      "payable": false,
      "stateMutability": "view",
      "type": "function"
    },
    {
      "constant": true,
      "inputs": [
        {
          "name": "token",
          "type": "address"
        }
      ],
      "name": "allowRecoverability",
      "outputs": [
        {
          "name": "",
          "type": "bool"
        }
      ],
      "payable": false,
      "stateMutability": "view",
      "type": "function"
    },
    {
      "constant": true,
      "inputs": [],
      "name": "appId",
      "outputs": [
        {
          "name": "",
          "type": "bytes32"
        }
      ],
      "payable": false,
      "stateMutability": "view",
      "type": "function"
    },
    {
      "constant": true,
      "inputs": [],
      "name": "getInitializationBlock",
      "outputs": [
        {
          "name": "",
          "type": "uint256"
        }
      ],
      "payable": false,
      "stateMutability": "view",
      "type": "function"
    },
    {
      "constant": false,
      "inputs": [
        {
          "name": "_token",
          "type": "address"
        }
      ],
      "name": "transferToVault",
      "outputs": [],
      "payable": false,
      "stateMutability": "nonpayable",
      "type": "function"
    },
    {
      "constant": true,
      "inputs": [
        {
          "name": "_sender",
          "type": "address"
        },
        {
          "name": "_role",
          "type": "bytes32"
        },
        {
          "name": "_params",
          "type": "uint256[]"
        }
      ],
      "name": "canPerform",
      "outputs": [
        {
          "name": "",
          "type": "bool"
        }
      ],
      "payable": false,
      "stateMutability": "view",
      "type": "function"
    },
    {
      "constant": true,
      "inputs": [],
      "name": "getEVMScriptRegistry",
      "outputs": [
        {
          "name": "",
          "type": "address"
        }
      ],
      "payable": false,
      "stateMutability": "view",
      "type": "function"
    },
    {
      "constant": true,
      "inputs": [],
      "name": "SET_MIN_BALANCE_ROLE",
      "outputs": [
        {
          "name": "",
          "type": "bytes32"
        }
      ],
      "payable": false,
      "stateMutability": "view",
      "type": "function"
    },
    {
      "constant": true,
      "inputs": [],
      "name": "voteTime",
      "outputs": [
        {
          "name": "",
          "type": "uint64"
        }
      ],
      "payable": false,
      "stateMutability": "view",
      "type": "function"
    },
    {
      "constant": true,
      "inputs": [],
      "name": "CREATE_VOTES_ROLE",
      "outputs": [
        {
          "name": "",
          "type": "bytes32"
        }
      ],
      "payable": false,
      "stateMutability": "view",
      "type": "function"
    },
    {
      "constant": true,
      "inputs": [],
      "name": "SET_MIN_TIME_ROLE",
      "outputs": [
        {
          "name": "",
          "type": "bytes32"
        }
      ],
      "payable": false,
      "stateMutability": "view",
      "type": "function"
    },
    {
      "constant": true,
      "inputs": [],
      "name": "minBalance",
      "outputs": [
        {
          "name": "",
          "type": "uint256"
        }
      ],
      "payable": false,
      "stateMutability": "view",
      "type": "function"
    },
    {
      "constant": true,
      "inputs": [],
      "name": "SET_TOKEN_ROLE",
      "outputs": [
        {
          "name": "",
          "type": "bytes32"
        }
      ],
      "payable": false,
      "stateMutability": "view",
      "type": "function"
    },
    {
      "constant": true,
      "inputs": [],
      "name": "kernel",
      "outputs": [
        {
          "name": "",
          "type": "address"
        }
      ],
      "payable": false,
      "stateMutability": "view",
      "type": "function"
    },
    {
      "constant": true,
      "inputs": [],
      "name": "minAcceptQuorumPct",
      "outputs": [
        {
          "name": "",
          "type": "uint64"
        }
      ],
      "payable": false,
      "stateMutability": "view",
      "type": "function"
    },
    {
      "constant": true,
      "inputs": [],
      "name": "isPetrified",
      "outputs": [
        {
          "name": "",
          "type": "bool"
        }
      ],
      "payable": false,
      "stateMutability": "view",
      "type": "function"
    },
    {
      "constant": true,
      "inputs": [],
      "name": "votesLength",
      "outputs": [
        {
          "name": "",
          "type": "uint256"
        }
      ],
      "payable": false,
      "stateMutability": "view",
      "type": "function"
    },
    {
      "constant": true,
      "inputs": [],
      "name": "supportRequiredPct",
      "outputs": [
        {
          "name": "",
          "type": "uint64"
        }
      ],
      "payable": false,
      "stateMutability": "view",
      "type": "function"
    },
    {
      "constant": true,
      "inputs": [],
      "name": "token",
      "outputs": [
        {
          "name": "",
          "type": "address"
        }
      ],
      "payable": false,
      "stateMutability": "view",
      "type": "function"
    },
    {
      "constant": true,
      "inputs": [],
      "name": "PCT_BASE",
      "outputs": [
        {
          "name": "",
          "type": "uint64"
        }
      ],
      "payable": false,
      "stateMutability": "view",
      "type": "function"
    },
    {
      "anonymous": false,
      "inputs": [
        {
          "indexed": true,
          "name": "voteId",
          "type": "uint256"
        },
        {
          "indexed": true,
          "name": "creator",
          "type": "address"
        },
        {
          "indexed": false,
          "name": "metadata",
          "type": "string"
        }
      ],
      "name": "StartVote",
      "type": "event"
    },
    {
      "anonymous": false,
      "inputs": [
        {
          "indexed": true,
          "name": "voteId",
          "type": "uint256"
        },
        {
          "indexed": true,
          "name": "voter",
          "type": "address"
        },
        {
          "indexed": false,
          "name": "supports",
          "type": "bool"
        },
        {
          "indexed": false,
          "name": "stake",
          "type": "uint256"
        }
      ],
      "name": "CastVote",
      "type": "event"
    },
    {
      "anonymous": false,
      "inputs": [
        {
          "indexed": true,
          "name": "voteId",
          "type": "uint256"
        }
      ],
      "name": "ExecuteVote",
      "type": "event"
    },
    {
      "anonymous": false,
      "inputs": [
        {
          "indexed": false,
          "name": "supportRequiredPct",
          "type": "uint64"
        }
      ],
      "name": "ChangeSupportRequired",
      "type": "event"
    },
    {
      "anonymous": false,
      "inputs": [
        {
          "indexed": false,
          "name": "minAcceptQuorumPct",
          "type": "uint64"
        }
      ],
      "name": "ChangeMinQuorum",
      "type": "event"
    },
    {
      "anonymous": false,
      "inputs": [
        {
          "indexed": false,
          "name": "minBalance",
          "type": "uint256"
        }
      ],
      "name": "MinimumBalanceSet",
      "type": "event"
    },
    {
      "anonymous": false,
      "inputs": [
        {
          "indexed": false,
          "name": "minTime",
          "type": "uint256"
        }
      ],
      "name": "MinimumTimeSet",
      "type": "event"
    },
    {
      "anonymous": false,
      "inputs": [
        {
          "indexed": true,
          "name": "executor",
          "type": "address"
        },
        {
          "indexed": false,
          "name": "script",
          "type": "bytes"
        },
        {
          "indexed": false,
          "name": "input",
          "type": "bytes"
        },
        {
          "indexed": false,
          "name": "returnData",
          "type": "bytes"
        }
      ],
      "name": "ScriptResult",
      "type": "event"
    },
    {
      "anonymous": false,
      "inputs": [
        {
          "indexed": true,
          "name": "vault",
          "type": "address"
        },
        {
          "indexed": true,
          "name": "token",
          "type": "address"
        },
        {
          "indexed": false,
          "name": "amount",
          "type": "uint256"
        }
      ],
      "name": "RecoverToVault",
      "type": "event"
    },
    {
      "constant": false,
      "inputs": [],
      "name": "constructor",
      "outputs": [],
      "payable": false,
      "stateMutability": "nonpayable",
      "type": "function"
    },
    {
      "constant": false,
      "inputs": [
        {
          "name": "_token",
          "type": "address"
        },
        {
          "name": "_supportRequiredPct",
          "type": "uint64"
        },
        {
          "name": "_minAcceptQuorumPct",
          "type": "uint64"
        },
        {
          "name": "_voteTime",
          "type": "uint64"
        },
        {
          "name": "_minBalance",
          "type": "uint256"
        },
        {
          "name": "_minTime",
          "type": "uint256"
        }
      ],
      "name": "initialize",
      "outputs": [],
      "payable": false,
      "stateMutability": "nonpayable",
      "type": "function"
    },
    {
      "constant": false,
      "inputs": [
        {
          "name": "_supportRequiredPct",
          "type": "uint64"
        }
      ],
      "name": "changeSupportRequiredPct",
      "outputs": [],
      "payable": false,
      "stateMutability": "nonpayable",
      "type": "function"
    },
    {
      "constant": false,
      "inputs": [
        {
          "name": "_minAcceptQuorumPct",
          "type": "uint64"
        }
      ],
      "name": "changeMinAcceptQuorumPct",
      "outputs": [],
      "payable": false,
      "stateMutability": "nonpayable",
      "type": "function"
    },
    {
      "constant": false,
      "inputs": [
        {
          "name": "_minBalance",
          "type": "uint256"
        }
      ],
      "name": "setMinBalance",
      "outputs": [],
      "payable": false,
      "stateMutability": "nonpayable",
      "type": "function"
    },
    {
      "constant": false,
      "inputs": [
        {
          "name": "_minTime",
          "type": "uint256"
        }
      ],
      "name": "setMinTime",
      "outputs": [],
      "payable": false,
      "stateMutability": "nonpayable",
      "type": "function"
    },
    {
      "constant": false,
      "inputs": [
        {
          "name": "_executionScript",
          "type": "bytes"
        },
        {
          "name": "_metadata",
          "type": "string"
        }
      ],
      "name": "newVote",
      "outputs": [
        {
          "name": "voteId",
          "type": "uint256"
        }
      ],
      "payable": false,
      "stateMutability": "nonpayable",
      "type": "function"
    },
    {
      "constant": false,
      "inputs": [
        {
          "name": "_executionScript",
          "type": "bytes"
        },
        {
          "name": "_metadata",
          "type": "string"
        },
        {
          "name": "_castVote",
          "type": "bool"
        },
        {
          "name": "_executesIfDecided",
          "type": "bool"
        }
      ],
      "name": "newVote",
      "outputs": [
        {
          "name": "voteId",
          "type": "uint256"
        }
      ],
      "payable": false,
      "stateMutability": "nonpayable",
      "type": "function"
    },
    {
      "constant": false,
      "inputs": [
        {
          "name": "_voteId",
          "type": "uint256"
        },
        {
          "name": "_supports",
          "type": "bool"
        },
        {
          "name": "_executesIfDecided",
          "type": "bool"
        }
      ],
      "name": "vote",
      "outputs": [],
      "payable": false,
      "stateMutability": "nonpayable",
      "type": "function"
    },
    {
      "constant": false,
      "inputs": [
        {
          "name": "_voteId",
          "type": "uint256"
        }
      ],
      "name": "executeVote",
      "outputs": [],
      "payable": false,
      "stateMutability": "nonpayable",
      "type": "function"
    },
    {
      "constant": true,
      "inputs": [],
      "name": "isForwarder",
      "outputs": [
        {
          "name": "",
          "type": "bool"
        }
      ],
      "payable": false,
      "stateMutability": "pure",
      "type": "function"
    },
    {
      "constant": false,
      "inputs": [
        {
          "name": "_evmScript",
          "type": "bytes"
        }
      ],
      "name": "forward",
      "outputs": [],
      "payable": false,
      "stateMutability": "nonpayable",
      "type": "function"
    },
    {
      "constant": true,
      "inputs": [
        {
          "name": "_sender",
          "type": "address"
        },
        {
          "name": "",
          "type": "bytes"
        }
      ],
      "name": "canForward",
      "outputs": [
        {
          "name": "",
          "type": "bool"
        }
      ],
      "payable": false,
      "stateMutability": "view",
      "type": "function"
    },
    {
      "constant": true,
      "inputs": [
        {
          "name": "_voteId",
          "type": "uint256"
        }
      ],
      "name": "canExecute",
      "outputs": [
        {
          "name": "",
          "type": "bool"
        }
      ],
      "payable": false,
      "stateMutability": "view",
      "type": "function"
    },
    {
      "constant": true,
      "inputs": [
        {
          "name": "_voteId",
          "type": "uint256"
        },
        {
          "name": "_voter",
          "type": "address"
        }
      ],
      "name": "canVote",
      "outputs": [
        {
          "name": "",
          "type": "bool"
        }
      ],
      "payable": false,
      "stateMutability": "view",
      "type": "function"
    },
    {
      "constant": false,
      "inputs": [],
      "name": "canCreateNewVote",
      "outputs": [
        {
          "name": "",
          "type": "bool"
        }
      ],
      "payable": false,
      "stateMutability": "nonpayable",
      "type": "function"
    },
    {
      "constant": true,
      "inputs": [
        {
          "name": "_voteId",
          "type": "uint256"
        }
      ],
      "name": "getVote",
      "outputs": [
        {
          "name": "open",
          "type": "bool"
        },
        {
          "name": "executed",
          "type": "bool"
        },
        {
          "name": "startDate",
          "type": "uint64"
        },
        {
          "name": "snapshotBlock",
          "type": "uint64"
        },
        {
          "name": "supportRequired",
          "type": "uint64"
        },
        {
          "name": "minAcceptQuorum",
          "type": "uint64"
        },
        {
          "name": "yea",
          "type": "uint256"
        },
        {
          "name": "nay",
          "type": "uint256"
        },
        {
          "name": "votingPower",
          "type": "uint256"
        },
        {
          "name": "script",
          "type": "bytes"
        }
      ],
      "payable": false,
      "stateMutability": "view",
      "type": "function"
    },
    {
      "constant": true,
      "inputs": [
        {
          "name": "_voteId",
          "type": "uint256"
        },
        {
          "name": "_voter",
          "type": "address"
        }
      ],
      "name": "getVoterState",
      "outputs": [
        {
          "name": "",
          "type": "uint8"
        }
      ],
      "payable": false,
      "stateMutability": "view",
      "type": "function"
    }
  ],
  "bytecode": "0x60806040526200001d62000023640100000000026401000000009004565b62000309565b60006200003e6200015e640100000000026401000000009004565b146040805190810160405280601881526020017f494e49545f414c52454144595f494e495449414c495a4544000000000000000081525090151562000121576040517f08c379a00000000000000000000000000000000000000000000000000000000081526004018080602001828103825283818151815260200191508051906020019080838360005b83811015620000e5578082015181840152602081019050620000c8565b50505050905090810190601f168015620001135780820380516001836020036101000a031916815260200191505b509250505060405180910390fd5b506200015c7fffffffffffffffffffffffffffffffffffffffffffffffffffffffffffffffff620001ab640100000000026401000000009004565b565b6000620001a67febb05b386a8d34882b8711d156f463690983dc47815980fb82aeeff1aa43579e60010260001916620002f76401000000000262003ee8176401000000009004565b905090565b6000620001c66200015e640100000000026401000000009004565b146040805190810160405280601881526020017f494e49545f414c52454144595f494e495449414c495a45440000000000000000815250901515620002a9576040517f08c379a00000000000000000000000000000000000000000000000000000000081526004018080602001828103825283818151815260200191508051906020019080838360005b838110156200026d57808201518184015260208101905062000250565b50505050905090810190601f1680156200029b5780820380516001836020036101000a031916815260200191505b509250505060405180910390fd5b50620002f4817febb05b386a8d34882b8711d156f463690983dc47815980fb82aeeff1aa43579e60010260001916620003026401000000000262004f35179091906401000000009004565b50565b600081549050919050565b8082555050565b615fe980620003196000396000f30060806040526004361061021a576000357c0100000000000000000000000000000000000000000000000000000000900463ffffffff1680630803fac01461021f57806314520bd41461024e5780631aa43078146102e15780632914b9bd1461030c57806332f0a3b5146103b55780633c624c751461040c5780634b12311c1461043f5780635a55c1f0146104ae5780635eb24332146105eb57806362de7e5a146106225780637bbddcfc146106555780637c1d0b87146106ac5780637e7db6e1146106e357806380afdea81461073e5780638b3dd7491461077157806390fa17bb1461079c57806393f89a80146107b35780639d4941d8146107e0578063a1658fad14610823578063a479e508146108cf578063b6f6825414610926578063bcf93dd614610959578063be2c64d414610998578063c0774df3146109cb578063c54c24b514610a6c578063c5bb875814610a9f578063c75bcaa114610aca578063c91d956c14610afd578063cc63604a14610b2a578063cdb2867b14610b6f578063d4aae0c414610bd4578063d5db2c8014610c2b578063d948d46814610c92578063dc474b1a14610cfb578063de4796ed14610d3a578063de4f634714610d69578063df133bca14610d94578063f4b0051314610dd9578063f98a4eca14610e58578063fad167ab14610e85578063fc0c546a14610ec4578063fc157cb414610f1b578063fd64eccb14610f5a578063fe32a64d14610f89575b600080fd5b34801561022b57600080fd5b50610234610fb8565b604051808215151515815260200191505060405180910390f35b34801561025a57600080fd5b506102df600480360381019080803573ffffffffffffffffffffffffffffffffffffffff169060200190929190803567ffffffffffffffff169060200190929190803567ffffffffffffffff169060200190929190803567ffffffffffffffff1690602001909291908035906020019092919080359060200190929190505050610fe3565b005b3480156102ed57600080fd5b506102f66114de565b6040518082815260200191505060405180910390f35b34801561031857600080fd5b50610373600480360381019080803590602001908201803590602001908080601f01602080910402602001604051908101604052809392919081815260200183838082843782019150505050505091929192905050506114e4565b604051808273ffffffffffffffffffffffffffffffffffffffff1673ffffffffffffffffffffffffffffffffffffffff16815260200191505060405180910390f35b3480156103c157600080fd5b506103ca611603565b604051808273ffffffffffffffffffffffffffffffffffffffff1673ffffffffffffffffffffffffffffffffffffffff16815260200191505060405180910390f35b34801561041857600080fd5b506104216116b0565b60405180826000191660001916815260200191505060405180910390f35b34801561044b57600080fd5b5061048a60048036038101908080359060200190929190803573ffffffffffffffffffffffffffffffffffffffff1690602001909291905050506116e9565b6040518082600281111561049a57fe5b60ff16815260200191505060405180910390f35b3480156104ba57600080fd5b506104d96004803603810190808035906020019092919050505061183a565b604051808b1515151581526020018a1515151581526020018967ffffffffffffffff1667ffffffffffffffff1681526020018867ffffffffffffffff1667ffffffffffffffff1681526020018767ffffffffffffffff1667ffffffffffffffff1681526020018667ffffffffffffffff1667ffffffffffffffff16815260200185815260200184815260200183815260200180602001828103825283818151815260200191508051906020019080838360005b838110156105a757808201518184015260208101905061058c565b50505050905090810190601f1680156105d45780820380516001836020036101000a031916815260200191505b509b50505050505050505050505060405180910390f35b3480156105f757600080fd5b50610620600480360381019080803567ffffffffffffffff169060200190929190505050611a94565b005b34801561062e57600080fd5b50610637611d6e565b60405180826000191660001916815260200191505060405180910390f35b34801561066157600080fd5b50610696600480360381019080803573ffffffffffffffffffffffffffffffffffffffff169060200190929190505050611da7565b6040518082815260200191505060405180910390f35b3480156106b857600080fd5b506106e1600480360381019080803567ffffffffffffffff169060200190929190505050611dbf565b005b3480156106ef57600080fd5b50610724600480360381019080803573ffffffffffffffffffffffffffffffffffffffff169060200190929190505050612197565b604051808215151515815260200191505060405180910390f35b34801561074a57600080fd5b506107536121a2565b60405180826000191660001916815260200191505060405180910390f35b34801561077d57600080fd5b506107866121d9565b6040518082815260200191505060405180910390f35b3480156107a857600080fd5b506107b1612210565b005b3480156107bf57600080fd5b506107de60048036038101908080359060200190929190505050612353565b005b3480156107ec57600080fd5b50610821600480360381019080803573ffffffffffffffffffffffffffffffffffffffff169060200190929190505050612584565b005b34801561082f57600080fd5b506108b5600480360381019080803573ffffffffffffffffffffffffffffffffffffffff1690602001909291908035600019169060200190929190803590602001908201803590602001908080602002602001604051908101604052809392919081815260200183836020028082843782019150505050505091929192905050506129a2565b604051808215151515815260200191505060405180910390f35b3480156108db57600080fd5b506108e4612b9e565b604051808273ffffffffffffffffffffffffffffffffffffffff1673ffffffffffffffffffffffffffffffffffffffff16815260200191505060405180910390f35b34801561093257600080fd5b5061093b612cb9565b60405180826000191660001916815260200191505060405180910390f35b34801561096557600080fd5b5061096e612ce0565b604051808267ffffffffffffffff1667ffffffffffffffff16815260200191505060405180910390f35b3480156109a457600080fd5b506109ad612cfa565b60405180826000191660001916815260200191505060405180910390f35b3480156109d757600080fd5b50610a52600480360381019080803573ffffffffffffffffffffffffffffffffffffffff169060200190929190803590602001908201803590602001908080601f0160208091040260200160405190810160405280939291908181526020018383808284378201915050505050509192919290505050612d33565b604051808215151515815260200191505060405180910390f35b348015610a7857600080fd5b50610a81612d84565b60405180826000191660001916815260200191505060405180910390f35b348015610aab57600080fd5b50610ab4612dab565b6040518082815260200191505060405180910390f35b348015610ad657600080fd5b50610adf612db1565b60405180826000191660001916815260200191505060405180910390f35b348015610b0957600080fd5b50610b2860048036038101908080359060200190929190505050612dd8565b005b348015610b3657600080fd5b50610b5560048036038101908080359060200190929190505050612fea565b604051808215151515815260200191505060405180910390f35b348015610b7b57600080fd5b50610bba60048036038101908080359060200190929190803573ffffffffffffffffffffffffffffffffffffffff1690602001909291905050506130e2565b604051808215151515815260200191505060405180910390f35b348015610be057600080fd5b50610be96131dc565b604051808273ffffffffffffffffffffffffffffffffffffffff1673ffffffffffffffffffffffffffffffffffffffff16815260200191505060405180910390f35b348015610c3757600080fd5b50610c7c600480360381019080803590602001908201803590602001919091929391929390803590602001908201803590602001919091929391929390505050613213565b6040518082815260200191505060405180910390f35b348015610c9e57600080fd5b50610cf9600480360381019080803590602001908201803590602001908080601f01602080910402602001604051908101604052809392919081815260200183838082843782019150505050505091929192905050506133e1565b005b348015610d0757600080fd5b50610d106134eb565b604051808267ffffffffffffffff1667ffffffffffffffff16815260200191505060405180910390f35b348015610d4657600080fd5b50610d4f613505565b604051808215151515815260200191505060405180910390f35b348015610d7557600080fd5b50610d7e613536565b6040518082815260200191505060405180910390f35b348015610da057600080fd5b50610dd76004803603810190808035906020019092919080351515906020019092919080351515906020019092919050505061353c565b005b348015610de557600080fd5b50610e4260048036038101908080359060200190820180359060200191909192939192939080359060200190820180359060200191909192939192939080351515906020019092919080351515906020019092919050505061371c565b6040518082815260200191505060405180910390f35b348015610e6457600080fd5b50610e83600480360381019080803590602001909291905050506138eb565b005b348015610e9157600080fd5b50610e9a6139dd565b604051808267ffffffffffffffff1667ffffffffffffffff16815260200191505060405180910390f35b348015610ed057600080fd5b50610ed96139f7565b604051808273ffffffffffffffffffffffffffffffffffffffff1673ffffffffffffffffffffffffffffffffffffffff16815260200191505060405180910390f35b348015610f2757600080fd5b50610f30613a1c565b604051808267ffffffffffffffff1667ffffffffffffffff16815260200191505060405180910390f35b348015610f6657600080fd5b50610f6f613a28565b604051808215151515815260200191505060405180910390f35b348015610f9557600080fd5b50610f9e613a31565b604051808215151515815260200191505060405180910390f35b600080610fc36121d9565b905060008114158015610fdd575080610fda613b93565b10155b91505090565b6000610fed6121d9565b146040805190810160405280601881526020017f494e49545f414c52454144595f494e495449414c495a454400000000000000008152509015156110cc576040517f08c379a00000000000000000000000000000000000000000000000000000000081526004018080602001828103825283818151815260200191508051906020019080838360005b83811015611091578082015181840152602081019050611076565b50505050905090810190601f1680156110be5780820380516001836020036101000a031916815260200191505b509250505060405180910390fd5b50816110e76301e13380612710613b9b90919063ffffffff16565b811015151561115e576040517f08c379a00000000000000000000000000000000000000000000000000000000081526004018080602001828103825260168152602001807f4e6f7420656e6f756768206d696e2062616c616e63650000000000000000000081525060200191505060405180910390fd5b8161a8c081101580156111745750621275008111155b151561120e576040517f08c379a000000000000000000000000000000000000000000000000000000000815260040180806020018281038252603c8152602001807f4d696e2074696d652063616e2774206265206c657373207468616e2068616c6681526020017f20612064617920616e64206d6f7265207468616e2032207765656b730000000081525060400191505060405180910390fd5b611216613cad565b8667ffffffffffffffff168667ffffffffffffffff1611156040805190810160405280601081526020017f564f54494e475f494e49545f504354530000000000000000000000000000000081525090151561130c576040517f08c379a00000000000000000000000000000000000000000000000000000000081526004018080602001828103825283818151815260200191508051906020019080838360005b838110156112d15780820151818401526020810190506112b6565b50505050905090810190601f1680156112fe5780820380516001836020036101000a031916815260200191505b509250505060405180910390fd5b50670de0b6b3a764000067ffffffffffffffff168767ffffffffffffffff16106040805190810160405280601b81526020017f564f54494e475f494e49545f535550504f52545f544f4f5f424947000000000081525090151561140a576040517f08c379a00000000000000000000000000000000000000000000000000000000081526004018080602001828103825283818151815260200191508051906020019080838360005b838110156113cf5780820151818401526020810190506113b4565b50505050905090810190601f1680156113fc5780820380516001836020036101000a031916815260200191505b509250505060405180910390fd5b50876000806101000a81548173ffffffffffffffffffffffffffffffffffffffff021916908373ffffffffffffffffffffffffffffffffffffffff16021790555086600060146101000a81548167ffffffffffffffff021916908367ffffffffffffffff16021790555085600160006101000a81548167ffffffffffffffff021916908367ffffffffffffffff16021790555084600160086101000a81548167ffffffffffffffff021916908367ffffffffffffffff16021790555083600281905550826003819055505050505050505050565b60035481565b60006114ee612b9e565b73ffffffffffffffffffffffffffffffffffffffff166304bf2a7f836040518263ffffffff167c01000000000000000000000000000000000000000000000000000000000281526004018080602001828103825283818151815260200191508051906020019080838360005b8381101561157557808201518184015260208101905061155a565b50505050905090810190601f1680156115a25780820380516001836020036101000a031916815260200191505b5092505050602060405180830381600087803b1580156115c157600080fd5b505af11580156115d5573d6000803e3d6000fd5b505050506040513d60208110156115eb57600080fd5b81019080805190602001909291905050509050919050565b600061160d6131dc565b73ffffffffffffffffffffffffffffffffffffffff166332f0a3b56040518163ffffffff167c0100000000000000000000000000000000000000000000000000000000028152600401602060405180830381600087803b15801561167057600080fd5b505af1158015611684573d6000803e3d6000fd5b505050506040513d602081101561169a57600080fd5b8101908080519060200190929190505050905090565b60405180807f4d4f444946595f51554f52554d5f524f4c4500000000000000000000000000008152506012019050604051809103902081565b60008260055481106040805190810160405280600e81526020017f564f54494e475f4e4f5f564f54450000000000000000000000000000000000008152509015156117cf576040517f08c379a00000000000000000000000000000000000000000000000000000000081526004018080602001828103825283818151815260200191508051906020019080838360005b83811015611794578082015181840152602081019050611779565b50505050905090810190601f1680156117c15780820380516001836020036101000a031916815260200191505b509250505060405180910390fd5b506004600085815260200190815260200160002060060160008473ffffffffffffffffffffffffffffffffffffffff1673ffffffffffffffffffffffffffffffffffffffff16815260200190815260200160002060009054906101000a900460ff1691505092915050565b6000806000806000806000806000606060008b60055481106040805190810160405280600e81526020017f564f54494e475f4e4f5f564f5445000000000000000000000000000000000000815250901515611930576040517f08c379a00000000000000000000000000000000000000000000000000000000081526004018080602001828103825283818151815260200191508051906020019080838360005b838110156118f55780820151818401526020810190506118da565b50505050905090810190601f1680156119225780820380516001836020036101000a031916815260200191505b509250505060405180910390fd5b50600460008e8152602001908152602001600020915061194f82613dda565b9b508160000160009054906101000a900460ff169a508160000160019054906101000a900467ffffffffffffffff1699508160000160099054906101000a900467ffffffffffffffff1698508160000160119054906101000a900467ffffffffffffffff1697508160010160009054906101000a900467ffffffffffffffff169650816002015495508160030154945081600401549350816005018054600181600116156101000203166002900480601f016020809104026020016040519081016040528092919081815260200182805460018160011615610100020316600290048015611a7e5780601f10611a5357610100808354040283529160200191611a7e565b820191906000526020600020905b815481529060010190602001808311611a6157829003601f168201915b5050505050925050509193959799509193959799565b60405180807f4d4f444946595f51554f52554d5f524f4c45000000000000000000000000000081525060120190506040518091039020611afe8267ffffffffffffffff16600160009054906101000a900467ffffffffffffffff1667ffffffffffffffff16613e66565b611b093383836129a2565b6040805190810160405280600f81526020017f4150505f415554485f4641494c45440000000000000000000000000000000000815250901515611be7576040517f08c379a00000000000000000000000000000000000000000000000000000000081526004018080602001828103825283818151815260200191508051906020019080838360005b83811015611bac578082015181840152602081019050611b91565b50505050905090810190601f168015611bd95780820380516001836020036101000a031916815260200191505b509250505060405180910390fd5b50600060149054906101000a900467ffffffffffffffff1667ffffffffffffffff168367ffffffffffffffff1611156040805190810160405280601981526020017f564f54494e475f4348414e47455f51554f52554d5f5043545300000000000000815250901515611cf4576040517f08c379a00000000000000000000000000000000000000000000000000000000081526004018080602001828103825283818151815260200191508051906020019080838360005b83811015611cb9578082015181840152602081019050611c9e565b50505050905090810190601f168015611ce65780820380516001836020036101000a031916815260200191505b509250505060405180910390fd5b5082600160006101000a81548167ffffffffffffffff021916908367ffffffffffffffff1602179055507f3172f2e9273c729c2a47cc8bf7e7f18506e3e3035126d562602bd2155bc78a5083604051808267ffffffffffffffff1667ffffffffffffffff16815260200191505060405180910390a1505050565b60405180807f4d4f444946595f535550504f52545f524f4c45000000000000000000000000008152506013019050604051809103902081565b60066020528060005260406000206000915090505481565b60405180807f4d4f444946595f535550504f52545f524f4c450000000000000000000000000081525060130190506040518091039020611e298267ffffffffffffffff16600060149054906101000a900467ffffffffffffffff1667ffffffffffffffff16613e66565b611e343383836129a2565b6040805190810160405280600f81526020017f4150505f415554485f4641494c45440000000000000000000000000000000000815250901515611f12576040517f08c379a00000000000000000000000000000000000000000000000000000000081526004018080602001828103825283818151815260200191508051906020019080838360005b83811015611ed7578082015181840152602081019050611ebc565b50505050905090810190601f168015611f045780820380516001836020036101000a031916815260200191505b509250505060405180910390fd5b508267ffffffffffffffff16600160009054906101000a900467ffffffffffffffff1667ffffffffffffffff1611156040805190810160405280601a81526020017f564f54494e475f4348414e47455f535550504f52545f5043545300000000000081525090151561201f576040517f08c379a00000000000000000000000000000000000000000000000000000000081526004018080602001828103825283818151815260200191508051906020019080838360005b83811015611fe4578082015181840152602081019050611fc9565b50505050905090810190601f1680156120115780820380516001836020036101000a031916815260200191505b509250505060405180910390fd5b50670de0b6b3a764000067ffffffffffffffff168367ffffffffffffffff16106040805190810160405280601a81526020017f564f54494e475f4348414e47455f535550505f544f4f5f42494700000000000081525090151561211d576040517f08c379a00000000000000000000000000000000000000000000000000000000081526004018080602001828103825283818151815260200191508051906020019080838360005b838110156120e25780820151818401526020810190506120c7565b50505050905090810190601f16801561210f5780820380516001836020036101000a031916815260200191505b509250505060405180910390fd5b5082600060146101000a81548167ffffffffffffffff021916908367ffffffffffffffff1602179055507f903b617f7f36eb047a29b89d1bf7885fdae31d250c3320fccf11d045c11b396e83604051808267ffffffffffffffff1667ffffffffffffffff16815260200191505060405180910390a1505050565b600060019050919050565b60006121d47fd625496217aa6a3453eecb9c3489dc5a53e6c67b444329ea2b2cbc9ff547639b60010260001916613edd565b905090565b600061220b7febb05b386a8d34882b8711d156f463690983dc47815980fb82aeeff1aa43579e60010260001916613ee8565b905090565b60405180807f5345545f544f4b454e5f524f4c45000000000000000000000000000000000000815250600e0190506040518091039020600019167f9b27b5f34c38cd0d691143dc6188f9aa90e75f5e87b428e9315e822224da1dd26001026000191614151561227b57fe5b60405180807f5345545f4d494e5f42414c414e43455f524f4c4500000000000000000000000081525060140190506040518091039020600019167fb1f3f26f63ad27cd630737a426f990492f5c674208299d6fb23bb2b0733d3d66600102600019161415156122e657fe5b60405180807f5345545f4d494e5f54494d455f524f4c4500000000000000000000000000000081525060110190506040518091039020600019167fe7ab0252519cd959720b328191bed7fe61b8e25f77613877be7070646d12daf06001026000191614151561235157fe5b565b7fe7ab0252519cd959720b328191bed7fe61b8e25f77613877be7070646d12daf06001026123b2338260006040519080825280602002602001820160405280156123ac5781602001602082028038833980820191505090505b506129a2565b6040805190810160405280600f81526020017f4150505f415554485f4641494c45440000000000000000000000000000000000815250901515612490576040517f08c379a00000000000000000000000000000000000000000000000000000000081526004018080602001828103825283818151815260200191508051906020019080838360005b8381101561245557808201518184015260208101905061243a565b50505050905090810190601f1680156124825780820380516001836020036101000a031916815260200191505b509250505060405180910390fd5b508161a8c081101580156124a75750621275008111155b1515612541576040517f08c379a000000000000000000000000000000000000000000000000000000000815260040180806020018281038252603c8152602001807f4d696e2074696d652063616e2774206265206c657373207468616e2068616c6681526020017f20612064617920616e64206d6f7265207468616e2032207765656b730000000081525060400191505060405180910390fd5b826003819055507fcb34d0577abe5b2f96b65ea1bb5de2209ba6309c6909438c6d50dd277ca3b580836040518082815260200191505060405180910390a1505050565b600080600061259284612197565b6040805190810160405280601281526020017f5245434f5645525f444953414c4c4f5745440000000000000000000000000000815250901515612670576040517f08c379a00000000000000000000000000000000000000000000000000000000081526004018080602001828103825283818151815260200191508051906020019080838360005b8381101561263557808201518184015260208101905061261a565b50505050905090810190601f1680156126625780820380516001836020036101000a031916815260200191505b509250505060405180910390fd5b50612679611603565b925061268483613ef3565b6040805190810160405280601a81526020017f5245434f5645525f5641554c545f4e4f545f434f4e5452414354000000000000815250901515612762576040517f08c379a00000000000000000000000000000000000000000000000000000000081526004018080602001828103825283818151815260200191508051906020019080838360005b8381101561272757808201518184015260208101905061270c565b50505050905090810190601f1680156127545780820380516001836020036101000a031916815260200191505b509250505060405180910390fd5b50600073ffffffffffffffffffffffffffffffffffffffff168473ffffffffffffffffffffffffffffffffffffffff1614156127fe573073ffffffffffffffffffffffffffffffffffffffff163191508273ffffffffffffffffffffffffffffffffffffffff166108fc839081150290604051600060405180830381858888f193505050501580156127f8573d6000803e3d6000fd5b50612937565b83905061282a308273ffffffffffffffffffffffffffffffffffffffff16613f4590919063ffffffff16565b915061285783838373ffffffffffffffffffffffffffffffffffffffff1661411f9092919063ffffffff16565b6040805190810160405280601d81526020017f5245434f5645525f544f4b454e5f5452414e534645525f4641494c4544000000815250901515612935576040517f08c379a00000000000000000000000000000000000000000000000000000000081526004018080602001828103825283818151815260200191508051906020019080838360005b838110156128fa5780820151818401526020810190506128df565b50505050905090810190601f1680156129275780820380516001836020036101000a031916815260200191505b509250505060405180910390fd5b505b8373ffffffffffffffffffffffffffffffffffffffff168373ffffffffffffffffffffffffffffffffffffffff167f596caf56044b55fb8c4ca640089bbc2b63cae3e978b851f5745cbb7c5b288e02846040518082815260200191505060405180910390a350505050565b6000806129ad610fb8565b15156129bc5760009150612b96565b6129c46131dc565b9050600073ffffffffffffffffffffffffffffffffffffffff168173ffffffffffffffffffffffffffffffffffffffff161415612a045760009150612b96565b8073ffffffffffffffffffffffffffffffffffffffff1663fdef9106863087612a2c886141ff565b6040518563ffffffff167c0100000000000000000000000000000000000000000000000000000000028152600401808573ffffffffffffffffffffffffffffffffffffffff1673ffffffffffffffffffffffffffffffffffffffff1681526020018473ffffffffffffffffffffffffffffffffffffffff1673ffffffffffffffffffffffffffffffffffffffff168152602001836000191660001916815260200180602001828103825283818151815260200191508051906020019080838360005b83811015612b09578082015181840152602081019050612aee565b50505050905090810190601f168015612b365780820380516001836020036101000a031916815260200191505b5095505050505050602060405180830381600087803b158015612b5857600080fd5b505af1158015612b6c573d6000803e3d6000fd5b505050506040513d6020811015612b8257600080fd5b810190808051906020019092919050505091505b509392505050565b600080612ba96131dc565b73ffffffffffffffffffffffffffffffffffffffff1663be00bbd87fd6f028ca0e8edb4a8c9757ca4fdccab25fa1e0317da1188108f7d2dee14902fb6001027fddbcfd564f642ab5627cf68b9b7d374fb4f8a36e941a75d89c87998cef03bd616001026040518363ffffffff167c0100000000000000000000000000000000000000000000000000000000028152600401808360001916600019168152602001826000191660001916815260200192505050602060405180830381600087803b158015612c7557600080fd5b505af1158015612c89573d6000803e3d6000fd5b505050506040513d6020811015612c9f57600080fd5b810190808051906020019092919050505090508091505090565b7fb1f3f26f63ad27cd630737a426f990492f5c674208299d6fb23bb2b0733d3d6660010281565b600160089054906101000a900467ffffffffffffffff1681565b60405180807f4352454154455f564f5445535f524f4c450000000000000000000000000000008152506011019050604051809103902081565b6000612d7c8360405180807f4352454154455f564f5445535f524f4c4500000000000000000000000000000081525060110190506040518091039020612d77614216565b6129a2565b905092915050565b7fe7ab0252519cd959720b328191bed7fe61b8e25f77613877be7070646d12daf060010281565b60025481565b7f9b27b5f34c38cd0d691143dc6188f9aa90e75f5e87b428e9315e822224da1dd260010281565b7fb1f3f26f63ad27cd630737a426f990492f5c674208299d6fb23bb2b0733d3d66600102612e3733826000604051908082528060200260200182016040528015612e315781602001602082028038833980820191505090505b506129a2565b6040805190810160405280600f81526020017f4150505f415554485f4641494c45440000000000000000000000000000000000815250901515612f15576040517f08c379a00000000000000000000000000000000000000000000000000000000081526004018080602001828103825283818151815260200191508051906020019080838360005b83811015612eda578082015181840152602081019050612ebf565b50505050905090810190601f168015612f075780820380516001836020036101000a031916815260200191505b509250505060405180910390fd5b5081612f306301e13380612710613b9b90919063ffffffff16565b8110151515612fa7576040517f08c379a00000000000000000000000000000000000000000000000000000000081526004018080602001828103825260168152602001807f4e6f7420656e6f756768206d696e2062616c616e63650000000000000000000081525060200191505060405180910390fd5b826002819055507fbd5318adc778260bd213cc16f3ef06cfb4f729adb9309495fed0e10abc61c375836040518082815260200191505060405180910390a1505050565b60008160055481106040805190810160405280600e81526020017f564f54494e475f4e4f5f564f54450000000000000000000000000000000000008152509015156130d0576040517f08c379a00000000000000000000000000000000000000000000000000000000081526004018080602001828103825283818151815260200191508051906020019080838360005b8381101561309557808201518184015260208101905061307a565b50505050905090810190601f1680156130c25780820380516001836020036101000a031916815260200191505b509250505060405180910390fd5b506130da8361424e565b915050919050565b60008260055481106040805190810160405280600e81526020017f564f54494e475f4e4f5f564f54450000000000000000000000000000000000008152509015156131c8576040517f08c379a00000000000000000000000000000000000000000000000000000000081526004018080602001828103825283818151815260200191508051906020019080838360005b8381101561318d578082015181840152602081019050613172565b50505050905090810190601f1680156131ba5780820380516001836020036101000a031916815260200191505b509250505060405180910390fd5b506131d3848461438f565b91505092915050565b600061320e7f4172f0f7d2289153072b0a6ca36959e0cbe2efc3afe50fc81636caa96338137b600102600019166144e5565b905090565b600060405180807f4352454154455f564f5445535f524f4c4500000000000000000000000000000081525060110190506040518091039020613286338260006040519080825280602002602001820160405280156132805781602001602082028038833980820191505090505b506129a2565b6040805190810160405280600f81526020017f4150505f415554485f4641494c45440000000000000000000000000000000000815250901515613364576040517f08c379a00000000000000000000000000000000000000000000000000000000081526004018080602001828103825283818151815260200191508051906020019080838360005b8381101561332957808201518184015260208101905061330e565b50505050905090810190601f1680156133565780820380516001836020036101000a031916815260200191505b509250505060405180910390fd5b506133d686868080601f01602080910402602001604051908101604052809392919081815260200183838082843782019150505050505085858080601f0160208091040260200160405190810160405280939291908181526020018383808284378201915050505050506001806144f0565b915050949350505050565b6133eb3382612d33565b6040805190810160405280601681526020017f564f54494e475f43414e5f4e4f545f464f5257415244000000000000000000008152509015156134c9576040517f08c379a00000000000000000000000000000000000000000000000000000000081526004018080602001828103825283818151815260200191508051906020019080838360005b8381101561348e578082015181840152602081019050613473565b50505050905090810190601f1680156134bb5780820380516001836020036101000a031916815260200191505b509250505060405180910390fd5b506134e78160206040519081016040528060008152506001806144f0565b5050565b600160009054906101000a900467ffffffffffffffff1681565b60007fffffffffffffffffffffffffffffffffffffffffffffffffffffffffffffffff6135306121d9565b14905090565b60055481565b8260055481106040805190810160405280600e81526020017f564f54494e475f4e4f5f564f5445000000000000000000000000000000000000815250901515613620576040517f08c379a00000000000000000000000000000000000000000000000000000000081526004018080602001828103825283818151815260200191508051906020019080838360005b838110156135e55780820151818401526020810190506135ca565b50505050905090810190601f1680156136125780820380516001836020036101000a031916815260200191505b509250505060405180910390fd5b5061362b843361438f565b6040805190810160405280601381526020017f564f54494e475f43414e5f4e4f545f564f544500000000000000000000000000815250901515613709576040517f08c379a00000000000000000000000000000000000000000000000000000000081526004018080602001828103825283818151815260200191508051906020019080838360005b838110156136ce5780820151818401526020810190506136b3565b50505050905090810190601f1680156136fb5780820380516001836020036101000a031916815260200191505b509250505060405180910390fd5b5061371684843385614933565b50505050565b600060405180807f4352454154455f564f5445535f524f4c450000000000000000000000000000008152506011019050604051809103902061378f338260006040519080825280602002602001820160405280156137895781602001602082028038833980820191505090505b506129a2565b6040805190810160405280600f81526020017f4150505f415554485f4641494c4544000000000000000000000000000000000081525090151561386d576040517f08c379a00000000000000000000000000000000000000000000000000000000081526004018080602001828103825283818151815260200191508051906020019080838360005b83811015613832578082015181840152602081019050613817565b50505050905090810190601f16801561385f5780820380516001836020036101000a031916815260200191505b509250505060405180910390fd5b506138de88888080601f01602080910402602001604051908101604052809392919081815260200183838082843782019150505050505087878080601f01602080910402602001604051908101604052809392919081815260200183838082843782019150505050505086866144f0565b9150509695505050505050565b8060055481106040805190810160405280600e81526020017f564f54494e475f4e4f5f564f54450000000000000000000000000000000000008152509015156139cf576040517f08c379a00000000000000000000000000000000000000000000000000000000081526004018080602001828103825283818151815260200191508051906020019080838360005b83811015613994578082015181840152602081019050613979565b50505050905090810190601f1680156139c15780820380516001836020036101000a031916815260200191505b509250505060405180910390fd5b506139d982614d4c565b5050565b600060149054906101000a900467ffffffffffffffff1681565b6000809054906101000a900473ffffffffffffffffffffffffffffffffffffffff1681565b670de0b6b3a764000081565b60006001905090565b60006002546000809054906101000a900473ffffffffffffffffffffffffffffffffffffffff1673ffffffffffffffffffffffffffffffffffffffff166370a08231336040518263ffffffff167c0100000000000000000000000000000000000000000000000000000000028152600401808273ffffffffffffffffffffffffffffffffffffffff1673ffffffffffffffffffffffffffffffffffffffff168152602001915050602060405180830381600087803b158015613af257600080fd5b505af1158015613b06573d6000803e3d6000fd5b505050506040513d6020811015613b1c57600080fd5b810190808051906020019092919050505010158015613b8e5750600660003373ffffffffffffffffffffffffffffffffffffffff1673ffffffffffffffffffffffffffffffffffffffff16815260200190815260200160002054613b8b60035442614e4090919063ffffffff16565b10155b905090565b600043905090565b6000806000841415613bb05760009150613ca6565b8284029050828482811515613bc157fe5b04146040805190810160405280601181526020017f4d4154485f4d554c5f4f564552464c4f57000000000000000000000000000000815250901515613ca1576040517f08c379a00000000000000000000000000000000000000000000000000000000081526004018080602001828103825283818151815260200191508051906020019080838360005b83811015613c66578082015181840152602081019050613c4b565b50505050905090810190601f168015613c935780820380516001836020036101000a031916815260200191505b509250505060405180910390fd5b508091505b5092915050565b6000613cb76121d9565b146040805190810160405280601881526020017f494e49545f414c52454144595f494e495449414c495a45440000000000000000815250901515613d96576040517f08c379a00000000000000000000000000000000000000000000000000000000081526004018080602001828103825283818151815260200191508051906020019080838360005b83811015613d5b578082015181840152602081019050613d40565b50505050905090810190601f168015613d885780820380516001836020036101000a031916815260200191505b509250505060405180910390fd5b50613dd8613da2613b93565b7febb05b386a8d34882b8711d156f463690983dc47815980fb82aeeff1aa43579e60010260001916614f3590919063ffffffff16565b565b6000613e27600160089054906101000a900467ffffffffffffffff168360000160019054906101000a900467ffffffffffffffff1667ffffffffffffffff16614f3c90919063ffffffff16565b67ffffffffffffffff16613e39615045565b67ffffffffffffffff16108015613e5f57508160000160009054906101000a900460ff16155b9050919050565b60606002604051908082528060200260200182016040528015613e985781602001602082028038833980820191505090505b50905082816000815181101515613eab57fe5b906020019060200201818152505081816001815181101515613ec957fe5b906020019060200201818152505092915050565b600081549050919050565b600081549050919050565b600080600073ffffffffffffffffffffffffffffffffffffffff168373ffffffffffffffffffffffffffffffffffffffff161415613f345760009150613f3f565b823b90506000811191505b50919050565b600060606000808573ffffffffffffffffffffffffffffffffffffffff166370a0823190507c01000000000000000000000000000000000000000000000000000000000285604051602401808273ffffffffffffffffffffffffffffffffffffffff1673ffffffffffffffffffffffffffffffffffffffff168152602001915050604051602081830303815290604052907bffffffffffffffffffffffffffffffffffffffffffffffffffffffff19166020820180517bffffffffffffffffffffffffffffffffffffffffffffffffffffffff8381831617835250505050925061402f868461505c565b91509150816040805190810160405280601c81526020017f534146455f4552435f32305f42414c414e43455f524556455254454400000000815250901515614112576040517f08c379a00000000000000000000000000000000000000000000000000000000081526004018080602001828103825283818151815260200191508051906020019080838360005b838110156140d75780820151818401526020810190506140bc565b50505050905090810190601f1680156141045780820380516001836020036101000a031916815260200191505b509250505060405180910390fd5b5080935050505092915050565b6000606063a9059cbb7c0100000000000000000000000000000000000000000000000000000000028484604051602401808373ffffffffffffffffffffffffffffffffffffffff1673ffffffffffffffffffffffffffffffffffffffff16815260200182815260200192505050604051602081830303815290604052907bffffffffffffffffffffffffffffffffffffffffffffffffffffffff19166020820180517bffffffffffffffffffffffffffffffffffffffffffffffffffffffff838183161783525050505090506141f58582615091565b9150509392505050565b606060006020835102905082915080825250919050565b606060006040519080825280602002602001820160405280156142485781602001602082028038833980820191505090505b50905090565b60008060006004600085815260200190815260200160002091508160000160009054906101000a900460ff16156142885760009250614388565b6142bd826002015483600401548460000160119054906101000a900467ffffffffffffffff1667ffffffffffffffff166150e3565b156142cb5760019250614388565b6142d482613dda565b156142e25760009250614388565b6142fd8260030154836002015461513890919063ffffffff16565b90506143308260020154828460000160119054906101000a900467ffffffffffffffff1667ffffffffffffffff166150e3565b151561433f5760009250614388565b614374826002015483600401548460010160009054906101000a900467ffffffffffffffff1667ffffffffffffffff166150e3565b15156143835760009250614388565b600192505b5050919050565b6000806004600085815260200190815260200160002090506143b081613dda565b80156144dc575060008060009054906101000a900473ffffffffffffffffffffffffffffffffffffffff1673ffffffffffffffffffffffffffffffffffffffff16634ee2cd7e858460000160099054906101000a900467ffffffffffffffff166040518363ffffffff167c0100000000000000000000000000000000000000000000000000000000028152600401808373ffffffffffffffffffffffffffffffffffffffff1673ffffffffffffffffffffffffffffffffffffffff1681526020018267ffffffffffffffff16815260200192505050602060405180830381600087803b15801561449f57600080fd5b505af11580156144b3573d6000803e3d6000fd5b505050506040513d60208110156144c957600080fd5b8101908080519060200190929190505050115b91505092915050565b600081549050919050565b6000806000806144fe613a31565b151561450957600080fd5b600161451361522d565b0392506000809054906101000a900473ffffffffffffffffffffffffffffffffffffffff1673ffffffffffffffffffffffffffffffffffffffff1663981b24d0846040518263ffffffff167c0100000000000000000000000000000000000000000000000000000000028152600401808267ffffffffffffffff168152602001915050602060405180830381600087803b1580156145b057600080fd5b505af11580156145c4573d6000803e3d6000fd5b505050506040513d60208110156145da57600080fd5b81019080805190602001909291905050509150600082116040805190810160405280601681526020017f564f54494e475f4e4f5f564f54494e475f504f574552000000000000000000008152509015156146cf576040517f08c379a00000000000000000000000000000000000000000000000000000000081526004018080602001828103825283818151815260200191508051906020019080838360005b83811015614694578082015181840152602081019050614679565b50505050905090810190601f1680156146c15780820380516001836020036101000a031916815260200191505b509250505060405180910390fd5b5060056000815480929190600101919050559350600460008581526020019081526020016000209050614700615045565b8160000160016101000a81548167ffffffffffffffff021916908367ffffffffffffffff160217905550828160000160096101000a81548167ffffffffffffffff021916908367ffffffffffffffff160217905550600060149054906101000a900467ffffffffffffffff168160000160116101000a81548167ffffffffffffffff021916908367ffffffffffffffff160217905550600160009054906101000a900467ffffffffffffffff168160010160006101000a81548167ffffffffffffffff021916908367ffffffffffffffff160217905550818160040181905550878160050190805190602001906147f8929190615f18565b503373ffffffffffffffffffffffffffffffffffffffff16847f4d72fe0577a3a3f7da968d7b892779dde102519c25527b29cf7054f245c791b9896040518080602001828103825283818151815260200191508051906020019080838360005b83811015614873578082015181840152602081019050614858565b50505050905090810190601f1680156148a05780820380516001836020036101000a031916815260200191505b509250505060405180910390a36148b5615045565b67ffffffffffffffff16600660003373ffffffffffffffffffffffffffffffffffffffff1673ffffffffffffffffffffffffffffffffffffffff168152602001908152602001600020819055508580156149155750614914843361438f565b5b15614928576149278460013388614933565b5b505050949350505050565b60008060006004600088815260200190815260200160002092508260060160008673ffffffffffffffffffffffffffffffffffffffff1673ffffffffffffffffffffffffffffffffffffffff16815260200190815260200160002060009054906101000a900460ff169150600060028111156149ab57fe5b8260028111156149b757fe5b141515614a2c576040517f08c379a00000000000000000000000000000000000000000000000000000000081526004018080602001828103825260128152602001807f43616e2774206368616e676520766f746573000000000000000000000000000081525060200191505060405180910390fd5b6000809054906101000a900473ffffffffffffffffffffffffffffffffffffffff1673ffffffffffffffffffffffffffffffffffffffff16634ee2cd7e868560000160099054906101000a900467ffffffffffffffff166040518363ffffffff167c0100000000000000000000000000000000000000000000000000000000028152600401808373ffffffffffffffffffffffffffffffffffffffff1673ffffffffffffffffffffffffffffffffffffffff1681526020018267ffffffffffffffff16815260200192505050602060405180830381600087803b158015614b1257600080fd5b505af1158015614b26573d6000803e3d6000fd5b505050506040513d6020811015614b3c57600080fd5b81019080805190602001909291905050509050614c0b600160089054906101000a900467ffffffffffffffff1667ffffffffffffffff16614bfd614be4614b81615045565b614bcc600160089054906101000a900467ffffffffffffffff168960000160019054906101000a900467ffffffffffffffff1667ffffffffffffffff16614f3c90919063ffffffff16565b67ffffffffffffffff1661524490919063ffffffff16565b67ffffffffffffffff1684613b9b90919063ffffffff16565b61534d90919063ffffffff16565b90508515614c3757614c2a81846002015461513890919063ffffffff16565b8360020181905550614c57565b614c4e81846003015461513890919063ffffffff16565b83600301819055505b85614c63576002614c66565b60015b8360060160008773ffffffffffffffffffffffffffffffffffffffff1673ffffffffffffffffffffffffffffffffffffffff16815260200190815260200160002060006101000a81548160ff02191690836002811115614cc257fe5b02179055508473ffffffffffffffffffffffffffffffffffffffff16877fb34ee265e3d4f5ec4e8b52d59b2a9be8fceca2f274ebc080d8fba797fea9391f888460405180831515151581526020018281526020019250505060405180910390a3838015614d345750614d338761424e565b5b15614d4357614d428761544b565b5b50505050505050565b614d558161424e565b6040805190810160405280601681526020017f564f54494e475f43414e5f4e4f545f4558454355544500000000000000000000815250901515614e33576040517f08c379a00000000000000000000000000000000000000000000000000000000081526004018080602001828103825283818151815260200191508051906020019080838360005b83811015614df8578082015181840152602081019050614ddd565b50505050905090810190601f168015614e255780820380516001836020036101000a031916815260200191505b509250505060405180910390fd5b50614e3d8161544b565b50565b600080838311156040805190810160405280601281526020017f4d4154485f5355425f554e444552464c4f570000000000000000000000000000815250901515614f25576040517f08c379a00000000000000000000000000000000000000000000000000000000081526004018080602001828103825283818151815260200191508051906020019080838360005b83811015614eea578082015181840152602081019050614ecf565b50505050905090810190601f168015614f175780820380516001836020036101000a031916815260200191505b509250505060405180910390fd5b5082840390508091505092915050565b8082555050565b60008082840190508367ffffffffffffffff168167ffffffffffffffff1610156040805190810160405280601381526020017f4d41544836345f4144445f4f564552464c4f570000000000000000000000000081525090151561503a576040517f08c379a00000000000000000000000000000000000000000000000000000000081526004018080602001828103825283818151815260200191508051906020019080838360005b83811015614fff578082015181840152602081019050614fe4565b50505050905090810190601f16801561502c5780820380516001836020036101000a031916815260200191505b509250505060405180910390fd5b508091505092915050565b60006150576150526155c2565b6155ca565b905090565b6000806000806040516020818751602089018a5afa9250600083111561508157805191505b5081819350935050509250929050565b6000806040516020818551602087016000895af160008111156150d7573d600081146150c457602081146150cd576150d5565b600193506150d5565b600183511493505b505b50508091505092915050565b60008060008414156150f85760009150615130565b8361511e670de0b6b3a764000067ffffffffffffffff1687613b9b90919063ffffffff16565b81151561512757fe5b04905082811191505b509392505050565b6000808284019050838110156040805190810160405280601181526020017f4d4154485f4144445f4f564552464c4f57000000000000000000000000000000815250901515615222576040517f08c379a00000000000000000000000000000000000000000000000000000000081526004018080602001828103825283818151815260200191508051906020019080838360005b838110156151e75780820151818401526020810190506151cc565b50505050905090810190601f1680156152145780820380516001836020036101000a031916815260200191505b509250505060405180910390fd5b508091505092915050565b600061523f61523a613b93565b6155ca565b905090565b6000808367ffffffffffffffff168367ffffffffffffffff1611156040805190810160405280601481526020017f4d41544836345f5355425f554e444552464c4f5700000000000000000000000081525090151561533d576040517f08c379a00000000000000000000000000000000000000000000000000000000081526004018080602001828103825283818151815260200191508051906020019080838360005b838110156153025780820151818401526020810190506152e7565b50505050905090810190601f16801561532f5780820380516001836020036101000a031916815260200191505b509250505060405180910390fd5b5082840390508091505092915050565b600080600083116040805190810160405280600d81526020017f4d4154485f4449565f5a45524f00000000000000000000000000000000000000815250901515615432576040517f08c379a00000000000000000000000000000000000000000000000000000000081526004018080602001828103825283818151815260200191508051906020019080838360005b838110156153f75780820151818401526020810190506153dc565b50505050905090810190601f1680156154245780820380516001836020036101000a031916815260200191505b509250505060405180910390fd5b50828481151561543e57fe5b0490508091505092915050565b6000606060046000848152602001908152602001600020915060018260000160006101000a81548160ff02191690831515021790555060006040519080825280601f01601f1916602001820160405280156154b55781602001602082028038833980820191505090505b50905061558f826005018054600181600116156101000203166002900480601f0160208091040260200160405190810160405280929190818152602001828054600181600116156101000203166002900480156155535780601f1061552857610100808354040283529160200191615553565b820191906000526020600020905b81548152906001019060200180831161553657829003601f168201915b50505050508260006040519080825280602002602001820160405280156155895781602001602082028038833980820191505090505b506156e1565b50827fbf8e2b108bb7c980e08903a8a46527699d5e84905a082d56dacb4150725c8cab60405160405180910390a2505050565b600042905090565b60007fffffffffffffffffffffffffffffffffffffffffffffffffffffffffffffffff67ffffffffffffffff168211156040805190810160405280601581526020017f55494e5436345f4e554d4245525f544f4f5f42494700000000000000000000008152509015156156d8576040517f08c379a00000000000000000000000000000000000000000000000000000000081526004018080602001828103825283818151815260200191508051906020019080838360005b8381101561569d578082015181840152602081019050615682565b50505050905090810190601f1680156156ca5780820380516001836020036101000a031916815260200191505b509250505060405180910390fd5b50819050919050565b60606000806060806156f1610fb8565b6040805190810160405280601481526020017f494e49545f4e4f545f494e495449414c495a45440000000000000000000000008152509015156157cf576040517f08c379a00000000000000000000000000000000000000000000000000000000081526004018080602001828103825283818151815260200191508051906020019080838360005b83811015615794578082015181840152602081019050615779565b50505050905090810190601f1680156157c15780820380516001836020036101000a031916815260200191505b509250505060405180910390fd5b506000806157db6131dc565b91506157e56121a2565b90506157f08a6114e4565b9550600073ffffffffffffffffffffffffffffffffffffffff168673ffffffffffffffffffffffffffffffffffffffff1614156040805190810160405280601b81526020017f45564d52554e5f4558454355544f525f554e415641494c41424c450000000000815250901515615901576040517f08c379a00000000000000000000000000000000000000000000000000000000081526004018080602001828103825283818151815260200191508051906020019080838360005b838110156158c65780820151818401526020810190506158ab565b50505050905090810190601f1680156158f35780820380516001836020036101000a031916815260200191505b509250505060405180910390fd5b508573ffffffffffffffffffffffffffffffffffffffff1663279cea3590507c0100000000000000000000000000000000000000000000000000000000029450848a8a8a60405160240180806020018060200180602001848103845287818151815260200191508051906020019080838360005b83811015615990578082015181840152602081019050615975565b50505050905090810190601f1680156159bd5780820380516001836020036101000a031916815260200191505b50848103835286818151815260200191508051906020019080838360005b838110156159f65780820151818401526020810190506159db565b50505050905090810190601f168015615a235780820380516001836020036101000a031916815260200191505b50848103825285818151815260200191508051906020019060200280838360005b83811015615a5f578082015181840152602081019050615a44565b505050509050019650505050505050604051602081830303815290604052907bffffffffffffffffffffffffffffffffffffffffffffffffffffffff19166020820180517bffffffffffffffffffffffffffffffffffffffffffffffffffffffff83818316178352505050509350600080855160208701895af460405193508060008114615b6a57603f3d1160008114615b085760203d03806020883e80870160405250615b64565b7f08c379a000000000000000000000000000000000000000000000000000000000865260206004870152601e60248701527f45564d52554e5f4558454355544f525f494e56414c49445f52455455524e00006044870152606486fd5b50615b73565b3d6000863e3d85fd5b50508573ffffffffffffffffffffffffffffffffffffffff167f5229a5dba83a54ae8cb5b51bdd6de9474cacbe9dd332f5185f3a4f4f2e3f4ad98b8b8660405180806020018060200180602001848103845287818151815260200191508051906020019080838360005b83811015615bf8578082015181840152602081019050615bdd565b50505050905090810190601f168015615c255780820380516001836020036101000a031916815260200191505b50848103835286818151815260200191508051906020019080838360005b83811015615c5e578082015181840152602081019050615c43565b50505050905090810190601f168015615c8b5780820380516001836020036101000a031916815260200191505b50848103825285818151815260200191508051906020019080838360005b83811015615cc4578082015181840152602081019050615ca9565b50505050905090810190601f168015615cf15780820380516001836020036101000a031916815260200191505b50965050505050505060405180910390a28296508173ffffffffffffffffffffffffffffffffffffffff16615d246131dc565b73ffffffffffffffffffffffffffffffffffffffff16146040805190810160405280601f81526020017f45564d52554e5f50524f5445435445445f53544154455f4d4f44494649454400815250901515615e19576040517f08c379a00000000000000000000000000000000000000000000000000000000081526004018080602001828103825283818151815260200191508051906020019080838360005b83811015615dde578082015181840152602081019050615dc3565b50505050905090810190601f168015615e0b5780820380516001836020036101000a031916815260200191505b509250505060405180910390fd5b508060001916615e276121a2565b60001916146040805190810160405280601f81526020017f45564d52554e5f50524f5445435445445f53544154455f4d4f44494649454400815250901515615f0a576040517f08c379a00000000000000000000000000000000000000000000000000000000081526004018080602001828103825283818151815260200191508051906020019080838360005b83811015615ecf578082015181840152602081019050615eb4565b50505050905090810190601f168015615efc5780820380516001836020036101000a031916815260200191505b509250505060405180910390fd5b505050505050509392505050565b828054600181600116156101000203166002900490600052602060002090601f016020900481019282601f10615f5957805160ff1916838001178555615f87565b82800160010185558215615f87579182015b82811115615f86578251825591602001919060010190615f6b565b5b509050615f949190615f98565b5090565b615fba91905b80821115615fb6576000816000905550600101615f9e565b5090565b905600a165627a7a72305820d857eb621ab805497a7813b3d2eddaa32d3720479f44f75ca6e9989a80368be00029",
  "source": "/*\n * SPDX-License-Identitifer:    GPL-3.0-or-later\n */\n\npragma solidity 0.4.24;\n\nimport \"@aragon/os/contracts/apps/AragonApp.sol\";\nimport \"@aragon/os/contracts/common/IForwarder.sol\";\n\nimport \"@aragon/os/contracts/lib/math/SafeMath.sol\";\nimport \"@aragon/os/contracts/lib/math/SafeMath64.sol\";\n\nimport \"@aragon/apps-shared-minime/contracts/MiniMeToken.sol\";\n\n\ncontract Voting is IForwarder, AragonApp {\n    using SafeMath for uint256;\n    using SafeMath64 for uint64;\n\n    bytes32 public constant CREATE_VOTES_ROLE = keccak256(\"CREATE_VOTES_ROLE\");\n    bytes32 public constant MODIFY_SUPPORT_ROLE = keccak256(\"MODIFY_SUPPORT_ROLE\");\n    bytes32 public constant MODIFY_QUORUM_ROLE = keccak256(\"MODIFY_QUORUM_ROLE\");\n\n    bytes32 public constant SET_TOKEN_ROLE = 0x9b27b5f34c38cd0d691143dc6188f9aa90e75f5e87b428e9315e822224da1dd2; //keccak256(\"SET_TOKEN_ROLE\")\n    bytes32 public constant SET_MIN_BALANCE_ROLE = 0xb1f3f26f63ad27cd630737a426f990492f5c674208299d6fb23bb2b0733d3d66; //keccak256(\"SET_MIN_BALANCE_ROLE\")\n    bytes32 public constant SET_MIN_TIME_ROLE = 0xe7ab0252519cd959720b328191bed7fe61b8e25f77613877be7070646d12daf0; //keccak256(\"SET_MIN_TIME_ROLE\")\n\n    uint64 public constant PCT_BASE = 10 ** 18; // 0% = 0; 1% = 10^16; 100% = 10^18\n\n    string private constant ERROR_NO_VOTE = \"VOTING_NO_VOTE\";\n    string private constant ERROR_INIT_PCTS = \"VOTING_INIT_PCTS\";\n    string private constant ERROR_CHANGE_SUPPORT_PCTS = \"VOTING_CHANGE_SUPPORT_PCTS\";\n    string private constant ERROR_CHANGE_QUORUM_PCTS = \"VOTING_CHANGE_QUORUM_PCTS\";\n    string private constant ERROR_INIT_SUPPORT_TOO_BIG = \"VOTING_INIT_SUPPORT_TOO_BIG\";\n    string private constant ERROR_CHANGE_SUPPORT_TOO_BIG = \"VOTING_CHANGE_SUPP_TOO_BIG\";\n    string private constant ERROR_CAN_NOT_VOTE = \"VOTING_CAN_NOT_VOTE\";\n    string private constant ERROR_CAN_NOT_EXECUTE = \"VOTING_CAN_NOT_EXECUTE\";\n    string private constant ERROR_CAN_NOT_FORWARD = \"VOTING_CAN_NOT_FORWARD\";\n    string private constant ERROR_NO_VOTING_POWER = \"VOTING_NO_VOTING_POWER\";\n\n    enum VoterState { Absent, Yea, Nay }\n\n    struct Vote {\n        bool executed;\n        uint64 startDate;\n        uint64 snapshotBlock;\n        uint64 supportRequiredPct;\n        uint64 minAcceptQuorumPct;\n        uint256 yea;\n        uint256 nay;\n        uint256 votingPower;\n        bytes executionScript;\n        mapping (address => VoterState) voters;\n    }\n\n    MiniMeToken public token;\n    uint64 public supportRequiredPct;\n    uint64 public minAcceptQuorumPct;\n    uint64 public voteTime;\n\n    uint256 public minBalance;\n    uint256 public minTime;\n\n    // We are mimicing an array, we use a mapping instead to make app upgrade more graceful\n    mapping (uint256 => Vote) internal votes;\n    uint256 public votesLength;\n\n    mapping(address => uint256) public lastCreateVoteTimes;\n\n    event StartVote(uint256 indexed voteId, address indexed creator, string metadata);\n    event CastVote(uint256 indexed voteId, address indexed voter, bool supports, uint256 stake);\n    event ExecuteVote(uint256 indexed voteId);\n    event ChangeSupportRequired(uint64 supportRequiredPct);\n    event ChangeMinQuorum(uint64 minAcceptQuorumPct);\n\n    event MinimumBalanceSet(uint256 minBalance);\n    event MinimumTimeSet(uint256 minTime);\n\n    modifier voteExists(uint256 _voteId) {\n        require(_voteId < votesLength, ERROR_NO_VOTE);\n        _;\n    }\n\n    modifier minBalanceCheck(uint256 _minBalance) {\n        //_minBalance to be at least the equivalent of 10k locked for a year\n        require(_minBalance >= uint256(10000).mul(31536000), \"Not enough min balance\");\n        _;\n    }\n\n    modifier minTimeCheck(uint256 _minTime) {\n        require(_minTime >= 43200 && _minTime <= 1209600, \"Min time can't be less than half a day and more than 2 weeks\");\n        _;\n    }\n\n    function constructor() public {\n        assert(SET_TOKEN_ROLE == keccak256(\"SET_TOKEN_ROLE\"));\n        assert(SET_MIN_BALANCE_ROLE == keccak256(\"SET_MIN_BALANCE_ROLE\"));\n        assert(SET_MIN_TIME_ROLE == keccak256(\"SET_MIN_TIME_ROLE\"));\n    }\n\n    /**\n    * @notice Initialize Voting app with `_token.symbol(): string` for governance, minimum support of `@formatPct(_supportRequiredPct)`%, minimum acceptance quorum of `@formatPct(_minAcceptQuorumPct)`%, and a voting duration of `@transformTime(_voteTime)`\n    * @param _token MiniMeToken Address that will be used as governance token\n    * @param _supportRequiredPct Percentage of yeas in casted votes for a vote to succeed (expressed as a percentage of 10^18; eg. 10^16 = 1%, 10^18 = 100%)\n    * @param _minAcceptQuorumPct Percentage of yeas in total possible votes for a vote to succeed (expressed as a percentage of 10^18; eg. 10^16 = 1%, 10^18 = 100%)\n    * @param _voteTime Seconds that a vote will be open for token holders to vote (unless enough yeas or nays have been cast to make an early decision)\n    */\n    function initialize(MiniMeToken _token, \n        uint64 _supportRequiredPct, \n        uint64 _minAcceptQuorumPct, \n        uint64 _voteTime,\n        uint256 _minBalance,\n        uint256 _minTime\n    ) external onlyInit minBalanceCheck(_minBalance) minTimeCheck(_minTime) {\n        initialized();\n\n        require(_minAcceptQuorumPct <= _supportRequiredPct, ERROR_INIT_PCTS);\n        require(_supportRequiredPct < PCT_BASE, ERROR_INIT_SUPPORT_TOO_BIG);\n\n        token = _token;\n        supportRequiredPct = _supportRequiredPct;\n        minAcceptQuorumPct = _minAcceptQuorumPct;\n        voteTime = _voteTime;\n\n        minBalance = _minBalance;\n        minTime = _minTime;\n    }\n\n    /**\n    * @notice Change required support to `@formatPct(_supportRequiredPct)`%\n    * @param _supportRequiredPct New required support\n    */\n    function changeSupportRequiredPct(uint64 _supportRequiredPct)\n        external\n        authP(MODIFY_SUPPORT_ROLE, arr(uint256(_supportRequiredPct), uint256(supportRequiredPct)))\n    {\n        require(minAcceptQuorumPct <= _supportRequiredPct, ERROR_CHANGE_SUPPORT_PCTS);\n        require(_supportRequiredPct < PCT_BASE, ERROR_CHANGE_SUPPORT_TOO_BIG);\n        supportRequiredPct = _supportRequiredPct;\n\n        emit ChangeSupportRequired(_supportRequiredPct);\n    }\n\n    /**\n    * @notice Change minimum acceptance quorum to `@formatPct(_minAcceptQuorumPct)`%\n    * @param _minAcceptQuorumPct New acceptance quorum\n    */\n    function changeMinAcceptQuorumPct(uint64 _minAcceptQuorumPct)\n        external\n        authP(MODIFY_QUORUM_ROLE, arr(uint256(_minAcceptQuorumPct), uint256(minAcceptQuorumPct)))\n    {\n        require(_minAcceptQuorumPct <= supportRequiredPct, ERROR_CHANGE_QUORUM_PCTS);\n        minAcceptQuorumPct = _minAcceptQuorumPct;\n\n        emit ChangeMinQuorum(_minAcceptQuorumPct);\n    }\n\n    function setMinBalance(uint256 _minBalance) external auth(SET_MIN_BALANCE_ROLE) minBalanceCheck(_minBalance) {\n        //min balance can't be set to lower than 10k * 1 year\n        minBalance = _minBalance;\n\n        emit MinimumBalanceSet(_minBalance);\n    }\n\n    function setMinTime(uint256 _minTime) external auth(SET_MIN_TIME_ROLE) minTimeCheck(_minTime) {\n        //min time can't be less than half a day and more than 2 weeks\n        minTime = _minTime;\n\n        emit MinimumTimeSet(_minTime);\n    }\n\n    /**\n    * @notice Create a new vote about \"`_metadata`\"\n    * @param _executionScript EVM script to be executed on approval\n    * @param _metadata Vote metadata\n    * @return voteId Id for newly created vote\n    */\n    function newVote(bytes _executionScript, string _metadata) external auth(CREATE_VOTES_ROLE) returns (uint256 voteId) {\n        return _newVote(_executionScript, _metadata, true, true);\n    }\n\n    /**\n    * @notice Create a new vote about \"`_metadata`\"\n    * @param _executionScript EVM script to be executed on approval\n    * @param _metadata Vote metadata\n    * @param _castVote Whether to also cast newly created vote\n    * @param _executesIfDecided Whether to also immediately execute newly created vote if decided\n    * @return voteId id for newly created vote\n    */\n    function newVote(bytes _executionScript, string _metadata, bool _castVote, bool _executesIfDecided)\n        external\n        auth(CREATE_VOTES_ROLE)\n        returns (uint256 voteId)\n    {\n        return _newVote(_executionScript, _metadata, _castVote, _executesIfDecided);\n    }\n\n    /**\n    * @notice Vote `_supports ? 'yes' : 'no'` in vote #`_voteId`\n    * @dev Initialization check is implicitly provided by `voteExists()` as new votes can only be\n    *      created via `newVote(),` which requires initialization\n    * @param _voteId Id for vote\n    * @param _supports Whether voter supports the vote\n    * @param _executesIfDecided Whether the vote should execute its action if it becomes decided\n    */\n    function vote(uint256 _voteId, bool _supports, bool _executesIfDecided) external voteExists(_voteId) {\n        require(_canVote(_voteId, msg.sender), ERROR_CAN_NOT_VOTE);\n        _vote(_voteId, _supports, msg.sender, _executesIfDecided);\n    }\n\n    /**\n    * @notice Execute vote #`_voteId`\n    * @dev Initialization check is implicitly provided by `voteExists()` as new votes can only be\n    *      created via `newVote(),` which requires initialization\n    * @param _voteId Id for vote\n    */\n    function executeVote(uint256 _voteId) external voteExists(_voteId) {\n        _executeVote(_voteId);\n    }\n\n    // Forwarding fns\n\n    /**\n    * @notice Tells whether the Voting app is a forwarder or not\n    * @dev IForwarder interface conformance\n    * @return Always true\n    */\n    function isForwarder() external pure returns (bool) {\n        return true;\n    }\n\n    /**\n    * @notice Creates a vote to execute the desired action, and casts a support vote if possible\n    * @dev IForwarder interface conformance\n    * @param _evmScript Start vote with script\n    */\n    function forward(bytes _evmScript) public {\n        require(canForward(msg.sender, _evmScript), ERROR_CAN_NOT_FORWARD);\n        _newVote(_evmScript, \"\", true, true);\n    }\n\n    /**\n    * @notice Tells whether `_sender` can forward actions or not\n    * @dev IForwarder interface conformance\n    * @param _sender Address of the account intending to forward an action\n    * @return True if the given address can create votes, false otherwise\n    */\n    function canForward(address _sender, bytes) public view returns (bool) {\n        // Note that `canPerform()` implicitly does an initialization check itself\n        return canPerform(_sender, CREATE_VOTES_ROLE, arr());\n    }\n\n    // Getter fns\n\n    /**\n    * @notice Tells whether a vote #`_voteId` can be executed or not\n    * @dev Initialization check is implicitly provided by `voteExists()` as new votes can only be\n    *      created via `newVote(),` which requires initialization\n    * @return True if the given vote can be executed, false otherwise\n    */\n    function canExecute(uint256 _voteId) public view voteExists(_voteId) returns (bool) {\n        return _canExecute(_voteId);\n    }\n\n    /**\n    * @notice Tells whether `_sender` can participate in the vote #`_voteId` or not\n    * @dev Initialization check is implicitly provided by `voteExists()` as new votes can only be\n    *      created via `newVote(),` which requires initialization\n    * @return True if the given voter can participate a certain vote, false otherwise\n    */\n    function canVote(uint256 _voteId, address _voter) public view voteExists(_voteId) returns (bool) {\n        return _canVote(_voteId, _voter);\n    }\n\n    function canCreateNewVote() public returns(bool) {\n        return token.balanceOf(msg.sender) >= minBalance &&  block.timestamp.sub(minTime) >= lastCreateVoteTimes[msg.sender];\n    }\n\n    /**\n    * @dev Return all information for a vote by its ID\n    * @param _voteId Vote identifier\n    * @return Vote open status\n    * @return Vote executed status\n    * @return Vote start date\n    * @return Vote snapshot block\n    * @return Vote support required\n    * @return Vote minimum acceptance quorum\n    * @return Vote yeas amount\n    * @return Vote nays amount\n    * @return Vote power\n    * @return Vote script\n    */\n    function getVote(uint256 _voteId)\n        public\n        view\n        voteExists(_voteId)\n        returns (\n            bool open,\n            bool executed,\n            uint64 startDate,\n            uint64 snapshotBlock,\n            uint64 supportRequired,\n            uint64 minAcceptQuorum,\n            uint256 yea,\n            uint256 nay,\n            uint256 votingPower,\n            bytes script\n        )\n    {\n        Vote storage vote_ = votes[_voteId];\n\n        open = _isVoteOpen(vote_);\n        executed = vote_.executed;\n        startDate = vote_.startDate;\n        snapshotBlock = vote_.snapshotBlock;\n        supportRequired = vote_.supportRequiredPct;\n        minAcceptQuorum = vote_.minAcceptQuorumPct;\n        yea = vote_.yea;\n        nay = vote_.nay;\n        votingPower = vote_.votingPower;\n        script = vote_.executionScript;\n    }\n\n    /**\n    * @dev Return the state of a voter for a given vote by its ID\n    * @param _voteId Vote identifier\n    * @return VoterState of the requested voter for a certain vote\n    */\n    function getVoterState(uint256 _voteId, address _voter) public view voteExists(_voteId) returns (VoterState) {\n        return votes[_voteId].voters[_voter];\n    }\n\n    // Internal fns\n\n    /**\n    * @dev Internal function to create a new vote\n    * @return voteId id for newly created vote\n    */\n    function _newVote(bytes _executionScript, string _metadata, bool _castVote, bool _executesIfDecided) internal returns (uint256 voteId) {\n        require(canCreateNewVote());\n        uint64 snapshotBlock = getBlockNumber64() - 1; // avoid double voting in this very block\n        uint256 votingPower = token.totalSupplyAt(snapshotBlock);\n        require(votingPower > 0, ERROR_NO_VOTING_POWER);\n\n        voteId = votesLength++;\n\n        Vote storage vote_ = votes[voteId];\n        vote_.startDate = getTimestamp64();\n        vote_.snapshotBlock = snapshotBlock;\n        vote_.supportRequiredPct = supportRequiredPct;\n        vote_.minAcceptQuorumPct = minAcceptQuorumPct;\n        vote_.votingPower = votingPower;\n        vote_.executionScript = _executionScript;\n\n        emit StartVote(voteId, msg.sender, _metadata);\n\n        lastCreateVoteTimes[msg.sender] = getTimestamp64();\n\n        if (_castVote && _canVote(voteId, msg.sender)) {\n            _vote(voteId, true, msg.sender, _executesIfDecided);\n        }\n    }\n\n    /**\n    * @dev Internal function to cast a vote. It assumes the queried vote exists.\n    */\n    function _vote(uint256 _voteId, bool _supports, address _voter, bool _executesIfDecided) internal {\n        Vote storage vote_ = votes[_voteId];\n\n        VoterState state = vote_.voters[_voter];\n        require(state == VoterState.Absent, \"Can't change votes\");\n        // This could re-enter, though we can assume the governance token is not malicious\n        uint256 voterStake = token.balanceOfAt(_voter, vote_.snapshotBlock);\n        voterStake = voterStake.mul(vote_.startDate.add(voteTime).sub(getTimestamp64())).div(voteTime);\n\n\n        if (_supports) {\n            vote_.yea = vote_.yea.add(voterStake);\n        } else {\n            vote_.nay = vote_.nay.add(voterStake);\n        }\n\n        vote_.voters[_voter] = _supports ? VoterState.Yea : VoterState.Nay;\n\n        emit CastVote(_voteId, _voter, _supports, voterStake);\n\n        if (_executesIfDecided && _canExecute(_voteId)) {\n            // We've already checked if the vote can be executed with `_canExecute()`\n            _unsafeExecuteVote(_voteId);\n        }\n    }\n\n    /**\n    * @dev Internal function to execute a vote. It assumes the queried vote exists.\n    */\n    function _executeVote(uint256 _voteId) internal {\n        require(_canExecute(_voteId), ERROR_CAN_NOT_EXECUTE);\n        _unsafeExecuteVote(_voteId);\n    }\n\n    /**\n    * @dev Unsafe version of _executeVote that assumes you have already checked if the vote can be executed and exists\n    */\n    function _unsafeExecuteVote(uint256 _voteId) internal {\n        Vote storage vote_ = votes[_voteId];\n\n        vote_.executed = true;\n\n        bytes memory input = new bytes(0); // TODO: Consider input for voting scripts\n        runScript(vote_.executionScript, input, new address[](0));\n\n        emit ExecuteVote(_voteId);\n    }\n\n    /**\n    * @dev Internal function to check if a vote can be executed. It assumes the queried vote exists.\n    * @return True if the given vote can be executed, false otherwise\n    */\n    function _canExecute(uint256 _voteId) internal view returns (bool) {\n        Vote storage vote_ = votes[_voteId];\n\n        if (vote_.executed) {\n            return false;\n        }\n\n        // Voting is already decided\n        if (_isValuePct(vote_.yea, vote_.votingPower, vote_.supportRequiredPct)) {\n            return true;\n        }\n\n        // Vote ended?\n        if (_isVoteOpen(vote_)) {\n            return false;\n        }\n        // Has enough support?\n        uint256 totalVotes = vote_.yea.add(vote_.nay);\n        if (!_isValuePct(vote_.yea, totalVotes, vote_.supportRequiredPct)) {\n            return false;\n        }\n        // Has min quorum?\n        if (!_isValuePct(vote_.yea, vote_.votingPower, vote_.minAcceptQuorumPct)) {\n            return false;\n        }\n\n        return true;\n    }\n\n    /**\n    * @dev Internal function to check if a voter can participate on a vote. It assumes the queried vote exists.\n    * @return True if the given voter can participate a certain vote, false otherwise\n    */\n    function _canVote(uint256 _voteId, address _voter) internal view returns (bool) {\n        Vote storage vote_ = votes[_voteId];\n        return _isVoteOpen(vote_) && token.balanceOfAt(_voter, vote_.snapshotBlock) > 0;\n    }\n\n    /**\n    * @dev Internal function to check if a vote is still open\n    * @return True if the given vote is open, false otherwise\n    */\n    function _isVoteOpen(Vote storage vote_) internal view returns (bool) {\n        return getTimestamp64() < vote_.startDate.add(voteTime) && !vote_.executed;\n    }\n\n    /**\n    * @dev Calculates whether `_value` is more than a percentage `_pct` of `_total`\n    */\n    function _isValuePct(uint256 _value, uint256 _total, uint256 _pct) internal pure returns (bool) {\n        if (_total == 0) {\n            return false;\n        }\n\n        uint256 computedPct = _value.mul(PCT_BASE) / _total;\n        return computedPct > _pct;\n    }\n}",
  "sourcePath": "/home/acho/data/curve-aragon-voting/contracts/Voting.sol",
  "compiler": {
    "name": "solc",
    "version": "0.4.24+commit.e67f0147.Emscripten.clang"
  },
  "schemaVersion": "3.1.0",
  "updatedAt": "2020-07-11T19:13:10.828Z",
  "devdoc": {
    "methods": {
      "allowRecoverability(address)": {
        "details": "By default deriving from AragonApp makes it recoverable",
        "params": {
          "token": "Token address that would be recovered"
        },
        "return": "bool whether the app allows the recovery"
      },
      "canExecute(uint256)": {
        "details": "Initialization check is implicitly provided by `voteExists()` as new votes can only be     created via `newVote(),` which requires initialization",
        "return": "True if the given vote can be executed, false otherwise"
      },
      "canForward(address,bytes)": {
        "details": "IForwarder interface conformance",
        "params": {
          "_sender": "Address of the account intending to forward an action"
        },
        "return": "True if the given address can create votes, false otherwise"
      },
      "canPerform(address,bytes32,uint256[])": {
        "details": "Check whether an action can be performed by a sender for a particular role on this app",
        "params": {
          "_params": "Permission params for the role",
          "_role": "Role on this app",
          "_sender": "Sender of the call"
        },
        "return": "Boolean indicating whether the sender has the permissions to perform the action.        Always returns false if the app hasn't been initialized yet."
      },
      "canVote(uint256,address)": {
        "details": "Initialization check is implicitly provided by `voteExists()` as new votes can only be     created via `newVote(),` which requires initialization",
        "return": "True if the given voter can participate a certain vote, false otherwise"
      },
      "changeMinAcceptQuorumPct(uint64)": {
        "params": {
          "_minAcceptQuorumPct": "New acceptance quorum"
        }
      },
      "changeSupportRequiredPct(uint64)": {
        "params": {
          "_supportRequiredPct": "New required support"
        }
      },
      "executeVote(uint256)": {
        "details": "Initialization check is implicitly provided by `voteExists()` as new votes can only be     created via `newVote(),` which requires initialization",
        "params": {
          "_voteId": "Id for vote"
        }
      },
      "forward(bytes)": {
        "details": "IForwarder interface conformance",
        "params": {
          "_evmScript": "Start vote with script"
        }
      },
      "getInitializationBlock()": {
        "return": "Block number in which the contract was initialized"
      },
      "getRecoveryVault()": {
        "details": "Get the recovery vault for the app",
        "return": "Recovery vault address for the app"
      },
      "getVote(uint256)": {
        "details": "Return all information for a vote by its ID",
        "params": {
          "_voteId": "Vote identifier"
        },
        "return": "Vote open statusVote executed statusVote start dateVote snapshot blockVote support requiredVote minimum acceptance quorumVote yeas amountVote nays amountVote powerVote script"
      },
      "getVoterState(uint256,address)": {
        "details": "Return the state of a voter for a given vote by its ID",
        "params": {
          "_voteId": "Vote identifier"
        },
        "return": "VoterState of the requested voter for a certain vote"
      },
      "hasInitialized()": {
        "return": "Whether the contract has been initialized by the time of the current block"
      },
      "initialize(address,uint64,uint64,uint64,uint256,uint256)": {
        "params": {
          "_minAcceptQuorumPct": "Percentage of yeas in total possible votes for a vote to succeed (expressed as a percentage of 10^18; eg. 10^16 = 1%, 10^18 = 100%)",
          "_supportRequiredPct": "Percentage of yeas in casted votes for a vote to succeed (expressed as a percentage of 10^18; eg. 10^16 = 1%, 10^18 = 100%)",
          "_token": "MiniMeToken Address that will be used as governance token",
          "_voteTime": "Seconds that a vote will be open for token holders to vote (unless enough yeas or nays have been cast to make an early decision)"
        }
      },
      "isForwarder()": {
        "details": "IForwarder interface conformance",
        "return": "Always true"
      },
      "newVote(bytes,string)": {
        "params": {
          "_executionScript": "EVM script to be executed on approval",
          "_metadata": "Vote metadata"
        },
        "return": "voteId Id for newly created vote"
      },
      "newVote(bytes,string,bool,bool)": {
        "params": {
          "_castVote": "Whether to also cast newly created vote",
          "_executesIfDecided": "Whether to also immediately execute newly created vote if decided",
          "_executionScript": "EVM script to be executed on approval",
          "_metadata": "Vote metadata"
        },
        "return": "voteId id for newly created vote"
      },
      "transferToVault(address)": {
        "params": {
          "_token": "Token balance to be sent to recovery vault."
        }
      },
      "vote(uint256,bool,bool)": {
        "details": "Initialization check is implicitly provided by `voteExists()` as new votes can only be     created via `newVote(),` which requires initialization",
        "params": {
          "_executesIfDecided": "Whether the vote should execute its action if it becomes decided",
          "_supports": "Whether voter supports the vote",
          "_voteId": "Id for vote"
        }
      }
    }
  },
  "userdoc": {
    "methods": {
      "canExecute(uint256)": {
        "notice": "Tells whether a vote #`_voteId` can be executed or not"
      },
      "canForward(address,bytes)": {
        "notice": "Tells whether `_sender` can forward actions or not"
      },
      "canVote(uint256,address)": {
        "notice": "Tells whether `_sender` can participate in the vote #`_voteId` or not"
      },
      "changeMinAcceptQuorumPct(uint64)": {
        "notice": "Change minimum acceptance quorum to `@formatPct(_minAcceptQuorumPct)`%"
      },
      "changeSupportRequiredPct(uint64)": {
        "notice": "Change required support to `@formatPct(_supportRequiredPct)`%"
      },
      "executeVote(uint256)": {
        "notice": "Execute vote #`_voteId`"
      },
      "forward(bytes)": {
        "notice": "Creates a vote to execute the desired action, and casts a support vote if possible"
      },
      "initialize(address,uint64,uint64,uint64,uint256,uint256)": {
        "notice": "Initialize Voting app with `_token.symbol(): string` for governance, minimum support of `@formatPct(_supportRequiredPct)`%, minimum acceptance quorum of `@formatPct(_minAcceptQuorumPct)`%, and a voting duration of `@transformTime(_voteTime)`"
      },
      "isForwarder()": {
        "notice": "Tells whether the Voting app is a forwarder or not"
      },
      "newVote(bytes,string)": {
        "notice": "Create a new vote about \"`_metadata`\""
      },
      "newVote(bytes,string,bool,bool)": {
        "notice": "Create a new vote about \"`_metadata`\""
      },
      "transferToVault(address)": {
        "notice": "Send funds to recovery Vault. This contract should never receive funds,        but in case it does, this function allows one to recover them."
      },
      "vote(uint256,bool,bool)": {
        "notice": "Vote `_supports ? 'yes' : 'no'` in vote #`_voteId`"
      }
    }
  }
}