{
  "contractName": "Voting",
  "abi": [
    {
      "constant": true,
      "inputs": [],
      "name": "hasInitialized",
      "outputs": [
        {
          "name": "",
          "type": "bool"
        }
      ],
      "payable": false,
      "stateMutability": "view",
      "type": "function"
    },
    {
      "constant": true,
      "inputs": [],
      "name": "minTime",
      "outputs": [
        {
          "name": "",
          "type": "uint256"
        }
      ],
      "payable": false,
      "stateMutability": "view",
      "type": "function"
    },
    {
      "constant": true,
      "inputs": [
        {
          "name": "_script",
          "type": "bytes"
        }
      ],
      "name": "getEVMScriptExecutor",
      "outputs": [
        {
          "name": "",
          "type": "address"
        }
      ],
      "payable": false,
      "stateMutability": "view",
      "type": "function"
    },
    {
      "constant": true,
      "inputs": [],
      "name": "getRecoveryVault",
      "outputs": [
        {
          "name": "",
          "type": "address"
        }
      ],
      "payable": false,
      "stateMutability": "view",
      "type": "function"
    },
    {
      "constant": true,
      "inputs": [],
      "name": "MODIFY_QUORUM_ROLE",
      "outputs": [
        {
          "name": "",
          "type": "bytes32"
        }
      ],
      "payable": false,
      "stateMutability": "view",
      "type": "function"
    },
    {
      "constant": true,
      "inputs": [],
      "name": "MODIFY_SUPPORT_ROLE",
      "outputs": [
        {
          "name": "",
          "type": "bytes32"
        }
      ],
      "payable": false,
      "stateMutability": "view",
      "type": "function"
    },
    {
      "constant": true,
      "inputs": [
        {
          "name": "",
          "type": "address"
        }
      ],
      "name": "lastCreateVoteTimes",
      "outputs": [
        {
          "name": "",
          "type": "uint256"
        }
      ],
      "payable": false,
      "stateMutability": "view",
      "type": "function"
    },
    {
      "constant": true,
      "inputs": [
        {
          "name": "token",
          "type": "address"
        }
      ],
      "name": "allowRecoverability",
      "outputs": [
        {
          "name": "",
          "type": "bool"
        }
      ],
      "payable": false,
      "stateMutability": "view",
      "type": "function"
    },
    {
      "constant": true,
      "inputs": [],
      "name": "appId",
      "outputs": [
        {
          "name": "",
          "type": "bytes32"
        }
      ],
      "payable": false,
      "stateMutability": "view",
      "type": "function"
    },
    {
      "constant": true,
      "inputs": [],
      "name": "getInitializationBlock",
      "outputs": [
        {
          "name": "",
          "type": "uint256"
        }
      ],
      "payable": false,
      "stateMutability": "view",
      "type": "function"
    },
    {
      "constant": false,
      "inputs": [
        {
          "name": "_token",
          "type": "address"
        }
      ],
      "name": "transferToVault",
      "outputs": [],
      "payable": false,
      "stateMutability": "nonpayable",
      "type": "function"
    },
    {
      "constant": true,
      "inputs": [
        {
          "name": "_sender",
          "type": "address"
        },
        {
          "name": "_role",
          "type": "bytes32"
        },
        {
          "name": "_params",
          "type": "uint256[]"
        }
      ],
      "name": "canPerform",
      "outputs": [
        {
          "name": "",
          "type": "bool"
        }
      ],
      "payable": false,
      "stateMutability": "view",
      "type": "function"
    },
    {
      "constant": true,
      "inputs": [],
      "name": "getEVMScriptRegistry",
      "outputs": [
        {
          "name": "",
          "type": "address"
        }
      ],
      "payable": false,
      "stateMutability": "view",
      "type": "function"
    },
    {
      "constant": true,
      "inputs": [],
      "name": "SET_MIN_BALANCE_ROLE",
      "outputs": [
        {
          "name": "",
          "type": "bytes32"
        }
      ],
      "payable": false,
      "stateMutability": "view",
      "type": "function"
    },
    {
      "constant": true,
      "inputs": [],
      "name": "voteTime",
      "outputs": [
        {
          "name": "",
          "type": "uint64"
        }
      ],
      "payable": false,
      "stateMutability": "view",
      "type": "function"
    },
    {
      "constant": true,
      "inputs": [],
      "name": "CREATE_VOTES_ROLE",
      "outputs": [
        {
          "name": "",
          "type": "bytes32"
        }
      ],
      "payable": false,
      "stateMutability": "view",
      "type": "function"
    },
    {
      "constant": true,
      "inputs": [],
      "name": "SET_MIN_TIME_ROLE",
      "outputs": [
        {
          "name": "",
          "type": "bytes32"
        }
      ],
      "payable": false,
      "stateMutability": "view",
      "type": "function"
    },
    {
      "constant": true,
      "inputs": [],
      "name": "minBalance",
      "outputs": [
        {
          "name": "",
          "type": "uint256"
        }
      ],
      "payable": false,
      "stateMutability": "view",
      "type": "function"
    },
    {
      "constant": true,
      "inputs": [],
      "name": "SET_TOKEN_ROLE",
      "outputs": [
        {
          "name": "",
          "type": "bytes32"
        }
      ],
      "payable": false,
      "stateMutability": "view",
      "type": "function"
    },
    {
      "constant": true,
      "inputs": [],
      "name": "kernel",
      "outputs": [
        {
          "name": "",
          "type": "address"
        }
      ],
      "payable": false,
      "stateMutability": "view",
      "type": "function"
    },
    {
      "constant": true,
      "inputs": [],
      "name": "minAcceptQuorumPct",
      "outputs": [
        {
          "name": "",
          "type": "uint64"
        }
      ],
      "payable": false,
      "stateMutability": "view",
      "type": "function"
    },
    {
      "constant": true,
      "inputs": [],
      "name": "isPetrified",
      "outputs": [
        {
          "name": "",
          "type": "bool"
        }
      ],
      "payable": false,
      "stateMutability": "view",
      "type": "function"
    },
    {
      "constant": true,
      "inputs": [],
      "name": "votesLength",
      "outputs": [
        {
          "name": "",
          "type": "uint256"
        }
      ],
      "payable": false,
      "stateMutability": "view",
      "type": "function"
    },
    {
      "constant": true,
      "inputs": [],
      "name": "supportRequiredPct",
      "outputs": [
        {
          "name": "",
          "type": "uint64"
        }
      ],
      "payable": false,
      "stateMutability": "view",
      "type": "function"
    },
    {
      "constant": true,
      "inputs": [],
      "name": "token",
      "outputs": [
        {
          "name": "",
          "type": "address"
        }
      ],
      "payable": false,
      "stateMutability": "view",
      "type": "function"
    },
    {
      "constant": true,
      "inputs": [],
      "name": "PCT_BASE",
      "outputs": [
        {
          "name": "",
          "type": "uint64"
        }
      ],
      "payable": false,
      "stateMutability": "view",
      "type": "function"
    },
    {
      "anonymous": false,
      "inputs": [
        {
          "indexed": true,
          "name": "voteId",
          "type": "uint256"
        },
        {
          "indexed": true,
          "name": "creator",
          "type": "address"
        },
        {
          "indexed": false,
          "name": "metadata",
          "type": "string"
        }
      ],
      "name": "StartVote",
      "type": "event"
    },
    {
      "anonymous": false,
      "inputs": [
        {
          "indexed": true,
          "name": "voteId",
          "type": "uint256"
        },
        {
          "indexed": true,
          "name": "voter",
          "type": "address"
        },
        {
          "indexed": false,
          "name": "supports",
          "type": "bool"
        },
        {
          "indexed": false,
          "name": "stake",
          "type": "uint256"
        }
      ],
      "name": "CastVote",
      "type": "event"
    },
    {
      "anonymous": false,
      "inputs": [
        {
          "indexed": true,
          "name": "voteId",
          "type": "uint256"
        }
      ],
      "name": "ExecuteVote",
      "type": "event"
    },
    {
      "anonymous": false,
      "inputs": [
        {
          "indexed": false,
          "name": "supportRequiredPct",
          "type": "uint64"
        }
      ],
      "name": "ChangeSupportRequired",
      "type": "event"
    },
    {
      "anonymous": false,
      "inputs": [
        {
          "indexed": false,
          "name": "minAcceptQuorumPct",
          "type": "uint64"
        }
      ],
      "name": "ChangeMinQuorum",
      "type": "event"
    },
    {
      "anonymous": false,
      "inputs": [
        {
          "indexed": false,
          "name": "minBalance",
          "type": "uint256"
        }
      ],
      "name": "MinimumBalanceSet",
      "type": "event"
    },
    {
      "anonymous": false,
      "inputs": [
        {
          "indexed": false,
          "name": "minTime",
          "type": "uint256"
        }
      ],
      "name": "MinimumTimeSet",
      "type": "event"
    },
    {
      "anonymous": false,
      "inputs": [
        {
          "indexed": true,
          "name": "executor",
          "type": "address"
        },
        {
          "indexed": false,
          "name": "script",
          "type": "bytes"
        },
        {
          "indexed": false,
          "name": "input",
          "type": "bytes"
        },
        {
          "indexed": false,
          "name": "returnData",
          "type": "bytes"
        }
      ],
      "name": "ScriptResult",
      "type": "event"
    },
    {
      "anonymous": false,
      "inputs": [
        {
          "indexed": true,
          "name": "vault",
          "type": "address"
        },
        {
          "indexed": true,
          "name": "token",
          "type": "address"
        },
        {
          "indexed": false,
          "name": "amount",
          "type": "uint256"
        }
      ],
      "name": "RecoverToVault",
      "type": "event"
    },
    {
      "constant": false,
      "inputs": [],
      "name": "constructor",
      "outputs": [],
      "payable": false,
      "stateMutability": "nonpayable",
      "type": "function"
    },
    {
      "constant": false,
      "inputs": [
        {
          "name": "_token",
          "type": "address"
        },
        {
          "name": "_supportRequiredPct",
          "type": "uint64"
        },
        {
          "name": "_minAcceptQuorumPct",
          "type": "uint64"
        },
        {
          "name": "_voteTime",
          "type": "uint64"
        },
        {
          "name": "_minBalance",
          "type": "uint256"
        },
        {
          "name": "_minTime",
          "type": "uint256"
        }
      ],
      "name": "initialize",
      "outputs": [],
      "payable": false,
      "stateMutability": "nonpayable",
      "type": "function"
    },
    {
      "constant": false,
      "inputs": [
        {
          "name": "_supportRequiredPct",
          "type": "uint64"
        }
      ],
      "name": "changeSupportRequiredPct",
      "outputs": [],
      "payable": false,
      "stateMutability": "nonpayable",
      "type": "function"
    },
    {
      "constant": false,
      "inputs": [
        {
          "name": "_minAcceptQuorumPct",
          "type": "uint64"
        }
      ],
      "name": "changeMinAcceptQuorumPct",
      "outputs": [],
      "payable": false,
      "stateMutability": "nonpayable",
      "type": "function"
    },
    {
      "constant": false,
      "inputs": [
        {
          "name": "_minBalance",
          "type": "uint256"
        }
      ],
      "name": "setMinBalance",
      "outputs": [],
      "payable": false,
      "stateMutability": "nonpayable",
      "type": "function"
    },
    {
      "constant": false,
      "inputs": [
        {
          "name": "_minTime",
          "type": "uint256"
        }
      ],
      "name": "setMinTime",
      "outputs": [],
      "payable": false,
      "stateMutability": "nonpayable",
      "type": "function"
    },
    {
      "constant": false,
      "inputs": [
        {
          "name": "_executionScript",
          "type": "bytes"
        },
        {
          "name": "_metadata",
          "type": "string"
        }
      ],
      "name": "newVote",
      "outputs": [
        {
          "name": "voteId",
          "type": "uint256"
        }
      ],
      "payable": false,
      "stateMutability": "nonpayable",
      "type": "function"
    },
    {
      "constant": false,
      "inputs": [
        {
          "name": "_executionScript",
          "type": "bytes"
        },
        {
          "name": "_metadata",
          "type": "string"
        },
        {
          "name": "_castVote",
          "type": "bool"
        },
        {
          "name": "_executesIfDecided",
          "type": "bool"
        }
      ],
      "name": "newVote",
      "outputs": [
        {
          "name": "voteId",
          "type": "uint256"
        }
      ],
      "payable": false,
      "stateMutability": "nonpayable",
      "type": "function"
    },
    {
      "constant": false,
      "inputs": [
        {
          "name": "_voteId",
          "type": "uint256"
        },
        {
          "name": "_supports",
          "type": "bool"
        },
        {
          "name": "_executesIfDecided",
          "type": "bool"
        }
      ],
      "name": "vote",
      "outputs": [],
      "payable": false,
      "stateMutability": "nonpayable",
      "type": "function"
    },
    {
      "constant": false,
      "inputs": [
        {
          "name": "_voteId",
          "type": "uint256"
        }
      ],
      "name": "executeVote",
      "outputs": [],
      "payable": false,
      "stateMutability": "nonpayable",
      "type": "function"
    },
    {
      "constant": true,
      "inputs": [],
      "name": "isForwarder",
      "outputs": [
        {
          "name": "",
          "type": "bool"
        }
      ],
      "payable": false,
      "stateMutability": "pure",
      "type": "function"
    },
    {
      "constant": false,
      "inputs": [
        {
          "name": "_evmScript",
          "type": "bytes"
        }
      ],
      "name": "forward",
      "outputs": [],
      "payable": false,
      "stateMutability": "nonpayable",
      "type": "function"
    },
    {
      "constant": true,
      "inputs": [
        {
          "name": "_sender",
          "type": "address"
        },
        {
          "name": "",
          "type": "bytes"
        }
      ],
      "name": "canForward",
      "outputs": [
        {
          "name": "",
          "type": "bool"
        }
      ],
      "payable": false,
      "stateMutability": "view",
      "type": "function"
    },
    {
      "constant": true,
      "inputs": [
        {
          "name": "_voteId",
          "type": "uint256"
        }
      ],
      "name": "canExecute",
      "outputs": [
        {
          "name": "",
          "type": "bool"
        }
      ],
      "payable": false,
      "stateMutability": "view",
      "type": "function"
    },
    {
      "constant": true,
      "inputs": [
        {
          "name": "_voteId",
          "type": "uint256"
        },
        {
          "name": "_voter",
          "type": "address"
        }
      ],
      "name": "canVote",
      "outputs": [
        {
          "name": "",
          "type": "bool"
        }
      ],
      "payable": false,
      "stateMutability": "view",
      "type": "function"
    },
    {
      "constant": false,
      "inputs": [],
      "name": "canCreateNewVote",
      "outputs": [
        {
          "name": "",
          "type": "bool"
        }
      ],
      "payable": false,
      "stateMutability": "nonpayable",
      "type": "function"
    },
    {
      "constant": true,
      "inputs": [
        {
          "name": "_voteId",
          "type": "uint256"
        }
      ],
      "name": "getVote",
      "outputs": [
        {
          "name": "open",
          "type": "bool"
        },
        {
          "name": "executed",
          "type": "bool"
        },
        {
          "name": "startDate",
          "type": "uint64"
        },
        {
          "name": "snapshotBlock",
          "type": "uint64"
        },
        {
          "name": "supportRequired",
          "type": "uint64"
        },
        {
          "name": "minAcceptQuorum",
          "type": "uint64"
        },
        {
          "name": "yea",
          "type": "uint256"
        },
        {
          "name": "nay",
          "type": "uint256"
        },
        {
          "name": "votingPower",
          "type": "uint256"
        },
        {
          "name": "script",
          "type": "bytes"
        }
      ],
      "payable": false,
      "stateMutability": "view",
      "type": "function"
    },
    {
      "constant": true,
      "inputs": [
        {
          "name": "_voteId",
          "type": "uint256"
        },
        {
          "name": "_voter",
          "type": "address"
        }
      ],
      "name": "getVoterState",
      "outputs": [
        {
          "name": "",
          "type": "uint8"
        }
      ],
      "payable": false,
      "stateMutability": "view",
      "type": "function"
    }
  ],
  "bytecode": "0x60806040526200001d62000023640100000000026401000000009004565b62000309565b60006200003e6200015e640100000000026401000000009004565b146040805190810160405280601881526020017f494e49545f414c52454144595f494e495449414c495a4544000000000000000081525090151562000121576040517f08c379a00000000000000000000000000000000000000000000000000000000081526004018080602001828103825283818151815260200191508051906020019080838360005b83811015620000e5578082015181840152602081019050620000c8565b50505050905090810190601f168015620001135780820380516001836020036101000a031916815260200191505b509250505060405180910390fd5b506200015c7fffffffffffffffffffffffffffffffffffffffffffffffffffffffffffffffff620001ab640100000000026401000000009004565b565b6000620001a67febb05b386a8d34882b8711d156f463690983dc47815980fb82aeeff1aa43579e60010260001916620002f76401000000000262003db0176401000000009004565b905090565b6000620001c66200015e640100000000026401000000009004565b146040805190810160405280601881526020017f494e49545f414c52454144595f494e495449414c495a45440000000000000000815250901515620002a9576040517f08c379a00000000000000000000000000000000000000000000000000000000081526004018080602001828103825283818151815260200191508051906020019080838360005b838110156200026d57808201518184015260208101905062000250565b50505050905090810190601f1680156200029b5780820380516001836020036101000a031916815260200191505b509250505060405180910390fd5b50620002f4817febb05b386a8d34882b8711d156f463690983dc47815980fb82aeeff1aa43579e60010260001916620003026401000000000262004e20179091906401000000009004565b50565b600081549050919050565b8082555050565b615fe680620003196000396000f30060806040526004361061021a576000357c0100000000000000000000000000000000000000000000000000000000900463ffffffff1680630803fac01461021f57806314520bd41461024e5780631aa43078146102e15780632914b9bd1461030c57806332f0a3b5146103b55780633c624c751461040c5780634b12311c1461043f5780635a55c1f0146104ae5780635eb24332146105eb57806362de7e5a146106225780637bbddcfc146106555780637c1d0b87146106ac5780637e7db6e1146106e357806380afdea81461073e5780638b3dd7491461077157806390fa17bb1461079c57806393f89a80146107b35780639d4941d8146107e0578063a1658fad14610823578063a479e508146108cf578063b6f6825414610926578063bcf93dd614610959578063be2c64d414610998578063c0774df3146109cb578063c54c24b514610a6c578063c5bb875814610a9f578063c75bcaa114610aca578063c91d956c14610afd578063cc63604a14610b2a578063cdb2867b14610b6f578063d4aae0c414610bd4578063d5db2c8014610c2b578063d948d46814610c92578063dc474b1a14610cfb578063de4796ed14610d3a578063de4f634714610d69578063df133bca14610d94578063f4b0051314610dd9578063f98a4eca14610e58578063fad167ab14610e85578063fc0c546a14610ec4578063fc157cb414610f1b578063fd64eccb14610f5a578063fe32a64d14610f89575b600080fd5b34801561022b57600080fd5b50610234610fb8565b604051808215151515815260200191505060405180910390f35b34801561025a57600080fd5b506102df600480360381019080803573ffffffffffffffffffffffffffffffffffffffff169060200190929190803567ffffffffffffffff169060200190929190803567ffffffffffffffff169060200190929190803567ffffffffffffffff1690602001909291908035906020019092919080359060200190929190505050610fe3565b005b3480156102ed57600080fd5b506102f66114cb565b6040518082815260200191505060405180910390f35b34801561031857600080fd5b50610373600480360381019080803590602001908201803590602001908080601f01602080910402602001604051908101604052809392919081815260200183838082843782019150505050505091929192905050506114d1565b604051808273ffffffffffffffffffffffffffffffffffffffff1673ffffffffffffffffffffffffffffffffffffffff16815260200191505060405180910390f35b3480156103c157600080fd5b506103ca6115f0565b604051808273ffffffffffffffffffffffffffffffffffffffff1673ffffffffffffffffffffffffffffffffffffffff16815260200191505060405180910390f35b34801561041857600080fd5b5061042161169d565b60405180826000191660001916815260200191505060405180910390f35b34801561044b57600080fd5b5061048a60048036038101908080359060200190929190803573ffffffffffffffffffffffffffffffffffffffff1690602001909291905050506116d6565b6040518082600281111561049a57fe5b60ff16815260200191505060405180910390f35b3480156104ba57600080fd5b506104d960048036038101908080359060200190929190505050611827565b604051808b1515151581526020018a1515151581526020018967ffffffffffffffff1667ffffffffffffffff1681526020018867ffffffffffffffff1667ffffffffffffffff1681526020018767ffffffffffffffff1667ffffffffffffffff1681526020018667ffffffffffffffff1667ffffffffffffffff16815260200185815260200184815260200183815260200180602001828103825283818151815260200191508051906020019080838360005b838110156105a757808201518184015260208101905061058c565b50505050905090810190601f1680156105d45780820380516001836020036101000a031916815260200191505b509b50505050505050505050505060405180910390f35b3480156105f757600080fd5b50610620600480360381019080803567ffffffffffffffff169060200190929190505050611a81565b005b34801561062e57600080fd5b50610637611d5b565b60405180826000191660001916815260200191505060405180910390f35b34801561066157600080fd5b50610696600480360381019080803573ffffffffffffffffffffffffffffffffffffffff169060200190929190505050611d94565b6040518082815260200191505060405180910390f35b3480156106b857600080fd5b506106e1600480360381019080803567ffffffffffffffff169060200190929190505050611dac565b005b3480156106ef57600080fd5b50610724600480360381019080803573ffffffffffffffffffffffffffffffffffffffff169060200190929190505050612184565b604051808215151515815260200191505060405180910390f35b34801561074a57600080fd5b5061075361218f565b60405180826000191660001916815260200191505060405180910390f35b34801561077d57600080fd5b506107866121c6565b6040518082815260200191505060405180910390f35b3480156107a857600080fd5b506107b16121fd565b005b3480156107bf57600080fd5b506107de60048036038101908080359060200190929190505050612340565b005b3480156107ec57600080fd5b50610821600480360381019080803573ffffffffffffffffffffffffffffffffffffffff169060200190929190505050612571565b005b34801561082f57600080fd5b506108b5600480360381019080803573ffffffffffffffffffffffffffffffffffffffff16906020019092919080356000191690602001909291908035906020019082018035906020019080806020026020016040519081016040528093929190818152602001838360200280828437820191505050505050919291929050505061298f565b604051808215151515815260200191505060405180910390f35b3480156108db57600080fd5b506108e4612b8b565b604051808273ffffffffffffffffffffffffffffffffffffffff1673ffffffffffffffffffffffffffffffffffffffff16815260200191505060405180910390f35b34801561093257600080fd5b5061093b612ca6565b60405180826000191660001916815260200191505060405180910390f35b34801561096557600080fd5b5061096e612ccd565b604051808267ffffffffffffffff1667ffffffffffffffff16815260200191505060405180910390f35b3480156109a457600080fd5b506109ad612ce7565b60405180826000191660001916815260200191505060405180910390f35b3480156109d757600080fd5b50610a52600480360381019080803573ffffffffffffffffffffffffffffffffffffffff169060200190929190803590602001908201803590602001908080601f0160208091040260200160405190810160405280939291908181526020018383808284378201915050505050509192919290505050612d20565b604051808215151515815260200191505060405180910390f35b348015610a7857600080fd5b50610a81612d71565b60405180826000191660001916815260200191505060405180910390f35b348015610aab57600080fd5b50610ab4612d98565b6040518082815260200191505060405180910390f35b348015610ad657600080fd5b50610adf612d9e565b60405180826000191660001916815260200191505060405180910390f35b348015610b0957600080fd5b50610b2860048036038101908080359060200190929190505050612dc5565b005b348015610b3657600080fd5b50610b5560048036038101908080359060200190929190505050612fc4565b604051808215151515815260200191505060405180910390f35b348015610b7b57600080fd5b50610bba60048036038101908080359060200190929190803573ffffffffffffffffffffffffffffffffffffffff1690602001909291905050506130bc565b604051808215151515815260200191505060405180910390f35b348015610be057600080fd5b50610be96131b6565b604051808273ffffffffffffffffffffffffffffffffffffffff1673ffffffffffffffffffffffffffffffffffffffff16815260200191505060405180910390f35b348015610c3757600080fd5b50610c7c6004803603810190808035906020019082018035906020019190919293919293908035906020019082018035906020019190919293919293905050506131ed565b6040518082815260200191505060405180910390f35b348015610c9e57600080fd5b50610cf9600480360381019080803590602001908201803590602001908080601f01602080910402602001604051908101604052809392919081815260200183838082843782019150505050505091929192905050506133bb565b005b348015610d0757600080fd5b50610d106134c5565b604051808267ffffffffffffffff1667ffffffffffffffff16815260200191505060405180910390f35b348015610d4657600080fd5b50610d4f6134df565b604051808215151515815260200191505060405180910390f35b348015610d7557600080fd5b50610d7e613510565b6040518082815260200191505060405180910390f35b348015610da057600080fd5b50610dd760048036038101908080359060200190929190803515159060200190929190803515159060200190929190505050613516565b005b348015610de557600080fd5b50610e426004803603810190808035906020019082018035906020019190919293919293908035906020019082018035906020019190919293919293908035151590602001909291908035151590602001909291905050506136f6565b6040518082815260200191505060405180910390f35b348015610e6457600080fd5b50610e83600480360381019080803590602001909291905050506138c5565b005b348015610e9157600080fd5b50610e9a6139b7565b604051808267ffffffffffffffff1667ffffffffffffffff16815260200191505060405180910390f35b348015610ed057600080fd5b50610ed96139d1565b604051808273ffffffffffffffffffffffffffffffffffffffff1673ffffffffffffffffffffffffffffffffffffffff16815260200191505060405180910390f35b348015610f2757600080fd5b50610f306139f6565b604051808267ffffffffffffffff1667ffffffffffffffff16815260200191505060405180910390f35b348015610f6657600080fd5b50610f6f613a02565b604051808215151515815260200191505060405180910390f35b348015610f9557600080fd5b50610f9e613a0b565b604051808215151515815260200191505060405180910390f35b600080610fc36121c6565b905060008114158015610fdd575080610fda613b6d565b10155b91505090565b6000610fed6121c6565b146040805190810160405280601881526020017f494e49545f414c52454144595f494e495449414c495a454400000000000000008152509015156110cc576040517f08c379a00000000000000000000000000000000000000000000000000000000081526004018080602001828103825283818151815260200191508051906020019080838360005b83811015611091578082015181840152602081019050611076565b50505050905090810190601f1680156110be5780820380516001836020036101000a031916815260200191505b509250505060405180910390fd5b508164496cebb800811015151561114b576040517f08c379a00000000000000000000000000000000000000000000000000000000081526004018080602001828103825260168152602001807f4e6f7420656e6f756768206d696e2062616c616e63650000000000000000000081525060200191505060405180910390fd5b8161a8c081101580156111615750621275008111155b15156111fb576040517f08c379a000000000000000000000000000000000000000000000000000000000815260040180806020018281038252603c8152602001807f4d696e2074696d652063616e2774206265206c657373207468616e2068616c6681526020017f20612064617920616e64206d6f7265207468616e2032207765656b730000000081525060400191505060405180910390fd5b611203613b75565b8667ffffffffffffffff168667ffffffffffffffff1611156040805190810160405280601081526020017f564f54494e475f494e49545f50435453000000000000000000000000000000008152509015156112f9576040517f08c379a00000000000000000000000000000000000000000000000000000000081526004018080602001828103825283818151815260200191508051906020019080838360005b838110156112be5780820151818401526020810190506112a3565b50505050905090810190601f1680156112eb5780820380516001836020036101000a031916815260200191505b509250505060405180910390fd5b50670de0b6b3a764000067ffffffffffffffff168767ffffffffffffffff16106040805190810160405280601b81526020017f564f54494e475f494e49545f535550504f52545f544f4f5f42494700000000008152509015156113f7576040517f08c379a00000000000000000000000000000000000000000000000000000000081526004018080602001828103825283818151815260200191508051906020019080838360005b838110156113bc5780820151818401526020810190506113a1565b50505050905090810190601f1680156113e95780820380516001836020036101000a031916815260200191505b509250505060405180910390fd5b50876000806101000a81548173ffffffffffffffffffffffffffffffffffffffff021916908373ffffffffffffffffffffffffffffffffffffffff16021790555086600060146101000a81548167ffffffffffffffff021916908367ffffffffffffffff16021790555085600160006101000a81548167ffffffffffffffff021916908367ffffffffffffffff16021790555084600160086101000a81548167ffffffffffffffff021916908367ffffffffffffffff16021790555083600281905550826003819055505050505050505050565b60035481565b60006114db612b8b565b73ffffffffffffffffffffffffffffffffffffffff166304bf2a7f836040518263ffffffff167c01000000000000000000000000000000000000000000000000000000000281526004018080602001828103825283818151815260200191508051906020019080838360005b83811015611562578082015181840152602081019050611547565b50505050905090810190601f16801561158f5780820380516001836020036101000a031916815260200191505b5092505050602060405180830381600087803b1580156115ae57600080fd5b505af11580156115c2573d6000803e3d6000fd5b505050506040513d60208110156115d857600080fd5b81019080805190602001909291905050509050919050565b60006115fa6131b6565b73ffffffffffffffffffffffffffffffffffffffff166332f0a3b56040518163ffffffff167c0100000000000000000000000000000000000000000000000000000000028152600401602060405180830381600087803b15801561165d57600080fd5b505af1158015611671573d6000803e3d6000fd5b505050506040513d602081101561168757600080fd5b8101908080519060200190929190505050905090565b60405180807f4d4f444946595f51554f52554d5f524f4c4500000000000000000000000000008152506012019050604051809103902081565b60008260055481106040805190810160405280600e81526020017f564f54494e475f4e4f5f564f54450000000000000000000000000000000000008152509015156117bc576040517f08c379a00000000000000000000000000000000000000000000000000000000081526004018080602001828103825283818151815260200191508051906020019080838360005b83811015611781578082015181840152602081019050611766565b50505050905090810190601f1680156117ae5780820380516001836020036101000a031916815260200191505b509250505060405180910390fd5b506004600085815260200190815260200160002060060160008473ffffffffffffffffffffffffffffffffffffffff1673ffffffffffffffffffffffffffffffffffffffff16815260200190815260200160002060009054906101000a900460ff1691505092915050565b6000806000806000806000806000606060008b60055481106040805190810160405280600e81526020017f564f54494e475f4e4f5f564f544500000000000000000000000000000000000081525090151561191d576040517f08c379a00000000000000000000000000000000000000000000000000000000081526004018080602001828103825283818151815260200191508051906020019080838360005b838110156118e25780820151818401526020810190506118c7565b50505050905090810190601f16801561190f5780820380516001836020036101000a031916815260200191505b509250505060405180910390fd5b50600460008e8152602001908152602001600020915061193c82613ca2565b9b508160000160009054906101000a900460ff169a508160000160019054906101000a900467ffffffffffffffff1699508160000160099054906101000a900467ffffffffffffffff1698508160000160119054906101000a900467ffffffffffffffff1697508160010160009054906101000a900467ffffffffffffffff169650816002015495508160030154945081600401549350816005018054600181600116156101000203166002900480601f016020809104026020016040519081016040528092919081815260200182805460018160011615610100020316600290048015611a6b5780601f10611a4057610100808354040283529160200191611a6b565b820191906000526020600020905b815481529060010190602001808311611a4e57829003601f168201915b5050505050925050509193959799509193959799565b60405180807f4d4f444946595f51554f52554d5f524f4c45000000000000000000000000000081525060120190506040518091039020611aeb8267ffffffffffffffff16600160009054906101000a900467ffffffffffffffff1667ffffffffffffffff16613d2e565b611af633838361298f565b6040805190810160405280600f81526020017f4150505f415554485f4641494c45440000000000000000000000000000000000815250901515611bd4576040517f08c379a00000000000000000000000000000000000000000000000000000000081526004018080602001828103825283818151815260200191508051906020019080838360005b83811015611b99578082015181840152602081019050611b7e565b50505050905090810190601f168015611bc65780820380516001836020036101000a031916815260200191505b509250505060405180910390fd5b50600060149054906101000a900467ffffffffffffffff1667ffffffffffffffff168367ffffffffffffffff1611156040805190810160405280601981526020017f564f54494e475f4348414e47455f51554f52554d5f5043545300000000000000815250901515611ce1576040517f08c379a00000000000000000000000000000000000000000000000000000000081526004018080602001828103825283818151815260200191508051906020019080838360005b83811015611ca6578082015181840152602081019050611c8b565b50505050905090810190601f168015611cd35780820380516001836020036101000a031916815260200191505b509250505060405180910390fd5b5082600160006101000a81548167ffffffffffffffff021916908367ffffffffffffffff1602179055507f3172f2e9273c729c2a47cc8bf7e7f18506e3e3035126d562602bd2155bc78a5083604051808267ffffffffffffffff1667ffffffffffffffff16815260200191505060405180910390a1505050565b60405180807f4d4f444946595f535550504f52545f524f4c45000000000000000000000000008152506013019050604051809103902081565b60066020528060005260406000206000915090505481565b60405180807f4d4f444946595f535550504f52545f524f4c450000000000000000000000000081525060130190506040518091039020611e168267ffffffffffffffff16600060149054906101000a900467ffffffffffffffff1667ffffffffffffffff16613d2e565b611e2133838361298f565b6040805190810160405280600f81526020017f4150505f415554485f4641494c45440000000000000000000000000000000000815250901515611eff576040517f08c379a00000000000000000000000000000000000000000000000000000000081526004018080602001828103825283818151815260200191508051906020019080838360005b83811015611ec4578082015181840152602081019050611ea9565b50505050905090810190601f168015611ef15780820380516001836020036101000a031916815260200191505b509250505060405180910390fd5b508267ffffffffffffffff16600160009054906101000a900467ffffffffffffffff1667ffffffffffffffff1611156040805190810160405280601a81526020017f564f54494e475f4348414e47455f535550504f52545f5043545300000000000081525090151561200c576040517f08c379a00000000000000000000000000000000000000000000000000000000081526004018080602001828103825283818151815260200191508051906020019080838360005b83811015611fd1578082015181840152602081019050611fb6565b50505050905090810190601f168015611ffe5780820380516001836020036101000a031916815260200191505b509250505060405180910390fd5b50670de0b6b3a764000067ffffffffffffffff168367ffffffffffffffff16106040805190810160405280601a81526020017f564f54494e475f4348414e47455f535550505f544f4f5f42494700000000000081525090151561210a576040517f08c379a00000000000000000000000000000000000000000000000000000000081526004018080602001828103825283818151815260200191508051906020019080838360005b838110156120cf5780820151818401526020810190506120b4565b50505050905090810190601f1680156120fc5780820380516001836020036101000a031916815260200191505b509250505060405180910390fd5b5082600060146101000a81548167ffffffffffffffff021916908367ffffffffffffffff1602179055507f903b617f7f36eb047a29b89d1bf7885fdae31d250c3320fccf11d045c11b396e83604051808267ffffffffffffffff1667ffffffffffffffff16815260200191505060405180910390a1505050565b600060019050919050565b60006121c17fd625496217aa6a3453eecb9c3489dc5a53e6c67b444329ea2b2cbc9ff547639b60010260001916613da5565b905090565b60006121f87febb05b386a8d34882b8711d156f463690983dc47815980fb82aeeff1aa43579e60010260001916613db0565b905090565b60405180807f5345545f544f4b454e5f524f4c45000000000000000000000000000000000000815250600e0190506040518091039020600019167f9b27b5f34c38cd0d691143dc6188f9aa90e75f5e87b428e9315e822224da1dd26001026000191614151561226857fe5b60405180807f5345545f4d494e5f42414c414e43455f524f4c4500000000000000000000000081525060140190506040518091039020600019167fb1f3f26f63ad27cd630737a426f990492f5c674208299d6fb23bb2b0733d3d66600102600019161415156122d357fe5b60405180807f5345545f4d494e5f54494d455f524f4c4500000000000000000000000000000081525060110190506040518091039020600019167fe7ab0252519cd959720b328191bed7fe61b8e25f77613877be7070646d12daf06001026000191614151561233e57fe5b565b7fe7ab0252519cd959720b328191bed7fe61b8e25f77613877be7070646d12daf060010261239f338260006040519080825280602002602001820160405280156123995781602001602082028038833980820191505090505b5061298f565b6040805190810160405280600f81526020017f4150505f415554485f4641494c4544000000000000000000000000000000000081525090151561247d576040517f08c379a00000000000000000000000000000000000000000000000000000000081526004018080602001828103825283818151815260200191508051906020019080838360005b83811015612442578082015181840152602081019050612427565b50505050905090810190601f16801561246f5780820380516001836020036101000a031916815260200191505b509250505060405180910390fd5b508161a8c081101580156124945750621275008111155b151561252e576040517f08c379a000000000000000000000000000000000000000000000000000000000815260040180806020018281038252603c8152602001807f4d696e2074696d652063616e2774206265206c657373207468616e2068616c6681526020017f20612064617920616e64206d6f7265207468616e2032207765656b730000000081525060400191505060405180910390fd5b826003819055507fcb34d0577abe5b2f96b65ea1bb5de2209ba6309c6909438c6d50dd277ca3b580836040518082815260200191505060405180910390a1505050565b600080600061257f84612184565b6040805190810160405280601281526020017f5245434f5645525f444953414c4c4f574544000000000000000000000000000081525090151561265d576040517f08c379a00000000000000000000000000000000000000000000000000000000081526004018080602001828103825283818151815260200191508051906020019080838360005b83811015612622578082015181840152602081019050612607565b50505050905090810190601f16801561264f5780820380516001836020036101000a031916815260200191505b509250505060405180910390fd5b506126666115f0565b925061267183613dbb565b6040805190810160405280601a81526020017f5245434f5645525f5641554c545f4e4f545f434f4e545241435400000000000081525090151561274f576040517f08c379a00000000000000000000000000000000000000000000000000000000081526004018080602001828103825283818151815260200191508051906020019080838360005b838110156127145780820151818401526020810190506126f9565b50505050905090810190601f1680156127415780820380516001836020036101000a031916815260200191505b509250505060405180910390fd5b50600073ffffffffffffffffffffffffffffffffffffffff168473ffffffffffffffffffffffffffffffffffffffff1614156127eb573073ffffffffffffffffffffffffffffffffffffffff163191508273ffffffffffffffffffffffffffffffffffffffff166108fc839081150290604051600060405180830381858888f193505050501580156127e5573d6000803e3d6000fd5b50612924565b839050612817308273ffffffffffffffffffffffffffffffffffffffff16613e0d90919063ffffffff16565b915061284483838373ffffffffffffffffffffffffffffffffffffffff16613fe79092919063ffffffff16565b6040805190810160405280601d81526020017f5245434f5645525f544f4b454e5f5452414e534645525f4641494c4544000000815250901515612922576040517f08c379a00000000000000000000000000000000000000000000000000000000081526004018080602001828103825283818151815260200191508051906020019080838360005b838110156128e75780820151818401526020810190506128cc565b50505050905090810190601f1680156129145780820380516001836020036101000a031916815260200191505b509250505060405180910390fd5b505b8373ffffffffffffffffffffffffffffffffffffffff168373ffffffffffffffffffffffffffffffffffffffff167f596caf56044b55fb8c4ca640089bbc2b63cae3e978b851f5745cbb7c5b288e02846040518082815260200191505060405180910390a350505050565b60008061299a610fb8565b15156129a95760009150612b83565b6129b16131b6565b9050600073ffffffffffffffffffffffffffffffffffffffff168173ffffffffffffffffffffffffffffffffffffffff1614156129f15760009150612b83565b8073ffffffffffffffffffffffffffffffffffffffff1663fdef9106863087612a19886140c7565b6040518563ffffffff167c0100000000000000000000000000000000000000000000000000000000028152600401808573ffffffffffffffffffffffffffffffffffffffff1673ffffffffffffffffffffffffffffffffffffffff1681526020018473ffffffffffffffffffffffffffffffffffffffff1673ffffffffffffffffffffffffffffffffffffffff168152602001836000191660001916815260200180602001828103825283818151815260200191508051906020019080838360005b83811015612af6578082015181840152602081019050612adb565b50505050905090810190601f168015612b235780820380516001836020036101000a031916815260200191505b5095505050505050602060405180830381600087803b158015612b4557600080fd5b505af1158015612b59573d6000803e3d6000fd5b505050506040513d6020811015612b6f57600080fd5b810190808051906020019092919050505091505b509392505050565b600080612b966131b6565b73ffffffffffffffffffffffffffffffffffffffff1663be00bbd87fd6f028ca0e8edb4a8c9757ca4fdccab25fa1e0317da1188108f7d2dee14902fb6001027fddbcfd564f642ab5627cf68b9b7d374fb4f8a36e941a75d89c87998cef03bd616001026040518363ffffffff167c0100000000000000000000000000000000000000000000000000000000028152600401808360001916600019168152602001826000191660001916815260200192505050602060405180830381600087803b158015612c6257600080fd5b505af1158015612c76573d6000803e3d6000fd5b505050506040513d6020811015612c8c57600080fd5b810190808051906020019092919050505090508091505090565b7fb1f3f26f63ad27cd630737a426f990492f5c674208299d6fb23bb2b0733d3d6660010281565b600160089054906101000a900467ffffffffffffffff1681565b60405180807f4352454154455f564f5445535f524f4c450000000000000000000000000000008152506011019050604051809103902081565b6000612d698360405180807f4352454154455f564f5445535f524f4c4500000000000000000000000000000081525060110190506040518091039020612d646140de565b61298f565b905092915050565b7fe7ab0252519cd959720b328191bed7fe61b8e25f77613877be7070646d12daf060010281565b60025481565b7f9b27b5f34c38cd0d691143dc6188f9aa90e75f5e87b428e9315e822224da1dd260010281565b7fb1f3f26f63ad27cd630737a426f990492f5c674208299d6fb23bb2b0733d3d66600102612e2433826000604051908082528060200260200182016040528015612e1e5781602001602082028038833980820191505090505b5061298f565b6040805190810160405280600f81526020017f4150505f415554485f4641494c45440000000000000000000000000000000000815250901515612f02576040517f08c379a00000000000000000000000000000000000000000000000000000000081526004018080602001828103825283818151815260200191508051906020019080838360005b83811015612ec7578082015181840152602081019050612eac565b50505050905090810190601f168015612ef45780820380516001836020036101000a031916815260200191505b509250505060405180910390fd5b508164496cebb8008110151515612f81576040517f08c379a00000000000000000000000000000000000000000000000000000000081526004018080602001828103825260168152602001807f4e6f7420656e6f756768206d696e2062616c616e63650000000000000000000081525060200191505060405180910390fd5b826002819055507fbd5318adc778260bd213cc16f3ef06cfb4f729adb9309495fed0e10abc61c375836040518082815260200191505060405180910390a1505050565b60008160055481106040805190810160405280600e81526020017f564f54494e475f4e4f5f564f54450000000000000000000000000000000000008152509015156130aa576040517f08c379a00000000000000000000000000000000000000000000000000000000081526004018080602001828103825283818151815260200191508051906020019080838360005b8381101561306f578082015181840152602081019050613054565b50505050905090810190601f16801561309c5780820380516001836020036101000a031916815260200191505b509250505060405180910390fd5b506130b483614116565b915050919050565b60008260055481106040805190810160405280600e81526020017f564f54494e475f4e4f5f564f54450000000000000000000000000000000000008152509015156131a2576040517f08c379a00000000000000000000000000000000000000000000000000000000081526004018080602001828103825283818151815260200191508051906020019080838360005b8381101561316757808201518184015260208101905061314c565b50505050905090810190601f1680156131945780820380516001836020036101000a031916815260200191505b509250505060405180910390fd5b506131ad8484614257565b91505092915050565b60006131e87f4172f0f7d2289153072b0a6ca36959e0cbe2efc3afe50fc81636caa96338137b600102600019166143ad565b905090565b600060405180807f4352454154455f564f5445535f524f4c45000000000000000000000000000000815250601101905060405180910390206132603382600060405190808252806020026020018201604052801561325a5781602001602082028038833980820191505090505b5061298f565b6040805190810160405280600f81526020017f4150505f415554485f4641494c4544000000000000000000000000000000000081525090151561333e576040517f08c379a00000000000000000000000000000000000000000000000000000000081526004018080602001828103825283818151815260200191508051906020019080838360005b838110156133035780820151818401526020810190506132e8565b50505050905090810190601f1680156133305780820380516001836020036101000a031916815260200191505b509250505060405180910390fd5b506133b086868080601f01602080910402602001604051908101604052809392919081815260200183838082843782019150505050505085858080601f0160208091040260200160405190810160405280939291908181526020018383808284378201915050505050506001806143b8565b915050949350505050565b6133c53382612d20565b6040805190810160405280601681526020017f564f54494e475f43414e5f4e4f545f464f5257415244000000000000000000008152509015156134a3576040517f08c379a00000000000000000000000000000000000000000000000000000000081526004018080602001828103825283818151815260200191508051906020019080838360005b8381101561346857808201518184015260208101905061344d565b50505050905090810190601f1680156134955780820380516001836020036101000a031916815260200191505b509250505060405180910390fd5b506134c18160206040519081016040528060008152506001806143b8565b5050565b600160009054906101000a900467ffffffffffffffff1681565b60007fffffffffffffffffffffffffffffffffffffffffffffffffffffffffffffffff61350a6121c6565b14905090565b60055481565b8260055481106040805190810160405280600e81526020017f564f54494e475f4e4f5f564f54450000000000000000000000000000000000008152509015156135fa576040517f08c379a00000000000000000000000000000000000000000000000000000000081526004018080602001828103825283818151815260200191508051906020019080838360005b838110156135bf5780820151818401526020810190506135a4565b50505050905090810190601f1680156135ec5780820380516001836020036101000a031916815260200191505b509250505060405180910390fd5b506136058433614257565b6040805190810160405280601381526020017f564f54494e475f43414e5f4e4f545f564f5445000000000000000000000000008152509015156136e3576040517f08c379a00000000000000000000000000000000000000000000000000000000081526004018080602001828103825283818151815260200191508051906020019080838360005b838110156136a857808201518184015260208101905061368d565b50505050905090810190601f1680156136d55780820380516001836020036101000a031916815260200191505b509250505060405180910390fd5b506136f0848433856147fb565b50505050565b600060405180807f4352454154455f564f5445535f524f4c4500000000000000000000000000000081525060110190506040518091039020613769338260006040519080825280602002602001820160405280156137635781602001602082028038833980820191505090505b5061298f565b6040805190810160405280600f81526020017f4150505f415554485f4641494c45440000000000000000000000000000000000815250901515613847576040517f08c379a00000000000000000000000000000000000000000000000000000000081526004018080602001828103825283818151815260200191508051906020019080838360005b8381101561380c5780820151818401526020810190506137f1565b50505050905090810190601f1680156138395780820380516001836020036101000a031916815260200191505b509250505060405180910390fd5b506138b888888080601f01602080910402602001604051908101604052809392919081815260200183838082843782019150505050505087878080601f01602080910402602001604051908101604052809392919081815260200183838082843782019150505050505086866143b8565b9150509695505050505050565b8060055481106040805190810160405280600e81526020017f564f54494e475f4e4f5f564f54450000000000000000000000000000000000008152509015156139a9576040517f08c379a00000000000000000000000000000000000000000000000000000000081526004018080602001828103825283818151815260200191508051906020019080838360005b8381101561396e578082015181840152602081019050613953565b50505050905090810190601f16801561399b5780820380516001836020036101000a031916815260200191505b509250505060405180910390fd5b506139b382614c37565b5050565b600060149054906101000a900467ffffffffffffffff1681565b6000809054906101000a900473ffffffffffffffffffffffffffffffffffffffff1681565b670de0b6b3a764000081565b60006001905090565b60006002546000809054906101000a900473ffffffffffffffffffffffffffffffffffffffff1673ffffffffffffffffffffffffffffffffffffffff166370a08231336040518263ffffffff167c0100000000000000000000000000000000000000000000000000000000028152600401808273ffffffffffffffffffffffffffffffffffffffff1673ffffffffffffffffffffffffffffffffffffffff168152602001915050602060405180830381600087803b158015613acc57600080fd5b505af1158015613ae0573d6000803e3d6000fd5b505050506040513d6020811015613af657600080fd5b810190808051906020019092919050505010158015613b685750600660003373ffffffffffffffffffffffffffffffffffffffff1673ffffffffffffffffffffffffffffffffffffffff16815260200190815260200160002054613b6560035442614d2b90919063ffffffff16565b10155b905090565b600043905090565b6000613b7f6121c6565b146040805190810160405280601881526020017f494e49545f414c52454144595f494e495449414c495a45440000000000000000815250901515613c5e576040517f08c379a00000000000000000000000000000000000000000000000000000000081526004018080602001828103825283818151815260200191508051906020019080838360005b83811015613c23578082015181840152602081019050613c08565b50505050905090810190601f168015613c505780820380516001836020036101000a031916815260200191505b509250505060405180910390fd5b50613ca0613c6a613b6d565b7febb05b386a8d34882b8711d156f463690983dc47815980fb82aeeff1aa43579e60010260001916614e2090919063ffffffff16565b565b6000613cef600160089054906101000a900467ffffffffffffffff168360000160019054906101000a900467ffffffffffffffff1667ffffffffffffffff16614e2790919063ffffffff16565b67ffffffffffffffff16613d01614f30565b67ffffffffffffffff16108015613d2757508160000160009054906101000a900460ff16155b9050919050565b60606002604051908082528060200260200182016040528015613d605781602001602082028038833980820191505090505b50905082816000815181101515613d7357fe5b906020019060200201818152505081816001815181101515613d9157fe5b906020019060200201818152505092915050565b600081549050919050565b600081549050919050565b600080600073ffffffffffffffffffffffffffffffffffffffff168373ffffffffffffffffffffffffffffffffffffffff161415613dfc5760009150613e07565b823b90506000811191505b50919050565b600060606000808573ffffffffffffffffffffffffffffffffffffffff166370a0823190507c01000000000000000000000000000000000000000000000000000000000285604051602401808273ffffffffffffffffffffffffffffffffffffffff1673ffffffffffffffffffffffffffffffffffffffff168152602001915050604051602081830303815290604052907bffffffffffffffffffffffffffffffffffffffffffffffffffffffff19166020820180517bffffffffffffffffffffffffffffffffffffffffffffffffffffffff83818316178352505050509250613ef78684614f47565b91509150816040805190810160405280601c81526020017f534146455f4552435f32305f42414c414e43455f524556455254454400000000815250901515613fda576040517f08c379a00000000000000000000000000000000000000000000000000000000081526004018080602001828103825283818151815260200191508051906020019080838360005b83811015613f9f578082015181840152602081019050613f84565b50505050905090810190601f168015613fcc5780820380516001836020036101000a031916815260200191505b509250505060405180910390fd5b5080935050505092915050565b6000606063a9059cbb7c0100000000000000000000000000000000000000000000000000000000028484604051602401808373ffffffffffffffffffffffffffffffffffffffff1673ffffffffffffffffffffffffffffffffffffffff16815260200182815260200192505050604051602081830303815290604052907bffffffffffffffffffffffffffffffffffffffffffffffffffffffff19166020820180517bffffffffffffffffffffffffffffffffffffffffffffffffffffffff838183161783525050505090506140bd8582614f7c565b9150509392505050565b606060006020835102905082915080825250919050565b606060006040519080825280602002602001820160405280156141105781602001602082028038833980820191505090505b50905090565b60008060006004600085815260200190815260200160002091508160000160009054906101000a900460ff16156141505760009250614250565b614185826002015483600401548460000160119054906101000a900467ffffffffffffffff1667ffffffffffffffff16614fce565b156141935760019250614250565b61419c82613ca2565b156141aa5760009250614250565b6141c58260030154836002015461502390919063ffffffff16565b90506141f88260020154828460000160119054906101000a900467ffffffffffffffff1667ffffffffffffffff16614fce565b15156142075760009250614250565b61423c826002015483600401548460010160009054906101000a900467ffffffffffffffff1667ffffffffffffffff16614fce565b151561424b5760009250614250565b600192505b5050919050565b60008060046000858152602001908152602001600020905061427881613ca2565b80156143a4575060008060009054906101000a900473ffffffffffffffffffffffffffffffffffffffff1673ffffffffffffffffffffffffffffffffffffffff16634ee2cd7e858460000160099054906101000a900467ffffffffffffffff166040518363ffffffff167c0100000000000000000000000000000000000000000000000000000000028152600401808373ffffffffffffffffffffffffffffffffffffffff1673ffffffffffffffffffffffffffffffffffffffff1681526020018267ffffffffffffffff16815260200192505050602060405180830381600087803b15801561436757600080fd5b505af115801561437b573d6000803e3d6000fd5b505050506040513d602081101561439157600080fd5b8101908080519060200190929190505050115b91505092915050565b600081549050919050565b6000806000806143c6613a0b565b15156143d157600080fd5b60016143db615118565b0392506000809054906101000a900473ffffffffffffffffffffffffffffffffffffffff1673ffffffffffffffffffffffffffffffffffffffff1663981b24d0846040518263ffffffff167c0100000000000000000000000000000000000000000000000000000000028152600401808267ffffffffffffffff168152602001915050602060405180830381600087803b15801561447857600080fd5b505af115801561448c573d6000803e3d6000fd5b505050506040513d60208110156144a257600080fd5b81019080805190602001909291905050509150600082116040805190810160405280601681526020017f564f54494e475f4e4f5f564f54494e475f504f57455200000000000000000000815250901515614597576040517f08c379a00000000000000000000000000000000000000000000000000000000081526004018080602001828103825283818151815260200191508051906020019080838360005b8381101561455c578082015181840152602081019050614541565b50505050905090810190601f1680156145895780820380516001836020036101000a031916815260200191505b509250505060405180910390fd5b50600560008154809291906001019190505593506004600085815260200190815260200160002090506145c8614f30565b8160000160016101000a81548167ffffffffffffffff021916908367ffffffffffffffff160217905550828160000160096101000a81548167ffffffffffffffff021916908367ffffffffffffffff160217905550600060149054906101000a900467ffffffffffffffff168160000160116101000a81548167ffffffffffffffff021916908367ffffffffffffffff160217905550600160009054906101000a900467ffffffffffffffff168160010160006101000a81548167ffffffffffffffff021916908367ffffffffffffffff160217905550818160040181905550878160050190805190602001906146c0929190615f15565b503373ffffffffffffffffffffffffffffffffffffffff16847f4d72fe0577a3a3f7da968d7b892779dde102519c25527b29cf7054f245c791b9896040518080602001828103825283818151815260200191508051906020019080838360005b8381101561473b578082015181840152602081019050614720565b50505050905090810190601f1680156147685780820380516001836020036101000a031916815260200191505b509250505060405180910390a361477d614f30565b67ffffffffffffffff16600660003373ffffffffffffffffffffffffffffffffffffffff1673ffffffffffffffffffffffffffffffffffffffff168152602001908152602001600020819055508580156147dd57506147dc8433614257565b5b156147f0576147ef84600133886147fb565b5b505050949350505050565b60008060006004600088815260200190815260200160002092508260060160008673ffffffffffffffffffffffffffffffffffffffff1673ffffffffffffffffffffffffffffffffffffffff16815260200190815260200160002060009054906101000a900460ff1691506001600281111561487357fe5b82600281111561487f57fe5b141580156148a3575060028081111561489457fe5b8260028111156148a057fe5b14155b1515614917576040517f08c379a00000000000000000000000000000000000000000000000000000000081526004018080602001828103825260128152602001807f43616e2774206368616e676520766f746573000000000000000000000000000081525060200191505060405180910390fd5b6000809054906101000a900473ffffffffffffffffffffffffffffffffffffffff1673ffffffffffffffffffffffffffffffffffffffff16634ee2cd7e868560000160099054906101000a900467ffffffffffffffff166040518363ffffffff167c0100000000000000000000000000000000000000000000000000000000028152600401808373ffffffffffffffffffffffffffffffffffffffff1673ffffffffffffffffffffffffffffffffffffffff1681526020018267ffffffffffffffff16815260200192505050602060405180830381600087803b1580156149fd57600080fd5b505af1158015614a11573d6000803e3d6000fd5b505050506040513d6020811015614a2757600080fd5b81019080805190602001909291905050509050614af6600160089054906101000a900467ffffffffffffffff1667ffffffffffffffff16614ae8614acf614a6c614f30565b614ab7600160089054906101000a900467ffffffffffffffff168960000160019054906101000a900467ffffffffffffffff1667ffffffffffffffff16614e2790919063ffffffff16565b67ffffffffffffffff1661512f90919063ffffffff16565b67ffffffffffffffff168461523890919063ffffffff16565b61534a90919063ffffffff16565b90508515614b2257614b1581846002015461502390919063ffffffff16565b8360020181905550614b42565b614b3981846003015461502390919063ffffffff16565b83600301819055505b85614b4e576002614b51565b60015b8360060160008773ffffffffffffffffffffffffffffffffffffffff1673ffffffffffffffffffffffffffffffffffffffff16815260200190815260200160002060006101000a81548160ff02191690836002811115614bad57fe5b02179055508473ffffffffffffffffffffffffffffffffffffffff16877fb34ee265e3d4f5ec4e8b52d59b2a9be8fceca2f274ebc080d8fba797fea9391f888460405180831515151581526020018281526020019250505060405180910390a3838015614c1f5750614c1e87614116565b5b15614c2e57614c2d87615448565b5b50505050505050565b614c4081614116565b6040805190810160405280601681526020017f564f54494e475f43414e5f4e4f545f4558454355544500000000000000000000815250901515614d1e576040517f08c379a00000000000000000000000000000000000000000000000000000000081526004018080602001828103825283818151815260200191508051906020019080838360005b83811015614ce3578082015181840152602081019050614cc8565b50505050905090810190601f168015614d105780820380516001836020036101000a031916815260200191505b509250505060405180910390fd5b50614d2881615448565b50565b600080838311156040805190810160405280601281526020017f4d4154485f5355425f554e444552464c4f570000000000000000000000000000815250901515614e10576040517f08c379a00000000000000000000000000000000000000000000000000000000081526004018080602001828103825283818151815260200191508051906020019080838360005b83811015614dd5578082015181840152602081019050614dba565b50505050905090810190601f168015614e025780820380516001836020036101000a031916815260200191505b509250505060405180910390fd5b5082840390508091505092915050565b8082555050565b60008082840190508367ffffffffffffffff168167ffffffffffffffff1610156040805190810160405280601381526020017f4d41544836345f4144445f4f564552464c4f5700000000000000000000000000815250901515614f25576040517f08c379a00000000000000000000000000000000000000000000000000000000081526004018080602001828103825283818151815260200191508051906020019080838360005b83811015614eea578082015181840152602081019050614ecf565b50505050905090810190601f168015614f175780820380516001836020036101000a031916815260200191505b509250505060405180910390fd5b508091505092915050565b6000614f42614f3d6155bf565b6155c7565b905090565b6000806000806040516020818751602089018a5afa92506000831115614f6c57805191505b5081819350935050509250929050565b6000806040516020818551602087016000895af16000811115614fc2573d60008114614faf5760208114614fb857614fc0565b60019350614fc0565b600183511493505b505b50508091505092915050565b6000806000841415614fe3576000915061501b565b83615009670de0b6b3a764000067ffffffffffffffff168761523890919063ffffffff16565b81151561501257fe5b04905082811191505b509392505050565b6000808284019050838110156040805190810160405280601181526020017f4d4154485f4144445f4f564552464c4f5700000000000000000000000000000081525090151561510d576040517f08c379a00000000000000000000000000000000000000000000000000000000081526004018080602001828103825283818151815260200191508051906020019080838360005b838110156150d25780820151818401526020810190506150b7565b50505050905090810190601f1680156150ff5780820380516001836020036101000a031916815260200191505b509250505060405180910390fd5b508091505092915050565b600061512a615125613b6d565b6155c7565b905090565b6000808367ffffffffffffffff168367ffffffffffffffff1611156040805190810160405280601481526020017f4d41544836345f5355425f554e444552464c4f57000000000000000000000000815250901515615228576040517f08c379a00000000000000000000000000000000000000000000000000000000081526004018080602001828103825283818151815260200191508051906020019080838360005b838110156151ed5780820151818401526020810190506151d2565b50505050905090810190601f16801561521a5780820380516001836020036101000a031916815260200191505b509250505060405180910390fd5b5082840390508091505092915050565b600080600084141561524d5760009150615343565b828402905082848281151561525e57fe5b04146040805190810160405280601181526020017f4d4154485f4d554c5f4f564552464c4f5700000000000000000000000000000081525090151561533e576040517f08c379a00000000000000000000000000000000000000000000000000000000081526004018080602001828103825283818151815260200191508051906020019080838360005b838110156153035780820151818401526020810190506152e8565b50505050905090810190601f1680156153305780820380516001836020036101000a031916815260200191505b509250505060405180910390fd5b508091505b5092915050565b600080600083116040805190810160405280600d81526020017f4d4154485f4449565f5a45524f0000000000000000000000000000000000000081525090151561542f576040517f08c379a00000000000000000000000000000000000000000000000000000000081526004018080602001828103825283818151815260200191508051906020019080838360005b838110156153f45780820151818401526020810190506153d9565b50505050905090810190601f1680156154215780820380516001836020036101000a031916815260200191505b509250505060405180910390fd5b50828481151561543b57fe5b0490508091505092915050565b6000606060046000848152602001908152602001600020915060018260000160006101000a81548160ff02191690831515021790555060006040519080825280601f01601f1916602001820160405280156154b25781602001602082028038833980820191505090505b50905061558c826005018054600181600116156101000203166002900480601f0160208091040260200160405190810160405280929190818152602001828054600181600116156101000203166002900480156155505780601f1061552557610100808354040283529160200191615550565b820191906000526020600020905b81548152906001019060200180831161553357829003601f168201915b50505050508260006040519080825280602002602001820160405280156155865781602001602082028038833980820191505090505b506156de565b50827fbf8e2b108bb7c980e08903a8a46527699d5e84905a082d56dacb4150725c8cab60405160405180910390a2505050565b600042905090565b60007fffffffffffffffffffffffffffffffffffffffffffffffffffffffffffffffff67ffffffffffffffff168211156040805190810160405280601581526020017f55494e5436345f4e554d4245525f544f4f5f42494700000000000000000000008152509015156156d5576040517f08c379a00000000000000000000000000000000000000000000000000000000081526004018080602001828103825283818151815260200191508051906020019080838360005b8381101561569a57808201518184015260208101905061567f565b50505050905090810190601f1680156156c75780820380516001836020036101000a031916815260200191505b509250505060405180910390fd5b50819050919050565b60606000806060806156ee610fb8565b6040805190810160405280601481526020017f494e49545f4e4f545f494e495449414c495a45440000000000000000000000008152509015156157cc576040517f08c379a00000000000000000000000000000000000000000000000000000000081526004018080602001828103825283818151815260200191508051906020019080838360005b83811015615791578082015181840152602081019050615776565b50505050905090810190601f1680156157be5780820380516001836020036101000a031916815260200191505b509250505060405180910390fd5b506000806157d86131b6565b91506157e261218f565b90506157ed8a6114d1565b9550600073ffffffffffffffffffffffffffffffffffffffff168673ffffffffffffffffffffffffffffffffffffffff1614156040805190810160405280601b81526020017f45564d52554e5f4558454355544f525f554e415641494c41424c4500000000008152509015156158fe576040517f08c379a00000000000000000000000000000000000000000000000000000000081526004018080602001828103825283818151815260200191508051906020019080838360005b838110156158c35780820151818401526020810190506158a8565b50505050905090810190601f1680156158f05780820380516001836020036101000a031916815260200191505b509250505060405180910390fd5b508573ffffffffffffffffffffffffffffffffffffffff1663279cea3590507c0100000000000000000000000000000000000000000000000000000000029450848a8a8a60405160240180806020018060200180602001848103845287818151815260200191508051906020019080838360005b8381101561598d578082015181840152602081019050615972565b50505050905090810190601f1680156159ba5780820380516001836020036101000a031916815260200191505b50848103835286818151815260200191508051906020019080838360005b838110156159f35780820151818401526020810190506159d8565b50505050905090810190601f168015615a205780820380516001836020036101000a031916815260200191505b50848103825285818151815260200191508051906020019060200280838360005b83811015615a5c578082015181840152602081019050615a41565b505050509050019650505050505050604051602081830303815290604052907bffffffffffffffffffffffffffffffffffffffffffffffffffffffff19166020820180517bffffffffffffffffffffffffffffffffffffffffffffffffffffffff83818316178352505050509350600080855160208701895af460405193508060008114615b6757603f3d1160008114615b055760203d03806020883e80870160405250615b61565b7f08c379a000000000000000000000000000000000000000000000000000000000865260206004870152601e60248701527f45564d52554e5f4558454355544f525f494e56414c49445f52455455524e00006044870152606486fd5b50615b70565b3d6000863e3d85fd5b50508573ffffffffffffffffffffffffffffffffffffffff167f5229a5dba83a54ae8cb5b51bdd6de9474cacbe9dd332f5185f3a4f4f2e3f4ad98b8b8660405180806020018060200180602001848103845287818151815260200191508051906020019080838360005b83811015615bf5578082015181840152602081019050615bda565b50505050905090810190601f168015615c225780820380516001836020036101000a031916815260200191505b50848103835286818151815260200191508051906020019080838360005b83811015615c5b578082015181840152602081019050615c40565b50505050905090810190601f168015615c885780820380516001836020036101000a031916815260200191505b50848103825285818151815260200191508051906020019080838360005b83811015615cc1578082015181840152602081019050615ca6565b50505050905090810190601f168015615cee5780820380516001836020036101000a031916815260200191505b50965050505050505060405180910390a28296508173ffffffffffffffffffffffffffffffffffffffff16615d216131b6565b73ffffffffffffffffffffffffffffffffffffffff16146040805190810160405280601f81526020017f45564d52554e5f50524f5445435445445f53544154455f4d4f44494649454400815250901515615e16576040517f08c379a00000000000000000000000000000000000000000000000000000000081526004018080602001828103825283818151815260200191508051906020019080838360005b83811015615ddb578082015181840152602081019050615dc0565b50505050905090810190601f168015615e085780820380516001836020036101000a031916815260200191505b509250505060405180910390fd5b508060001916615e2461218f565b60001916146040805190810160405280601f81526020017f45564d52554e5f50524f5445435445445f53544154455f4d4f44494649454400815250901515615f07576040517f08c379a00000000000000000000000000000000000000000000000000000000081526004018080602001828103825283818151815260200191508051906020019080838360005b83811015615ecc578082015181840152602081019050615eb1565b50505050905090810190601f168015615ef95780820380516001836020036101000a031916815260200191505b509250505060405180910390fd5b505050505050509392505050565b828054600181600116156101000203166002900490600052602060002090601f016020900481019282601f10615f5657805160ff1916838001178555615f84565b82800160010185558215615f84579182015b82811115615f83578251825591602001919060010190615f68565b5b509050615f919190615f95565b5090565b615fb791905b80821115615fb3576000816000905550600101615f9b565b5090565b905600a165627a7a72305820a0db119755d6a007d277c9cb7c9367f11a3a95ed01b380c6814f6b8e0d7118e40029",
  "source": "/*\n * SPDX-License-Identitifer:    GPL-3.0-or-later\n */\n\npragma solidity 0.4.24;\n\nimport \"@aragon/os/contracts/apps/AragonApp.sol\";\nimport \"@aragon/os/contracts/common/IForwarder.sol\";\n\nimport \"@aragon/os/contracts/lib/math/SafeMath.sol\";\nimport \"@aragon/os/contracts/lib/math/SafeMath64.sol\";\n\nimport \"@aragon/apps-shared-minime/contracts/MiniMeToken.sol\";\n\n\ncontract Voting is IForwarder, AragonApp {\n    using SafeMath for uint256;\n    using SafeMath64 for uint64;\n\n    bytes32 public constant CREATE_VOTES_ROLE = keccak256(\"CREATE_VOTES_ROLE\");\n    bytes32 public constant MODIFY_SUPPORT_ROLE = keccak256(\"MODIFY_SUPPORT_ROLE\");\n    bytes32 public constant MODIFY_QUORUM_ROLE = keccak256(\"MODIFY_QUORUM_ROLE\");\n\n    bytes32 public constant SET_TOKEN_ROLE = 0x9b27b5f34c38cd0d691143dc6188f9aa90e75f5e87b428e9315e822224da1dd2; //keccak256(\"SET_TOKEN_ROLE\")\n    bytes32 public constant SET_MIN_BALANCE_ROLE = 0xb1f3f26f63ad27cd630737a426f990492f5c674208299d6fb23bb2b0733d3d66; //keccak256(\"SET_MIN_BALANCE_ROLE\")\n    bytes32 public constant SET_MIN_TIME_ROLE = 0xe7ab0252519cd959720b328191bed7fe61b8e25f77613877be7070646d12daf0; //keccak256(\"SET_MIN_TIME_ROLE\")\n\n    uint64 public constant PCT_BASE = 10 ** 18; // 0% = 0; 1% = 10^16; 100% = 10^18\n\n    string private constant ERROR_NO_VOTE = \"VOTING_NO_VOTE\";\n    string private constant ERROR_INIT_PCTS = \"VOTING_INIT_PCTS\";\n    string private constant ERROR_CHANGE_SUPPORT_PCTS = \"VOTING_CHANGE_SUPPORT_PCTS\";\n    string private constant ERROR_CHANGE_QUORUM_PCTS = \"VOTING_CHANGE_QUORUM_PCTS\";\n    string private constant ERROR_INIT_SUPPORT_TOO_BIG = \"VOTING_INIT_SUPPORT_TOO_BIG\";\n    string private constant ERROR_CHANGE_SUPPORT_TOO_BIG = \"VOTING_CHANGE_SUPP_TOO_BIG\";\n    string private constant ERROR_CAN_NOT_VOTE = \"VOTING_CAN_NOT_VOTE\";\n    string private constant ERROR_CAN_NOT_EXECUTE = \"VOTING_CAN_NOT_EXECUTE\";\n    string private constant ERROR_CAN_NOT_FORWARD = \"VOTING_CAN_NOT_FORWARD\";\n    string private constant ERROR_NO_VOTING_POWER = \"VOTING_NO_VOTING_POWER\";\n\n    enum VoterState { Absent, Yea, Nay }\n\n    struct Vote {\n        bool executed;\n        uint64 startDate;\n        uint64 snapshotBlock;\n        uint64 supportRequiredPct;\n        uint64 minAcceptQuorumPct;\n        uint256 yea;\n        uint256 nay;\n        uint256 votingPower;\n        bytes executionScript;\n        mapping (address => VoterState) voters;\n    }\n\n    MiniMeToken public token;\n    uint64 public supportRequiredPct;\n    uint64 public minAcceptQuorumPct;\n    uint64 public voteTime;\n\n    uint256 public minBalance;\n    uint256 public minTime;\n\n    // We are mimicing an array, we use a mapping instead to make app upgrade more graceful\n    mapping (uint256 => Vote) internal votes;\n    uint256 public votesLength;\n\n    mapping(address => uint256) public lastCreateVoteTimes;\n\n    event StartVote(uint256 indexed voteId, address indexed creator, string metadata);\n    event CastVote(uint256 indexed voteId, address indexed voter, bool supports, uint256 stake);\n    event ExecuteVote(uint256 indexed voteId);\n    event ChangeSupportRequired(uint64 supportRequiredPct);\n    event ChangeMinQuorum(uint64 minAcceptQuorumPct);\n\n    event MinimumBalanceSet(uint256 minBalance);\n    event MinimumTimeSet(uint256 minTime);\n\n    modifier voteExists(uint256 _voteId) {\n        require(_voteId < votesLength, ERROR_NO_VOTE);\n        _;\n    }\n\n    modifier minBalanceCheck(uint256 _minBalance) {\n        //_minBalance to be at least the equivalent of 10k locked for a year\n        require(_minBalance >= 315360000000, \"Not enough min balance\");\n        _;\n    }\n\n    modifier minTimeCheck(uint256 _minTime) {\n        require(_minTime >= 43200 && _minTime <= 1209600, \"Min time can't be less than half a day and more than 2 weeks\");\n        _;\n    }\n\n    function constructor() public {\n        assert(SET_TOKEN_ROLE == keccak256(\"SET_TOKEN_ROLE\"));\n        assert(SET_MIN_BALANCE_ROLE == keccak256(\"SET_MIN_BALANCE_ROLE\"));\n        assert(SET_MIN_TIME_ROLE == keccak256(\"SET_MIN_TIME_ROLE\"));\n    }\n\n    /**\n    * @notice Initialize Voting app with `_token.symbol(): string` for governance, minimum support of `@formatPct(_supportRequiredPct)`%, minimum acceptance quorum of `@formatPct(_minAcceptQuorumPct)`%, and a voting duration of `@transformTime(_voteTime)`\n    * @param _token MiniMeToken Address that will be used as governance token\n    * @param _supportRequiredPct Percentage of yeas in casted votes for a vote to succeed (expressed as a percentage of 10^18; eg. 10^16 = 1%, 10^18 = 100%)\n    * @param _minAcceptQuorumPct Percentage of yeas in total possible votes for a vote to succeed (expressed as a percentage of 10^18; eg. 10^16 = 1%, 10^18 = 100%)\n    * @param _voteTime Seconds that a vote will be open for token holders to vote (unless enough yeas or nays have been cast to make an early decision)\n    */\n    function initialize(MiniMeToken _token, \n        uint64 _supportRequiredPct, \n        uint64 _minAcceptQuorumPct, \n        uint64 _voteTime,\n        uint256 _minBalance,\n        uint256 _minTime\n    ) external onlyInit minBalanceCheck(_minBalance) minTimeCheck(_minTime) {\n        initialized();\n\n        require(_minAcceptQuorumPct <= _supportRequiredPct, ERROR_INIT_PCTS);\n        require(_supportRequiredPct < PCT_BASE, ERROR_INIT_SUPPORT_TOO_BIG);\n\n        token = _token;\n        supportRequiredPct = _supportRequiredPct;\n        minAcceptQuorumPct = _minAcceptQuorumPct;\n        voteTime = _voteTime;\n\n        minBalance = _minBalance;\n        minTime = _minTime;\n    }\n\n    /**\n    * @notice Change required support to `@formatPct(_supportRequiredPct)`%\n    * @param _supportRequiredPct New required support\n    */\n    function changeSupportRequiredPct(uint64 _supportRequiredPct)\n        external\n        authP(MODIFY_SUPPORT_ROLE, arr(uint256(_supportRequiredPct), uint256(supportRequiredPct)))\n    {\n        require(minAcceptQuorumPct <= _supportRequiredPct, ERROR_CHANGE_SUPPORT_PCTS);\n        require(_supportRequiredPct < PCT_BASE, ERROR_CHANGE_SUPPORT_TOO_BIG);\n        supportRequiredPct = _supportRequiredPct;\n\n        emit ChangeSupportRequired(_supportRequiredPct);\n    }\n\n    /**\n    * @notice Change minimum acceptance quorum to `@formatPct(_minAcceptQuorumPct)`%\n    * @param _minAcceptQuorumPct New acceptance quorum\n    */\n    function changeMinAcceptQuorumPct(uint64 _minAcceptQuorumPct)\n        external\n        authP(MODIFY_QUORUM_ROLE, arr(uint256(_minAcceptQuorumPct), uint256(minAcceptQuorumPct)))\n    {\n        require(_minAcceptQuorumPct <= supportRequiredPct, ERROR_CHANGE_QUORUM_PCTS);\n        minAcceptQuorumPct = _minAcceptQuorumPct;\n\n        emit ChangeMinQuorum(_minAcceptQuorumPct);\n    }\n\n    function setMinBalance(uint256 _minBalance) external auth(SET_MIN_BALANCE_ROLE) minBalanceCheck(_minBalance) {\n        //min balance can't be set to lower than 10k * 1 year\n        minBalance = _minBalance;\n\n        emit MinimumBalanceSet(_minBalance);\n    }\n\n    function setMinTime(uint256 _minTime) external auth(SET_MIN_TIME_ROLE) minTimeCheck(_minTime) {\n        //min time can't be less than half a day and more than 2 weeks\n        minTime = _minTime;\n\n        emit MinimumTimeSet(_minTime);\n    }\n\n    /**\n    * @notice Create a new vote about \"`_metadata`\"\n    * @param _executionScript EVM script to be executed on approval\n    * @param _metadata Vote metadata\n    * @return voteId Id for newly created vote\n    */\n    function newVote(bytes _executionScript, string _metadata) external auth(CREATE_VOTES_ROLE) returns (uint256 voteId) {\n        return _newVote(_executionScript, _metadata, true, true);\n    }\n\n    /**\n    * @notice Create a new vote about \"`_metadata`\"\n    * @param _executionScript EVM script to be executed on approval\n    * @param _metadata Vote metadata\n    * @param _castVote Whether to also cast newly created vote\n    * @param _executesIfDecided Whether to also immediately execute newly created vote if decided\n    * @return voteId id for newly created vote\n    */\n    function newVote(bytes _executionScript, string _metadata, bool _castVote, bool _executesIfDecided)\n        external\n        auth(CREATE_VOTES_ROLE)\n        returns (uint256 voteId)\n    {\n        return _newVote(_executionScript, _metadata, _castVote, _executesIfDecided);\n    }\n\n    /**\n    * @notice Vote `_supports ? 'yes' : 'no'` in vote #`_voteId`\n    * @dev Initialization check is implicitly provided by `voteExists()` as new votes can only be\n    *      created via `newVote(),` which requires initialization\n    * @param _voteId Id for vote\n    * @param _supports Whether voter supports the vote\n    * @param _executesIfDecided Whether the vote should execute its action if it becomes decided\n    */\n    function vote(uint256 _voteId, bool _supports, bool _executesIfDecided) external voteExists(_voteId) {\n        require(_canVote(_voteId, msg.sender), ERROR_CAN_NOT_VOTE);\n        _vote(_voteId, _supports, msg.sender, _executesIfDecided);\n    }\n\n    /**\n    * @notice Execute vote #`_voteId`\n    * @dev Initialization check is implicitly provided by `voteExists()` as new votes can only be\n    *      created via `newVote(),` which requires initialization\n    * @param _voteId Id for vote\n    */\n    function executeVote(uint256 _voteId) external voteExists(_voteId) {\n        _executeVote(_voteId);\n    }\n\n    // Forwarding fns\n\n    /**\n    * @notice Tells whether the Voting app is a forwarder or not\n    * @dev IForwarder interface conformance\n    * @return Always true\n    */\n    function isForwarder() external pure returns (bool) {\n        return true;\n    }\n\n    /**\n    * @notice Creates a vote to execute the desired action, and casts a support vote if possible\n    * @dev IForwarder interface conformance\n    * @param _evmScript Start vote with script\n    */\n    function forward(bytes _evmScript) public {\n        require(canForward(msg.sender, _evmScript), ERROR_CAN_NOT_FORWARD);\n        _newVote(_evmScript, \"\", true, true);\n    }\n\n    /**\n    * @notice Tells whether `_sender` can forward actions or not\n    * @dev IForwarder interface conformance\n    * @param _sender Address of the account intending to forward an action\n    * @return True if the given address can create votes, false otherwise\n    */\n    function canForward(address _sender, bytes) public view returns (bool) {\n        // Note that `canPerform()` implicitly does an initialization check itself\n        return canPerform(_sender, CREATE_VOTES_ROLE, arr());\n    }\n\n    // Getter fns\n\n    /**\n    * @notice Tells whether a vote #`_voteId` can be executed or not\n    * @dev Initialization check is implicitly provided by `voteExists()` as new votes can only be\n    *      created via `newVote(),` which requires initialization\n    * @return True if the given vote can be executed, false otherwise\n    */\n    function canExecute(uint256 _voteId) public view voteExists(_voteId) returns (bool) {\n        return _canExecute(_voteId);\n    }\n\n    /**\n    * @notice Tells whether `_sender` can participate in the vote #`_voteId` or not\n    * @dev Initialization check is implicitly provided by `voteExists()` as new votes can only be\n    *      created via `newVote(),` which requires initialization\n    * @return True if the given voter can participate a certain vote, false otherwise\n    */\n    function canVote(uint256 _voteId, address _voter) public view voteExists(_voteId) returns (bool) {\n        return _canVote(_voteId, _voter);\n    }\n\n    function canCreateNewVote() public returns(bool) {\n        return token.balanceOf(msg.sender) >= minBalance &&  block.timestamp.sub(minTime) >= lastCreateVoteTimes[msg.sender];\n    }\n\n    /**\n    * @dev Return all information for a vote by its ID\n    * @param _voteId Vote identifier\n    * @return Vote open status\n    * @return Vote executed status\n    * @return Vote start date\n    * @return Vote snapshot block\n    * @return Vote support required\n    * @return Vote minimum acceptance quorum\n    * @return Vote yeas amount\n    * @return Vote nays amount\n    * @return Vote power\n    * @return Vote script\n    */\n    function getVote(uint256 _voteId)\n        public\n        view\n        voteExists(_voteId)\n        returns (\n            bool open,\n            bool executed,\n            uint64 startDate,\n            uint64 snapshotBlock,\n            uint64 supportRequired,\n            uint64 minAcceptQuorum,\n            uint256 yea,\n            uint256 nay,\n            uint256 votingPower,\n            bytes script\n        )\n    {\n        Vote storage vote_ = votes[_voteId];\n\n        open = _isVoteOpen(vote_);\n        executed = vote_.executed;\n        startDate = vote_.startDate;\n        snapshotBlock = vote_.snapshotBlock;\n        supportRequired = vote_.supportRequiredPct;\n        minAcceptQuorum = vote_.minAcceptQuorumPct;\n        yea = vote_.yea;\n        nay = vote_.nay;\n        votingPower = vote_.votingPower;\n        script = vote_.executionScript;\n    }\n\n    /**\n    * @dev Return the state of a voter for a given vote by its ID\n    * @param _voteId Vote identifier\n    * @return VoterState of the requested voter for a certain vote\n    */\n    function getVoterState(uint256 _voteId, address _voter) public view voteExists(_voteId) returns (VoterState) {\n        return votes[_voteId].voters[_voter];\n    }\n\n    // Internal fns\n\n    /**\n    * @dev Internal function to create a new vote\n    * @return voteId id for newly created vote\n    */\n    function _newVote(bytes _executionScript, string _metadata, bool _castVote, bool _executesIfDecided) internal returns (uint256 voteId) {\n        require(canCreateNewVote());\n        uint64 snapshotBlock = getBlockNumber64() - 1; // avoid double voting in this very block\n        uint256 votingPower = token.totalSupplyAt(snapshotBlock);\n        require(votingPower > 0, ERROR_NO_VOTING_POWER);\n\n        voteId = votesLength++;\n\n        Vote storage vote_ = votes[voteId];\n        vote_.startDate = getTimestamp64();\n        vote_.snapshotBlock = snapshotBlock;\n        vote_.supportRequiredPct = supportRequiredPct;\n        vote_.minAcceptQuorumPct = minAcceptQuorumPct;\n        vote_.votingPower = votingPower;\n        vote_.executionScript = _executionScript;\n\n        emit StartVote(voteId, msg.sender, _metadata);\n\n        lastCreateVoteTimes[msg.sender] = getTimestamp64();\n\n        if (_castVote && _canVote(voteId, msg.sender)) {\n            _vote(voteId, true, msg.sender, _executesIfDecided);\n        }\n    }\n\n    /**\n    * @dev Internal function to cast a vote. It assumes the queried vote exists.\n    */\n    function _vote(uint256 _voteId, bool _supports, address _voter, bool _executesIfDecided) internal {\n        Vote storage vote_ = votes[_voteId];\n\n        VoterState state = vote_.voters[_voter];\n        require(state != VoterState.Yea && state != VoterState.Nay, \"Can't change votes\");\n        // This could re-enter, though we can assume the governance token is not malicious\n        uint256 voterStake = token.balanceOfAt(_voter, vote_.snapshotBlock);\n        voterStake = voterStake.mul(vote_.startDate.add(voteTime).sub(getTimestamp64())).div(voteTime);\n\n\n        if (_supports) {\n            vote_.yea = vote_.yea.add(voterStake);\n        } else {\n            vote_.nay = vote_.nay.add(voterStake);\n        }\n\n        vote_.voters[_voter] = _supports ? VoterState.Yea : VoterState.Nay;\n\n        emit CastVote(_voteId, _voter, _supports, voterStake);\n\n        if (_executesIfDecided && _canExecute(_voteId)) {\n            // We've already checked if the vote can be executed with `_canExecute()`\n            _unsafeExecuteVote(_voteId);\n        }\n    }\n\n    /**\n    * @dev Internal function to execute a vote. It assumes the queried vote exists.\n    */\n    function _executeVote(uint256 _voteId) internal {\n        require(_canExecute(_voteId), ERROR_CAN_NOT_EXECUTE);\n        _unsafeExecuteVote(_voteId);\n    }\n\n    /**\n    * @dev Unsafe version of _executeVote that assumes you have already checked if the vote can be executed and exists\n    */\n    function _unsafeExecuteVote(uint256 _voteId) internal {\n        Vote storage vote_ = votes[_voteId];\n\n        vote_.executed = true;\n\n        bytes memory input = new bytes(0); // TODO: Consider input for voting scripts\n        runScript(vote_.executionScript, input, new address[](0));\n\n        emit ExecuteVote(_voteId);\n    }\n\n    /**\n    * @dev Internal function to check if a vote can be executed. It assumes the queried vote exists.\n    * @return True if the given vote can be executed, false otherwise\n    */\n    function _canExecute(uint256 _voteId) internal view returns (bool) {\n        Vote storage vote_ = votes[_voteId];\n\n        if (vote_.executed) {\n            return false;\n        }\n\n        // Voting is already decided\n        if (_isValuePct(vote_.yea, vote_.votingPower, vote_.supportRequiredPct)) {\n            return true;\n        }\n\n        // Vote ended?\n        if (_isVoteOpen(vote_)) {\n            return false;\n        }\n        // Has enough support?\n        uint256 totalVotes = vote_.yea.add(vote_.nay);\n        if (!_isValuePct(vote_.yea, totalVotes, vote_.supportRequiredPct)) {\n            return false;\n        }\n        // Has min quorum?\n        if (!_isValuePct(vote_.yea, vote_.votingPower, vote_.minAcceptQuorumPct)) {\n            return false;\n        }\n\n        return true;\n    }\n\n    /**\n    * @dev Internal function to check if a voter can participate on a vote. It assumes the queried vote exists.\n    * @return True if the given voter can participate a certain vote, false otherwise\n    */\n    function _canVote(uint256 _voteId, address _voter) internal view returns (bool) {\n        Vote storage vote_ = votes[_voteId];\n        return _isVoteOpen(vote_) && token.balanceOfAt(_voter, vote_.snapshotBlock) > 0;\n    }\n\n    /**\n    * @dev Internal function to check if a vote is still open\n    * @return True if the given vote is open, false otherwise\n    */\n    function _isVoteOpen(Vote storage vote_) internal view returns (bool) {\n        return getTimestamp64() < vote_.startDate.add(voteTime) && !vote_.executed;\n    }\n\n    /**\n    * @dev Calculates whether `_value` is more than a percentage `_pct` of `_total`\n    */\n    function _isValuePct(uint256 _value, uint256 _total, uint256 _pct) internal pure returns (bool) {\n        if (_total == 0) {\n            return false;\n        }\n\n        uint256 computedPct = _value.mul(PCT_BASE) / _total;\n        return computedPct > _pct;\n    }\n}",
  "sourcePath": "/home/acho/data/curve-aragon-voting/contracts/Voting.sol",
  "compiler": {
    "name": "solc",
    "version": "0.4.24+commit.e67f0147.Emscripten.clang"
  },
  "schemaVersion": "3.1.0",
  "updatedAt": "2020-07-11T16:35:15.608Z",
  "devdoc": {
    "methods": {
      "allowRecoverability(address)": {
        "details": "By default deriving from AragonApp makes it recoverable",
        "params": {
          "token": "Token address that would be recovered"
        },
        "return": "bool whether the app allows the recovery"
      },
      "canExecute(uint256)": {
        "details": "Initialization check is implicitly provided by `voteExists()` as new votes can only be     created via `newVote(),` which requires initialization",
        "return": "True if the given vote can be executed, false otherwise"
      },
      "canForward(address,bytes)": {
        "details": "IForwarder interface conformance",
        "params": {
          "_sender": "Address of the account intending to forward an action"
        },
        "return": "True if the given address can create votes, false otherwise"
      },
      "canPerform(address,bytes32,uint256[])": {
        "details": "Check whether an action can be performed by a sender for a particular role on this app",
        "params": {
          "_params": "Permission params for the role",
          "_role": "Role on this app",
          "_sender": "Sender of the call"
        },
        "return": "Boolean indicating whether the sender has the permissions to perform the action.        Always returns false if the app hasn't been initialized yet."
      },
      "canVote(uint256,address)": {
        "details": "Initialization check is implicitly provided by `voteExists()` as new votes can only be     created via `newVote(),` which requires initialization",
        "return": "True if the given voter can participate a certain vote, false otherwise"
      },
      "changeMinAcceptQuorumPct(uint64)": {
        "params": {
          "_minAcceptQuorumPct": "New acceptance quorum"
        }
      },
      "changeSupportRequiredPct(uint64)": {
        "params": {
          "_supportRequiredPct": "New required support"
        }
      },
      "executeVote(uint256)": {
        "details": "Initialization check is implicitly provided by `voteExists()` as new votes can only be     created via `newVote(),` which requires initialization",
        "params": {
          "_voteId": "Id for vote"
        }
      },
      "forward(bytes)": {
        "details": "IForwarder interface conformance",
        "params": {
          "_evmScript": "Start vote with script"
        }
      },
      "getInitializationBlock()": {
        "return": "Block number in which the contract was initialized"
      },
      "getRecoveryVault()": {
        "details": "Get the recovery vault for the app",
        "return": "Recovery vault address for the app"
      },
      "getVote(uint256)": {
        "details": "Return all information for a vote by its ID",
        "params": {
          "_voteId": "Vote identifier"
        },
        "return": "Vote open statusVote executed statusVote start dateVote snapshot blockVote support requiredVote minimum acceptance quorumVote yeas amountVote nays amountVote powerVote script"
      },
      "getVoterState(uint256,address)": {
        "details": "Return the state of a voter for a given vote by its ID",
        "params": {
          "_voteId": "Vote identifier"
        },
        "return": "VoterState of the requested voter for a certain vote"
      },
      "hasInitialized()": {
        "return": "Whether the contract has been initialized by the time of the current block"
      },
      "initialize(address,uint64,uint64,uint64,uint256,uint256)": {
        "params": {
          "_minAcceptQuorumPct": "Percentage of yeas in total possible votes for a vote to succeed (expressed as a percentage of 10^18; eg. 10^16 = 1%, 10^18 = 100%)",
          "_supportRequiredPct": "Percentage of yeas in casted votes for a vote to succeed (expressed as a percentage of 10^18; eg. 10^16 = 1%, 10^18 = 100%)",
          "_token": "MiniMeToken Address that will be used as governance token",
          "_voteTime": "Seconds that a vote will be open for token holders to vote (unless enough yeas or nays have been cast to make an early decision)"
        }
      },
      "isForwarder()": {
        "details": "IForwarder interface conformance",
        "return": "Always true"
      },
      "newVote(bytes,string)": {
        "params": {
          "_executionScript": "EVM script to be executed on approval",
          "_metadata": "Vote metadata"
        },
        "return": "voteId Id for newly created vote"
      },
      "newVote(bytes,string,bool,bool)": {
        "params": {
          "_castVote": "Whether to also cast newly created vote",
          "_executesIfDecided": "Whether to also immediately execute newly created vote if decided",
          "_executionScript": "EVM script to be executed on approval",
          "_metadata": "Vote metadata"
        },
        "return": "voteId id for newly created vote"
      },
      "transferToVault(address)": {
        "params": {
          "_token": "Token balance to be sent to recovery vault."
        }
      },
      "vote(uint256,bool,bool)": {
        "details": "Initialization check is implicitly provided by `voteExists()` as new votes can only be     created via `newVote(),` which requires initialization",
        "params": {
          "_executesIfDecided": "Whether the vote should execute its action if it becomes decided",
          "_supports": "Whether voter supports the vote",
          "_voteId": "Id for vote"
        }
      }
    }
  },
  "userdoc": {
    "methods": {
      "canExecute(uint256)": {
        "notice": "Tells whether a vote #`_voteId` can be executed or not"
      },
      "canForward(address,bytes)": {
        "notice": "Tells whether `_sender` can forward actions or not"
      },
      "canVote(uint256,address)": {
        "notice": "Tells whether `_sender` can participate in the vote #`_voteId` or not"
      },
      "changeMinAcceptQuorumPct(uint64)": {
        "notice": "Change minimum acceptance quorum to `@formatPct(_minAcceptQuorumPct)`%"
      },
      "changeSupportRequiredPct(uint64)": {
        "notice": "Change required support to `@formatPct(_supportRequiredPct)`%"
      },
      "executeVote(uint256)": {
        "notice": "Execute vote #`_voteId`"
      },
      "forward(bytes)": {
        "notice": "Creates a vote to execute the desired action, and casts a support vote if possible"
      },
      "initialize(address,uint64,uint64,uint64,uint256,uint256)": {
        "notice": "Initialize Voting app with `_token.symbol(): string` for governance, minimum support of `@formatPct(_supportRequiredPct)`%, minimum acceptance quorum of `@formatPct(_minAcceptQuorumPct)`%, and a voting duration of `@transformTime(_voteTime)`"
      },
      "isForwarder()": {
        "notice": "Tells whether the Voting app is a forwarder or not"
      },
      "newVote(bytes,string)": {
        "notice": "Create a new vote about \"`_metadata`\""
      },
      "newVote(bytes,string,bool,bool)": {
        "notice": "Create a new vote about \"`_metadata`\""
      },
      "transferToVault(address)": {
        "notice": "Send funds to recovery Vault. This contract should never receive funds,        but in case it does, this function allows one to recover them."
      },
      "vote(uint256,bool,bool)": {
        "notice": "Vote `_supports ? 'yes' : 'no'` in vote #`_voteId`"
      }
    }
  }
}